{"contracts/Lootbox/LootboxSapphire.sol":{"LootboxSapphire":{"abi":[{"inputs":[{"components":[{"internalType":"contract IFFNFT","name":"nft","type":"address"},{"internalType":"uint256","name":"propertyId","type":"uint256"}],"internalType":"struct LootboxSapphire.Prize[]","name":"regularRarityPrizes","type":"tuple[]"},{"components":[{"internalType":"contract IFFNFT","name":"nft","type":"address"},{"internalType":"uint256","name":"propertyId","type":"uint256"}],"internalType":"struct LootboxSapphire.Prize[]","name":"superiorRarityPrizes","type":"tuple[]"},{"components":[{"internalType":"contract IFFNFT","name":"nft","type":"address"},{"internalType":"uint256","name":"propertyId","type":"uint256"}],"internalType":"struct LootboxSapphire.Prize[]","name":"rareRarityPrizes","type":"tuple[]"},{"components":[{"internalType":"contract IFFNFT","name":"nft","type":"address"},{"internalType":"uint256","name":"propertyId","type":"uint256"}],"internalType":"struct LootboxSapphire.Prize[]","name":"legendaryRarityPrizes","type":"tuple[]"},{"components":[{"internalType":"contract IFFNFT","name":"nft","type":"address"},{"internalType":"uint256","name":"propertyId","type":"uint256"}],"internalType":"struct LootboxSapphire.Prize[]","name":"epicRarityPrizes","type":"tuple[]"},{"internalType":"address","name":"_signer","type":"address"}],"stateMutability":"nonpayable","type":"constructor"},{"anonymous":false,"inputs":[{"indexed":true,"internalType":"address","name":"looter","type":"address"},{"indexed":true,"internalType":"contract IFFNFT","name":"nft","type":"address"},{"indexed":true,"internalType":"uint256","name":"propertyId","type":"uint256"}],"name":"Loot","type":"event"},{"anonymous":false,"inputs":[{"indexed":true,"internalType":"address","name":"previousOwner","type":"address"},{"indexed":true,"internalType":"address","name":"newOwner","type":"address"}],"name":"OwnershipTransferred","type":"event"},{"anonymous":false,"inputs":[{"indexed":false,"internalType":"address","name":"account","type":"address"}],"name":"Paused","type":"event"},{"anonymous":false,"inputs":[{"indexed":false,"internalType":"address","name":"account","type":"address"}],"name":"Unpaused","type":"event"},{"inputs":[{"internalType":"address","name":"","type":"address"}],"name":"currentUserLoot","outputs":[{"internalType":"uint256","name":"","type":"uint256"}],"stateMutability":"view","type":"function"},{"inputs":[{"internalType":"bytes32","name":"r","type":"bytes32"},{"internalType":"uint8","name":"v","type":"uint8"},{"internalType":"bytes32","name":"s","type":"bytes32"},{"internalType":"uint256","name":"somenumber","type":"uint256"}],"name":"loot","outputs":[],"stateMutability":"nonpayable","type":"function"},{"inputs":[],"name":"owner","outputs":[{"internalType":"address","name":"","type":"address"}],"stateMutability":"view","type":"function"},{"inputs":[],"name":"pause","outputs":[],"stateMutability":"nonpayable","type":"function"},{"inputs":[],"name":"paused","outputs":[{"internalType":"bool","name":"","type":"bool"}],"stateMutability":"view","type":"function"},{"inputs":[{"internalType":"enum LootboxSapphire.Rarity","name":"","type":"uint8"},{"internalType":"uint256","name":"","type":"uint256"}],"name":"prizesByRarity","outputs":[{"internalType":"contract IFFNFT","name":"nft","type":"address"},{"internalType":"uint256","name":"propertyId","type":"uint256"}],"stateMutability":"view","type":"function"},{"inputs":[{"internalType":"enum LootboxSapphire.Rarity","name":"","type":"uint8"}],"name":"rarityPercent","outputs":[{"internalType":"uint256","name":"","type":"uint256"}],"stateMutability":"view","type":"function"},{"inputs":[],"name":"renounceOwnership","outputs":[],"stateMutability":"nonpayable","type":"function"},{"inputs":[{"internalType":"address","name":"_signer","type":"address"}],"name":"setSigner","outputs":[],"stateMutability":"nonpayable","type":"function"},{"inputs":[{"internalType":"address","name":"newOwner","type":"address"}],"name":"transferOwnership","outputs":[],"stateMutability":"nonpayable","type":"function"},{"inputs":[],"name":"unpause","outputs":[],"stateMutability":"nonpayable","type":"function"}],"evm":{"bytecode":{"linkReferences":{},"object":"60a06040523480156200001157600080fd5b50604051620027dd380380620027dd833981810160405281019062000037919062000bc3565b60008060006101000a81548160ff02191690831515021790555062000071620000656200073260201b60201c565b6200073a60201b60201c565b611f40600260008060048111156200008e576200008d62000cfa565b5b6004811115620000a357620000a262000cfa565b5b8152602001908152602001600020819055506107d06002600060016004811115620000d357620000d262000cfa565b5b6004811115620000e857620000e762000cfa565b5b81526020019081526020016000208190555060c8600260006002600481111562000117576200011662000cfa565b5b60048111156200012c576200012b62000cfa565b5b815260200190815260200160002081905550601460026000600360048111156200015b576200015a62000cfa565b5b600481111562000170576200016f62000cfa565b5b81526020019081526020016000208190555060028060006004808111156200019d576200019c62000cfa565b5b6004811115620001b257620001b162000cfa565b5b81526020019081526020016000208190555060005b8651811015620002be5760036000806004811115620001eb57620001ea62000cfa565b5b60048111156200020057620001ff62000cfa565b5b815260200190815260200160002087828151811062000224576200022362000d29565b5b6020026020010151908060018154018082558091505060019003906000526020600020906002020160009091909190915060008201518160000160006101000a81548173ffffffffffffffffffffffffffffffffffffffff021916908373ffffffffffffffffffffffffffffffffffffffff1602179055506020820151816001015550508080620002b59062000d87565b915050620001c7565b5060005b8551811015620003ba576003600060016004811115620002e757620002e662000cfa565b5b6004811115620002fc57620002fb62000cfa565b5b815260200190815260200160002086828151811062000320576200031f62000d29565b5b6020026020010151908060018154018082558091505060019003906000526020600020906002020160009091909190915060008201518160000160006101000a81548173ffffffffffffffffffffffffffffffffffffffff021916908373ffffffffffffffffffffffffffffffffffffffff1602179055506020820151816001015550508080620003b19062000d87565b915050620002c2565b5060005b8451811015620004b6576003600060026004811115620003e357620003e262000cfa565b5b6004811115620003f857620003f762000cfa565b5b81526020019081526020016000208582815181106200041c576200041b62000d29565b5b6020026020010151908060018154018082558091505060019003906000526020600020906002020160009091909190915060008201518160000160006101000a81548173ffffffffffffffffffffffffffffffffffffffff021916908373ffffffffffffffffffffffffffffffffffffffff1602179055506020820151816001015550508080620004ad9062000d87565b915050620003be565b5060005b8351811015620005b2576003600060036004811115620004df57620004de62000cfa565b5b6004811115620004f457620004f362000cfa565b5b815260200190815260200160002084828151811062000518576200051762000d29565b5b6020026020010151908060018154018082558091505060019003906000526020600020906002020160009091909190915060008201518160000160006101000a81548173ffffffffffffffffffffffffffffffffffffffff021916908373ffffffffffffffffffffffffffffffffffffffff1602179055506020820151816001015550508080620005a99062000d87565b915050620004ba565b5060005b8251811015620006ad5760036000600480811115620005da57620005d962000cfa565b5b6004811115620005ef57620005ee62000cfa565b5b815260200190815260200160002083828151811062000613576200061262000d29565b5b6020026020010151908060018154018082558091505060019003906000526020600020906002020160009091909190915060008201518160000160006101000a81548173ffffffffffffffffffffffffffffffffffffffff021916908373ffffffffffffffffffffffffffffffffffffffff1602179055506020820151816001015550508080620006a49062000d87565b915050620005b6565b5080600160006101000a81548173ffffffffffffffffffffffffffffffffffffffff021916908373ffffffffffffffffffffffffffffffffffffffff16021790555062000711602060405180602001604052806000815250620007ff60201b60201c565b6200071c9062000e1d565b60001c608081815250505050505050506200102e565b600033905090565b60008060019054906101000a900473ffffffffffffffffffffffffffffffffffffffff16905081600060016101000a81548173ffffffffffffffffffffffffffffffffffffffff021916908373ffffffffffffffffffffffffffffffffffffffff1602179055508173ffffffffffffffffffffffffffffffffffffffff168173ffffffffffffffffffffffffffffffffffffffff167f8be0079c531659141344cd1fd0a4f28419497f9722a3daafe3b4186f6b6457e060405160405180910390a35050565b606060008073010000000000000000000000000000000000000173ffffffffffffffffffffffffffffffffffffffff1685856040516020016200084492919062000f1c565b60405160208183030381529060405260405162000862919062000f92565b600060405180830381855afa9150503d80600081146200089f576040519150601f19603f3d011682016040523d82523d6000602084013e620008a4565b606091505b509150915081620008ec576040517f08c379a0000000000000000000000000000000000000000000000000000000008152600401620008e3906200100c565b60405180910390fd5b809250505092915050565b6000604051905090565b600080fd5b600080fd5b600080fd5b6000601f19601f8301169050919050565b7f4e487b7100000000000000000000000000000000000000000000000000000000600052604160045260246000fd5b6200095b8262000910565b810181811067ffffffffffffffff821117156200097d576200097c62000921565b5b80604052505050565b600062000992620008f7565b9050620009a0828262000950565b919050565b600067ffffffffffffffff821115620009c357620009c262000921565b5b602082029050602081019050919050565b600080fd5b600080fd5b600073ffffffffffffffffffffffffffffffffffffffff82169050919050565b600062000a0b82620009de565b9050919050565b600062000a1f82620009fe565b9050919050565b62000a318162000a12565b811462000a3d57600080fd5b50565b60008151905062000a518162000a26565b92915050565b6000819050919050565b62000a6c8162000a57565b811462000a7857600080fd5b50565b60008151905062000a8c8162000a61565b92915050565b60006040828403121562000aab5762000aaa620009d9565b5b62000ab7604062000986565b9050600062000ac98482850162000a40565b600083015250602062000adf8482850162000a7b565b60208301525092915050565b600062000b0262000afc84620009a5565b62000986565b9050808382526020820190506040840283018581111562000b285762000b27620009d4565b5b835b8181101562000b55578062000b40888262000a92565b84526020840193505060408101905062000b2a565b5050509392505050565b600082601f83011262000b775762000b766200090b565b5b815162000b8984826020860162000aeb565b91505092915050565b62000b9d81620009fe565b811462000ba957600080fd5b50565b60008151905062000bbd8162000b92565b92915050565b60008060008060008060c0878903121562000be35762000be262000901565b5b600087015167ffffffffffffffff81111562000c045762000c0362000906565b5b62000c1289828a0162000b5f565b965050602087015167ffffffffffffffff81111562000c365762000c3562000906565b5b62000c4489828a0162000b5f565b955050604087015167ffffffffffffffff81111562000c685762000c6762000906565b5b62000c7689828a0162000b5f565b945050606087015167ffffffffffffffff81111562000c9a5762000c9962000906565b5b62000ca889828a0162000b5f565b935050608087015167ffffffffffffffff81111562000ccc5762000ccb62000906565b5b62000cda89828a0162000b5f565b92505060a062000ced89828a0162000bac565b9150509295509295509295565b7f4e487b7100000000000000000000000000000000000000000000000000000000600052602160045260246000fd5b7f4e487b7100000000000000000000000000000000000000000000000000000000600052603260045260246000fd5b7f4e487b7100000000000000000000000000000000000000000000000000000000600052601160045260246000fd5b600062000d948262000a57565b91507fffffffffffffffffffffffffffffffffffffffffffffffffffffffffffffffff820362000dc95762000dc862000d58565b5b600182019050919050565b600081519050919050565b6000819050602082019050919050565b6000819050919050565b600062000e07825162000def565b80915050919050565b600082821b905092915050565b600062000e2a8262000dd4565b8262000e368462000ddf565b905062000e438162000df9565b9250602082101562000e865762000e817fffffffffffffffffffffffffffffffffffffffffffffffffffffffffffffffff8360200360080262000e10565b831692505b5050919050565b62000e988162000a57565b82525050565b600082825260208201905092915050565b60005b8381101562000ecf57808201518184015260208101905062000eb2565b60008484015250505050565b600062000ee88262000dd4565b62000ef4818562000e9e565b935062000f0681856020860162000eaf565b62000f118162000910565b840191505092915050565b600060408201905062000f33600083018562000e8d565b818103602083015262000f47818462000edb565b90509392505050565b600081905092915050565b600062000f688262000dd4565b62000f74818562000f50565b935062000f8681856020860162000eaf565b80840191505092915050565b600062000fa0828462000f5b565b915081905092915050565b600082825260208201905092915050565b7f72616e646f6d42797465733a206661696c656400000000000000000000000000600082015250565b600062000ff460138362000fab565b9150620010018262000fbc565b602082019050919050565b60006020820190508181036000830152620010278162000fe5565b9050919050565b60805161179662001047600039600050506117966000f3fe608060405234801561001057600080fd5b50600436106100a95760003560e01c80636c19e783116100715780636c19e78314610153578063715018a61461016f5780638456cb59146101795780638da5cb5b14610183578063dd194e9f146101a1578063f2fde38b146101d1576100a9565b80630df9b7be146100ae5780632134333c146100df5780633f4ba83a1461010f5780634fb322d2146101195780635c975abb14610135575b600080fd5b6100c860048036038101906100c39190610dc4565b6101ed565b6040516100d6929190610e92565b60405180910390f35b6100f960048036038101906100f49190610ef9565b61024e565b6040516101069190610f26565b60405180910390f35b610117610266565b005b610133600480360381019061012e9190610fb0565b610278565b005b61013d61076c565b60405161014a9190611032565b60405180910390f35b61016d60048036038101906101689190610ef9565b610782565b005b61017761083d565b005b610181610851565b005b61018b610863565b604051610198919061105c565b60405180910390f35b6101bb60048036038101906101b69190611077565b61088c565b6040516101c89190610f26565b60405180910390f35b6101eb60048036038101906101e69190610ef9565b6108a4565b005b6003602052816000526040600020818154811061020957600080fd5b9060005260206000209060020201600091509150508060000160009054906101000a900473ffffffffffffffffffffffffffffffffffffffff16908060010154905082565b60046020528060005260406000206000915090505481565b61026e610927565b6102766109a5565b565b610280610a07565b61028c84848484610a51565b6102cb576040517f08c379a00000000000000000000000000000000000000000000000000000000081526004016102c290611101565b60405180910390fd5b60006102da8233612710610b92565b9050600060026000600160048111156102f6576102f5611121565b5b600481111561030857610307611121565b5b815260200190815260200160002054821061032257600090505b600260006001600481111561033a57610339611121565b5b600481111561034c5761034b611121565b5b815260200190815260200160002054821080156103a15750600260006002600481111561037c5761037b611121565b5b600481111561038e5761038d611121565b5b8152602001908152602001600020548210155b156103ab57600190505b60026000600260048111156103c3576103c2611121565b5b60048111156103d5576103d4611121565b5b8152602001908152602001600020548210801561042a5750600260006003600481111561040557610404611121565b5b600481111561041757610416611121565b5b8152602001908152602001600020548210155b1561043457600290505b600260006003600481111561044c5761044b611121565b5b600481111561045e5761045d611121565b5b815260200190815260200160002054821080156104b257506002600060048081111561048d5761048c611121565b5b600481111561049f5761049e611121565b5b8152602001908152602001600020548210155b156104bc57600390505b600260006004808111156104d3576104d2611121565b5b60048111156104e5576104e4611121565b5b81526020019081526020016000205482101561050057600490505b60006003600083600481111561051957610518611121565b5b600481111561052b5761052a611121565b5b815260200190815260200160002080549050905060006105588530600185610553919061117f565b610b92565b905060006003600085600481111561057357610572611121565b5b600481111561058557610584611121565b5b815260200190815260200160002082815481106105a5576105a46111b3565b5b90600052602060002090600202016040518060400160405290816000820160009054906101000a900473ffffffffffffffffffffffffffffffffffffffff1673ffffffffffffffffffffffffffffffffffffffff1673ffffffffffffffffffffffffffffffffffffffff1681526020016001820154815250509050806000015173ffffffffffffffffffffffffffffffffffffffff166340c10f193383602001516040518363ffffffff1660e01b81526004016106639291906111e2565b6020604051808303816000875af1158015610682573d6000803e3d6000fd5b505050506040513d601f19601f820116820180604052508101906106a69190611220565b506001600460003373ffffffffffffffffffffffffffffffffffffffff1673ffffffffffffffffffffffffffffffffffffffff16815260200190815260200160002060008282546106f7919061124d565b925050819055508060200151816000015173ffffffffffffffffffffffffffffffffffffffff163373ffffffffffffffffffffffffffffffffffffffff167fd9bf520c4b02275d7964644f800c155049c19b5d627eff5976dc8e2b5a1cf58760405160405180910390a4505050505050505050565b60008060009054906101000a900460ff16905090565b61078a610927565b600073ffffffffffffffffffffffffffffffffffffffff168173ffffffffffffffffffffffffffffffffffffffff16036107f9576040517f08c379a00000000000000000000000000000000000000000000000000000000081526004016107f0906112f3565b60405180910390fd5b80600160006101000a81548173ffffffffffffffffffffffffffffffffffffffff021916908373ffffffffffffffffffffffffffffffffffffffff16021790555050565b610845610927565b61084f6000610bec565b565b610859610927565b610861610cb1565b565b60008060019054906101000a900473ffffffffffffffffffffffffffffffffffffffff16905090565b60026020528060005260406000206000915090505481565b6108ac610927565b600073ffffffffffffffffffffffffffffffffffffffff168173ffffffffffffffffffffffffffffffffffffffff160361091b576040517f08c379a000000000000000000000000000000000000000000000000000000000815260040161091290611385565b60405180910390fd5b61092481610bec565b50565b61092f610d13565b73ffffffffffffffffffffffffffffffffffffffff1661094d610863565b73ffffffffffffffffffffffffffffffffffffffff16146109a3576040517f08c379a000000000000000000000000000000000000000000000000000000000815260040161099a906113f1565b60405180910390fd5b565b6109ad610d1b565b60008060006101000a81548160ff0219169083151502179055507f5db9ee0a495bf2e6ff9c91a7834c1ba4fdd244a5e8aa4e537bd38aeae4b073aa6109f0610d13565b6040516109fd919061105c565b60405180910390a1565b610a0f61076c565b15610a4f576040517f08c379a0000000000000000000000000000000000000000000000000000000008152600401610a469061145d565b60405180910390fd5b565b600080823330600460003373ffffffffffffffffffffffffffffffffffffffff1673ffffffffffffffffffffffffffffffffffffffff16815260200190815260200160002054604051602001610aaa94939291906114e6565b604051602081830303815290604052805190602001209050600181604051602001610ad591906115ac565b6040516020818303038152906040528051906020012086888760405160008152602001604052604051610b0b94939291906115f0565b6020604051602081039080840390855afa158015610b2d573d6000803e3d6000fd5b5050506020604051035173ffffffffffffffffffffffffffffffffffffffff16600160009054906101000a900473ffffffffffffffffffffffffffffffffffffffff1673ffffffffffffffffffffffffffffffffffffffff1614915050949350505050565b60008083434487600143610ba6919061117f565b40604051602001610bbb959493929190611635565b6040516020818303038152906040528051906020012060001c90508281610be291906116c3565b9150509392505050565b60008060019054906101000a900473ffffffffffffffffffffffffffffffffffffffff16905081600060016101000a81548173ffffffffffffffffffffffffffffffffffffffff021916908373ffffffffffffffffffffffffffffffffffffffff1602179055508173ffffffffffffffffffffffffffffffffffffffff168173ffffffffffffffffffffffffffffffffffffffff167f8be0079c531659141344cd1fd0a4f28419497f9722a3daafe3b4186f6b6457e060405160405180910390a35050565b610cb9610a07565b60016000806101000a81548160ff0219169083151502179055507f62e78cea01bee320cd4e420270b5ea74000d11b0c9f74754ebdbfc544b05a258610cfc610d13565b604051610d09919061105c565b60405180910390a1565b600033905090565b610d2361076c565b610d62576040517f08c379a0000000000000000000000000000000000000000000000000000000008152600401610d5990611740565b60405180910390fd5b565b600080fd5b60058110610d7657600080fd5b50565b600081359050610d8881610d69565b92915050565b6000819050919050565b610da181610d8e565b8114610dac57600080fd5b50565b600081359050610dbe81610d98565b92915050565b60008060408385031215610ddb57610dda610d64565b5b6000610de985828601610d79565b9250506020610dfa85828601610daf565b9150509250929050565b600073ffffffffffffffffffffffffffffffffffffffff82169050919050565b6000819050919050565b6000610e49610e44610e3f84610e04565b610e24565b610e04565b9050919050565b6000610e5b82610e2e565b9050919050565b6000610e6d82610e50565b9050919050565b610e7d81610e62565b82525050565b610e8c81610d8e565b82525050565b6000604082019050610ea76000830185610e74565b610eb46020830184610e83565b9392505050565b6000610ec682610e04565b9050919050565b610ed681610ebb565b8114610ee157600080fd5b50565b600081359050610ef381610ecd565b92915050565b600060208284031215610f0f57610f0e610d64565b5b6000610f1d84828501610ee4565b91505092915050565b6000602082019050610f3b6000830184610e83565b92915050565b6000819050919050565b610f5481610f41565b8114610f5f57600080fd5b50565b600081359050610f7181610f4b565b92915050565b600060ff82169050919050565b610f8d81610f77565b8114610f9857600080fd5b50565b600081359050610faa81610f84565b92915050565b60008060008060808587031215610fca57610fc9610d64565b5b6000610fd887828801610f62565b9450506020610fe987828801610f9b565b9350506040610ffa87828801610f62565b925050606061100b87828801610daf565b91505092959194509250565b60008115159050919050565b61102c81611017565b82525050565b60006020820190506110476000830184611023565b92915050565b61105681610ebb565b82525050565b6000602082019050611071600083018461104d565b92915050565b60006020828403121561108d5761108c610d64565b5b600061109b84828501610d79565b91505092915050565b600082825260208201905092915050565b7f466169724669676874204c6f6f74626f783a204e6f7420766572696669656400600082015250565b60006110eb601f836110a4565b91506110f6826110b5565b602082019050919050565b6000602082019050818103600083015261111a816110de565b9050919050565b7f4e487b7100000000000000000000000000000000000000000000000000000000600052602160045260246000fd5b7f4e487b7100000000000000000000000000000000000000000000000000000000600052601160045260246000fd5b600061118a82610d8e565b915061119583610d8e565b92508282039050818111156111ad576111ac611150565b5b92915050565b7f4e487b7100000000000000000000000000000000000000000000000000000000600052603260045260246000fd5b60006040820190506111f7600083018561104d565b6112046020830184610e83565b9392505050565b60008151905061121a81610d98565b92915050565b60006020828403121561123657611235610d64565b5b60006112448482850161120b565b91505092915050565b600061125882610d8e565b915061126383610d8e565b925082820190508082111561127b5761127a611150565b5b92915050565b7f466169724669676874204c6f6f74626f783a205369676e65722063616e74206260008201527f652061646472657373207a65726f000000000000000000000000000000000000602082015250565b60006112dd602e836110a4565b91506112e882611281565b604082019050919050565b6000602082019050818103600083015261130c816112d0565b9050919050565b7f4f776e61626c653a206e6577206f776e657220697320746865207a65726f206160008201527f6464726573730000000000000000000000000000000000000000000000000000602082015250565b600061136f6026836110a4565b915061137a82611313565b604082019050919050565b6000602082019050818103600083015261139e81611362565b9050919050565b7f4f776e61626c653a2063616c6c6572206973206e6f7420746865206f776e6572600082015250565b60006113db6020836110a4565b91506113e6826113a5565b602082019050919050565b6000602082019050818103600083015261140a816113ce565b9050919050565b7f5061757361626c653a2070617573656400000000000000000000000000000000600082015250565b60006114476010836110a4565b915061145282611411565b602082019050919050565b600060208201905081810360008301526114768161143a565b9050919050565b6000819050919050565b61149861149382610d8e565b61147d565b82525050565b60008160601b9050919050565b60006114b68261149e565b9050919050565b60006114c8826114ab565b9050919050565b6114e06114db82610ebb565b6114bd565b82525050565b60006114f28287611487565b60208201915061150282866114cf565b60148201915061151282856114cf565b6014820191506115228284611487565b60208201915081905095945050505050565b600081905092915050565b7f19457468657265756d205369676e6564204d6573736167653a0a333200000000600082015250565b6000611575601c83611534565b91506115808261153f565b601c82019050919050565b6000819050919050565b6115a66115a182610f41565b61158b565b82525050565b60006115b782611568565b91506115c38284611595565b60208201915081905092915050565b6115db81610f41565b82525050565b6115ea81610f77565b82525050565b600060808201905061160560008301876115d2565b61161260208301866115e1565b61161f60408301856115d2565b61162c60608301846115d2565b95945050505050565b600061164182886114cf565b6014820191506116518287611487565b6020820191506116618286611487565b6020820191506116718285611487565b6020820191506116818284611595565b6020820191508190509695505050505050565b7f4e487b7100000000000000000000000000000000000000000000000000000000600052601260045260246000fd5b60006116ce82610d8e565b91506116d983610d8e565b9250826116e9576116e8611694565b5b828206905092915050565b7f5061757361626c653a206e6f7420706175736564000000000000000000000000600082015250565b600061172a6014836110a4565b9150611735826116f4565b602082019050919050565b600060208201905081810360008301526117598161171d565b905091905056fea2646970667358221220e4ec039aa88ed4d465bf802244958d147ddea5e67e9faadfc8181fedc54e743764736f6c63430008130033","opcodes":"PUSH1 0xA0 PUSH1 0x40 MSTORE CALLVALUE DUP1 ISZERO PUSH3 0x11 JUMPI PUSH1 0x0 DUP1 REVERT JUMPDEST POP PUSH1 0x40 MLOAD PUSH3 0x27DD CODESIZE SUB DUP1 PUSH3 0x27DD DUP4 CODECOPY DUP2 DUP2 ADD PUSH1 0x40 MSTORE DUP2 ADD SWAP1 PUSH3 0x37 SWAP2 SWAP1 PUSH3 0xBC3 JUMP JUMPDEST PUSH1 0x0 DUP1 PUSH1 0x0 PUSH2 0x100 EXP DUP2 SLOAD DUP2 PUSH1 0xFF MUL NOT AND SWAP1 DUP4 ISZERO ISZERO MUL OR SWAP1 SSTORE POP PUSH3 0x71 PUSH3 0x65 PUSH3 0x732 PUSH1 0x20 SHL PUSH1 0x20 SHR JUMP JUMPDEST PUSH3 0x73A PUSH1 0x20 SHL PUSH1 0x20 SHR JUMP JUMPDEST PUSH2 0x1F40 PUSH1 0x2 PUSH1 0x0 DUP1 PUSH1 0x4 DUP2 GT ISZERO PUSH3 0x8E JUMPI PUSH3 0x8D PUSH3 0xCFA JUMP JUMPDEST JUMPDEST PUSH1 0x4 DUP2 GT ISZERO PUSH3 0xA3 JUMPI PUSH3 0xA2 PUSH3 0xCFA JUMP JUMPDEST JUMPDEST DUP2 MSTORE PUSH1 0x20 ADD SWAP1 DUP2 MSTORE PUSH1 0x20 ADD PUSH1 0x0 KECCAK256 DUP2 SWAP1 SSTORE POP PUSH2 0x7D0 PUSH1 0x2 PUSH1 0x0 PUSH1 0x1 PUSH1 0x4 DUP2 GT ISZERO PUSH3 0xD3 JUMPI PUSH3 0xD2 PUSH3 0xCFA JUMP JUMPDEST JUMPDEST PUSH1 0x4 DUP2 GT ISZERO PUSH3 0xE8 JUMPI PUSH3 0xE7 PUSH3 0xCFA JUMP JUMPDEST JUMPDEST DUP2 MSTORE PUSH1 0x20 ADD SWAP1 DUP2 MSTORE PUSH1 0x20 ADD PUSH1 0x0 KECCAK256 DUP2 SWAP1 SSTORE POP PUSH1 0xC8 PUSH1 0x2 PUSH1 0x0 PUSH1 0x2 PUSH1 0x4 DUP2 GT ISZERO PUSH3 0x117 JUMPI PUSH3 0x116 PUSH3 0xCFA JUMP JUMPDEST JUMPDEST PUSH1 0x4 DUP2 GT ISZERO PUSH3 0x12C JUMPI PUSH3 0x12B PUSH3 0xCFA JUMP JUMPDEST JUMPDEST DUP2 MSTORE PUSH1 0x20 ADD SWAP1 DUP2 MSTORE PUSH1 0x20 ADD PUSH1 0x0 KECCAK256 DUP2 SWAP1 SSTORE POP PUSH1 0x14 PUSH1 0x2 PUSH1 0x0 PUSH1 0x3 PUSH1 0x4 DUP2 GT ISZERO PUSH3 0x15B JUMPI PUSH3 0x15A PUSH3 0xCFA JUMP JUMPDEST JUMPDEST PUSH1 0x4 DUP2 GT ISZERO PUSH3 0x170 JUMPI PUSH3 0x16F PUSH3 0xCFA JUMP JUMPDEST JUMPDEST DUP2 MSTORE PUSH1 0x20 ADD SWAP1 DUP2 MSTORE PUSH1 0x20 ADD PUSH1 0x0 KECCAK256 DUP2 SWAP1 SSTORE POP PUSH1 0x2 DUP1 PUSH1 0x0 PUSH1 0x4 DUP1 DUP2 GT ISZERO PUSH3 0x19D JUMPI PUSH3 0x19C PUSH3 0xCFA JUMP JUMPDEST JUMPDEST PUSH1 0x4 DUP2 GT ISZERO PUSH3 0x1B2 JUMPI PUSH3 0x1B1 PUSH3 0xCFA JUMP JUMPDEST JUMPDEST DUP2 MSTORE PUSH1 0x20 ADD SWAP1 DUP2 MSTORE PUSH1 0x20 ADD PUSH1 0x0 KECCAK256 DUP2 SWAP1 SSTORE POP PUSH1 0x0 JUMPDEST DUP7 MLOAD DUP2 LT ISZERO PUSH3 0x2BE JUMPI PUSH1 0x3 PUSH1 0x0 DUP1 PUSH1 0x4 DUP2 GT ISZERO PUSH3 0x1EB JUMPI PUSH3 0x1EA PUSH3 0xCFA JUMP JUMPDEST JUMPDEST PUSH1 0x4 DUP2 GT ISZERO PUSH3 0x200 JUMPI PUSH3 0x1FF PUSH3 0xCFA JUMP JUMPDEST JUMPDEST DUP2 MSTORE PUSH1 0x20 ADD SWAP1 DUP2 MSTORE PUSH1 0x20 ADD PUSH1 0x0 KECCAK256 DUP8 DUP3 DUP2 MLOAD DUP2 LT PUSH3 0x224 JUMPI PUSH3 0x223 PUSH3 0xD29 JUMP JUMPDEST JUMPDEST PUSH1 0x20 MUL PUSH1 0x20 ADD ADD MLOAD SWAP1 DUP1 PUSH1 0x1 DUP2 SLOAD ADD DUP1 DUP3 SSTORE DUP1 SWAP2 POP POP PUSH1 0x1 SWAP1 SUB SWAP1 PUSH1 0x0 MSTORE PUSH1 0x20 PUSH1 0x0 KECCAK256 SWAP1 PUSH1 0x2 MUL ADD PUSH1 0x0 SWAP1 SWAP2 SWAP1 SWAP2 SWAP1 SWAP2 POP PUSH1 0x0 DUP3 ADD MLOAD DUP2 PUSH1 0x0 ADD PUSH1 0x0 PUSH2 0x100 EXP DUP2 SLOAD DUP2 PUSH20 0xFFFFFFFFFFFFFFFFFFFFFFFFFFFFFFFFFFFFFFFF MUL NOT AND SWAP1 DUP4 PUSH20 0xFFFFFFFFFFFFFFFFFFFFFFFFFFFFFFFFFFFFFFFF AND MUL OR SWAP1 SSTORE POP PUSH1 0x20 DUP3 ADD MLOAD DUP2 PUSH1 0x1 ADD SSTORE POP POP DUP1 DUP1 PUSH3 0x2B5 SWAP1 PUSH3 0xD87 JUMP JUMPDEST SWAP2 POP POP PUSH3 0x1C7 JUMP JUMPDEST POP PUSH1 0x0 JUMPDEST DUP6 MLOAD DUP2 LT ISZERO PUSH3 0x3BA JUMPI PUSH1 0x3 PUSH1 0x0 PUSH1 0x1 PUSH1 0x4 DUP2 GT ISZERO PUSH3 0x2E7 JUMPI PUSH3 0x2E6 PUSH3 0xCFA JUMP JUMPDEST JUMPDEST PUSH1 0x4 DUP2 GT ISZERO PUSH3 0x2FC JUMPI PUSH3 0x2FB PUSH3 0xCFA JUMP JUMPDEST JUMPDEST DUP2 MSTORE PUSH1 0x20 ADD SWAP1 DUP2 MSTORE PUSH1 0x20 ADD PUSH1 0x0 KECCAK256 DUP7 DUP3 DUP2 MLOAD DUP2 LT PUSH3 0x320 JUMPI PUSH3 0x31F PUSH3 0xD29 JUMP JUMPDEST JUMPDEST PUSH1 0x20 MUL PUSH1 0x20 ADD ADD MLOAD SWAP1 DUP1 PUSH1 0x1 DUP2 SLOAD ADD DUP1 DUP3 SSTORE DUP1 SWAP2 POP POP PUSH1 0x1 SWAP1 SUB SWAP1 PUSH1 0x0 MSTORE PUSH1 0x20 PUSH1 0x0 KECCAK256 SWAP1 PUSH1 0x2 MUL ADD PUSH1 0x0 SWAP1 SWAP2 SWAP1 SWAP2 SWAP1 SWAP2 POP PUSH1 0x0 DUP3 ADD MLOAD DUP2 PUSH1 0x0 ADD PUSH1 0x0 PUSH2 0x100 EXP DUP2 SLOAD DUP2 PUSH20 0xFFFFFFFFFFFFFFFFFFFFFFFFFFFFFFFFFFFFFFFF MUL NOT AND SWAP1 DUP4 PUSH20 0xFFFFFFFFFFFFFFFFFFFFFFFFFFFFFFFFFFFFFFFF AND MUL OR SWAP1 SSTORE POP PUSH1 0x20 DUP3 ADD MLOAD DUP2 PUSH1 0x1 ADD SSTORE POP POP DUP1 DUP1 PUSH3 0x3B1 SWAP1 PUSH3 0xD87 JUMP JUMPDEST SWAP2 POP POP PUSH3 0x2C2 JUMP JUMPDEST POP PUSH1 0x0 JUMPDEST DUP5 MLOAD DUP2 LT ISZERO PUSH3 0x4B6 JUMPI PUSH1 0x3 PUSH1 0x0 PUSH1 0x2 PUSH1 0x4 DUP2 GT ISZERO PUSH3 0x3E3 JUMPI PUSH3 0x3E2 PUSH3 0xCFA JUMP JUMPDEST JUMPDEST PUSH1 0x4 DUP2 GT ISZERO PUSH3 0x3F8 JUMPI PUSH3 0x3F7 PUSH3 0xCFA JUMP JUMPDEST JUMPDEST DUP2 MSTORE PUSH1 0x20 ADD SWAP1 DUP2 MSTORE PUSH1 0x20 ADD PUSH1 0x0 KECCAK256 DUP6 DUP3 DUP2 MLOAD DUP2 LT PUSH3 0x41C JUMPI PUSH3 0x41B PUSH3 0xD29 JUMP JUMPDEST JUMPDEST PUSH1 0x20 MUL PUSH1 0x20 ADD ADD MLOAD SWAP1 DUP1 PUSH1 0x1 DUP2 SLOAD ADD DUP1 DUP3 SSTORE DUP1 SWAP2 POP POP PUSH1 0x1 SWAP1 SUB SWAP1 PUSH1 0x0 MSTORE PUSH1 0x20 PUSH1 0x0 KECCAK256 SWAP1 PUSH1 0x2 MUL ADD PUSH1 0x0 SWAP1 SWAP2 SWAP1 SWAP2 SWAP1 SWAP2 POP PUSH1 0x0 DUP3 ADD MLOAD DUP2 PUSH1 0x0 ADD PUSH1 0x0 PUSH2 0x100 EXP DUP2 SLOAD DUP2 PUSH20 0xFFFFFFFFFFFFFFFFFFFFFFFFFFFFFFFFFFFFFFFF MUL NOT AND SWAP1 DUP4 PUSH20 0xFFFFFFFFFFFFFFFFFFFFFFFFFFFFFFFFFFFFFFFF AND MUL OR SWAP1 SSTORE POP PUSH1 0x20 DUP3 ADD MLOAD DUP2 PUSH1 0x1 ADD SSTORE POP POP DUP1 DUP1 PUSH3 0x4AD SWAP1 PUSH3 0xD87 JUMP JUMPDEST SWAP2 POP POP PUSH3 0x3BE JUMP JUMPDEST POP PUSH1 0x0 JUMPDEST DUP4 MLOAD DUP2 LT ISZERO PUSH3 0x5B2 JUMPI PUSH1 0x3 PUSH1 0x0 PUSH1 0x3 PUSH1 0x4 DUP2 GT ISZERO PUSH3 0x4DF JUMPI PUSH3 0x4DE PUSH3 0xCFA JUMP JUMPDEST JUMPDEST PUSH1 0x4 DUP2 GT ISZERO PUSH3 0x4F4 JUMPI PUSH3 0x4F3 PUSH3 0xCFA JUMP JUMPDEST JUMPDEST DUP2 MSTORE PUSH1 0x20 ADD SWAP1 DUP2 MSTORE PUSH1 0x20 ADD PUSH1 0x0 KECCAK256 DUP5 DUP3 DUP2 MLOAD DUP2 LT PUSH3 0x518 JUMPI PUSH3 0x517 PUSH3 0xD29 JUMP JUMPDEST JUMPDEST PUSH1 0x20 MUL PUSH1 0x20 ADD ADD MLOAD SWAP1 DUP1 PUSH1 0x1 DUP2 SLOAD ADD DUP1 DUP3 SSTORE DUP1 SWAP2 POP POP PUSH1 0x1 SWAP1 SUB SWAP1 PUSH1 0x0 MSTORE PUSH1 0x20 PUSH1 0x0 KECCAK256 SWAP1 PUSH1 0x2 MUL ADD PUSH1 0x0 SWAP1 SWAP2 SWAP1 SWAP2 SWAP1 SWAP2 POP PUSH1 0x0 DUP3 ADD MLOAD DUP2 PUSH1 0x0 ADD PUSH1 0x0 PUSH2 0x100 EXP DUP2 SLOAD DUP2 PUSH20 0xFFFFFFFFFFFFFFFFFFFFFFFFFFFFFFFFFFFFFFFF MUL NOT AND SWAP1 DUP4 PUSH20 0xFFFFFFFFFFFFFFFFFFFFFFFFFFFFFFFFFFFFFFFF AND MUL OR SWAP1 SSTORE POP PUSH1 0x20 DUP3 ADD MLOAD DUP2 PUSH1 0x1 ADD SSTORE POP POP DUP1 DUP1 PUSH3 0x5A9 SWAP1 PUSH3 0xD87 JUMP JUMPDEST SWAP2 POP POP PUSH3 0x4BA JUMP JUMPDEST POP PUSH1 0x0 JUMPDEST DUP3 MLOAD DUP2 LT ISZERO PUSH3 0x6AD JUMPI PUSH1 0x3 PUSH1 0x0 PUSH1 0x4 DUP1 DUP2 GT ISZERO PUSH3 0x5DA JUMPI PUSH3 0x5D9 PUSH3 0xCFA JUMP JUMPDEST JUMPDEST PUSH1 0x4 DUP2 GT ISZERO PUSH3 0x5EF JUMPI PUSH3 0x5EE PUSH3 0xCFA JUMP JUMPDEST JUMPDEST DUP2 MSTORE PUSH1 0x20 ADD SWAP1 DUP2 MSTORE PUSH1 0x20 ADD PUSH1 0x0 KECCAK256 DUP4 DUP3 DUP2 MLOAD DUP2 LT PUSH3 0x613 JUMPI PUSH3 0x612 PUSH3 0xD29 JUMP JUMPDEST JUMPDEST PUSH1 0x20 MUL PUSH1 0x20 ADD ADD MLOAD SWAP1 DUP1 PUSH1 0x1 DUP2 SLOAD ADD DUP1 DUP3 SSTORE DUP1 SWAP2 POP POP PUSH1 0x1 SWAP1 SUB SWAP1 PUSH1 0x0 MSTORE PUSH1 0x20 PUSH1 0x0 KECCAK256 SWAP1 PUSH1 0x2 MUL ADD PUSH1 0x0 SWAP1 SWAP2 SWAP1 SWAP2 SWAP1 SWAP2 POP PUSH1 0x0 DUP3 ADD MLOAD DUP2 PUSH1 0x0 ADD PUSH1 0x0 PUSH2 0x100 EXP DUP2 SLOAD DUP2 PUSH20 0xFFFFFFFFFFFFFFFFFFFFFFFFFFFFFFFFFFFFFFFF MUL NOT AND SWAP1 DUP4 PUSH20 0xFFFFFFFFFFFFFFFFFFFFFFFFFFFFFFFFFFFFFFFF AND MUL OR SWAP1 SSTORE POP PUSH1 0x20 DUP3 ADD MLOAD DUP2 PUSH1 0x1 ADD SSTORE POP POP DUP1 DUP1 PUSH3 0x6A4 SWAP1 PUSH3 0xD87 JUMP JUMPDEST SWAP2 POP POP PUSH3 0x5B6 JUMP JUMPDEST POP DUP1 PUSH1 0x1 PUSH1 0x0 PUSH2 0x100 EXP DUP2 SLOAD DUP2 PUSH20 0xFFFFFFFFFFFFFFFFFFFFFFFFFFFFFFFFFFFFFFFF MUL NOT AND SWAP1 DUP4 PUSH20 0xFFFFFFFFFFFFFFFFFFFFFFFFFFFFFFFFFFFFFFFF AND MUL OR SWAP1 SSTORE POP PUSH3 0x711 PUSH1 0x20 PUSH1 0x40 MLOAD DUP1 PUSH1 0x20 ADD PUSH1 0x40 MSTORE DUP1 PUSH1 0x0 DUP2 MSTORE POP PUSH3 0x7FF PUSH1 0x20 SHL PUSH1 0x20 SHR JUMP JUMPDEST PUSH3 0x71C SWAP1 PUSH3 0xE1D JUMP JUMPDEST PUSH1 0x0 SHR PUSH1 0x80 DUP2 DUP2 MSTORE POP POP POP POP POP POP POP POP PUSH3 0x102E JUMP JUMPDEST PUSH1 0x0 CALLER SWAP1 POP SWAP1 JUMP JUMPDEST PUSH1 0x0 DUP1 PUSH1 0x1 SWAP1 SLOAD SWAP1 PUSH2 0x100 EXP SWAP1 DIV PUSH20 0xFFFFFFFFFFFFFFFFFFFFFFFFFFFFFFFFFFFFFFFF AND SWAP1 POP DUP2 PUSH1 0x0 PUSH1 0x1 PUSH2 0x100 EXP DUP2 SLOAD DUP2 PUSH20 0xFFFFFFFFFFFFFFFFFFFFFFFFFFFFFFFFFFFFFFFF MUL NOT AND SWAP1 DUP4 PUSH20 0xFFFFFFFFFFFFFFFFFFFFFFFFFFFFFFFFFFFFFFFF AND MUL OR SWAP1 SSTORE POP DUP2 PUSH20 0xFFFFFFFFFFFFFFFFFFFFFFFFFFFFFFFFFFFFFFFF AND DUP2 PUSH20 0xFFFFFFFFFFFFFFFFFFFFFFFFFFFFFFFFFFFFFFFF AND PUSH32 0x8BE0079C531659141344CD1FD0A4F28419497F9722A3DAAFE3B4186F6B6457E0 PUSH1 0x40 MLOAD PUSH1 0x40 MLOAD DUP1 SWAP2 SUB SWAP1 LOG3 POP POP JUMP JUMPDEST PUSH1 0x60 PUSH1 0x0 DUP1 PUSH20 0x100000000000000000000000000000000000001 PUSH20 0xFFFFFFFFFFFFFFFFFFFFFFFFFFFFFFFFFFFFFFFF AND DUP6 DUP6 PUSH1 0x40 MLOAD PUSH1 0x20 ADD PUSH3 0x844 SWAP3 SWAP2 SWAP1 PUSH3 0xF1C JUMP JUMPDEST PUSH1 0x40 MLOAD PUSH1 0x20 DUP2 DUP4 SUB SUB DUP2 MSTORE SWAP1 PUSH1 0x40 MSTORE PUSH1 0x40 MLOAD PUSH3 0x862 SWAP2 SWAP1 PUSH3 0xF92 JUMP JUMPDEST PUSH1 0x0 PUSH1 0x40 MLOAD DUP1 DUP4 SUB DUP2 DUP6 GAS STATICCALL SWAP2 POP POP RETURNDATASIZE DUP1 PUSH1 0x0 DUP2 EQ PUSH3 0x89F JUMPI PUSH1 0x40 MLOAD SWAP2 POP PUSH1 0x1F NOT PUSH1 0x3F RETURNDATASIZE ADD AND DUP3 ADD PUSH1 0x40 MSTORE RETURNDATASIZE DUP3 MSTORE RETURNDATASIZE PUSH1 0x0 PUSH1 0x20 DUP5 ADD RETURNDATACOPY PUSH3 0x8A4 JUMP JUMPDEST PUSH1 0x60 SWAP2 POP JUMPDEST POP SWAP2 POP SWAP2 POP DUP2 PUSH3 0x8EC JUMPI PUSH1 0x40 MLOAD PUSH32 0x8C379A000000000000000000000000000000000000000000000000000000000 DUP2 MSTORE PUSH1 0x4 ADD PUSH3 0x8E3 SWAP1 PUSH3 0x100C JUMP JUMPDEST PUSH1 0x40 MLOAD DUP1 SWAP2 SUB SWAP1 REVERT JUMPDEST DUP1 SWAP3 POP POP POP SWAP3 SWAP2 POP POP JUMP JUMPDEST PUSH1 0x0 PUSH1 0x40 MLOAD SWAP1 POP SWAP1 JUMP JUMPDEST PUSH1 0x0 DUP1 REVERT JUMPDEST PUSH1 0x0 DUP1 REVERT JUMPDEST PUSH1 0x0 DUP1 REVERT JUMPDEST PUSH1 0x0 PUSH1 0x1F NOT PUSH1 0x1F DUP4 ADD AND SWAP1 POP SWAP2 SWAP1 POP JUMP JUMPDEST PUSH32 0x4E487B7100000000000000000000000000000000000000000000000000000000 PUSH1 0x0 MSTORE PUSH1 0x41 PUSH1 0x4 MSTORE PUSH1 0x24 PUSH1 0x0 REVERT JUMPDEST PUSH3 0x95B DUP3 PUSH3 0x910 JUMP JUMPDEST DUP2 ADD DUP2 DUP2 LT PUSH8 0xFFFFFFFFFFFFFFFF DUP3 GT OR ISZERO PUSH3 0x97D JUMPI PUSH3 0x97C PUSH3 0x921 JUMP JUMPDEST JUMPDEST DUP1 PUSH1 0x40 MSTORE POP POP POP JUMP JUMPDEST PUSH1 0x0 PUSH3 0x992 PUSH3 0x8F7 JUMP JUMPDEST SWAP1 POP PUSH3 0x9A0 DUP3 DUP3 PUSH3 0x950 JUMP JUMPDEST SWAP2 SWAP1 POP JUMP JUMPDEST PUSH1 0x0 PUSH8 0xFFFFFFFFFFFFFFFF DUP3 GT ISZERO PUSH3 0x9C3 JUMPI PUSH3 0x9C2 PUSH3 0x921 JUMP JUMPDEST JUMPDEST PUSH1 0x20 DUP3 MUL SWAP1 POP PUSH1 0x20 DUP2 ADD SWAP1 POP SWAP2 SWAP1 POP JUMP JUMPDEST PUSH1 0x0 DUP1 REVERT JUMPDEST PUSH1 0x0 DUP1 REVERT JUMPDEST PUSH1 0x0 PUSH20 0xFFFFFFFFFFFFFFFFFFFFFFFFFFFFFFFFFFFFFFFF DUP3 AND SWAP1 POP SWAP2 SWAP1 POP JUMP JUMPDEST PUSH1 0x0 PUSH3 0xA0B DUP3 PUSH3 0x9DE JUMP JUMPDEST SWAP1 POP SWAP2 SWAP1 POP JUMP JUMPDEST PUSH1 0x0 PUSH3 0xA1F DUP3 PUSH3 0x9FE JUMP JUMPDEST SWAP1 POP SWAP2 SWAP1 POP JUMP JUMPDEST PUSH3 0xA31 DUP2 PUSH3 0xA12 JUMP JUMPDEST DUP2 EQ PUSH3 0xA3D JUMPI PUSH1 0x0 DUP1 REVERT JUMPDEST POP JUMP JUMPDEST PUSH1 0x0 DUP2 MLOAD SWAP1 POP PUSH3 0xA51 DUP2 PUSH3 0xA26 JUMP JUMPDEST SWAP3 SWAP2 POP POP JUMP JUMPDEST PUSH1 0x0 DUP2 SWAP1 POP SWAP2 SWAP1 POP JUMP JUMPDEST PUSH3 0xA6C DUP2 PUSH3 0xA57 JUMP JUMPDEST DUP2 EQ PUSH3 0xA78 JUMPI PUSH1 0x0 DUP1 REVERT JUMPDEST POP JUMP JUMPDEST PUSH1 0x0 DUP2 MLOAD SWAP1 POP PUSH3 0xA8C DUP2 PUSH3 0xA61 JUMP JUMPDEST SWAP3 SWAP2 POP POP JUMP JUMPDEST PUSH1 0x0 PUSH1 0x40 DUP3 DUP5 SUB SLT ISZERO PUSH3 0xAAB JUMPI PUSH3 0xAAA PUSH3 0x9D9 JUMP JUMPDEST JUMPDEST PUSH3 0xAB7 PUSH1 0x40 PUSH3 0x986 JUMP JUMPDEST SWAP1 POP PUSH1 0x0 PUSH3 0xAC9 DUP5 DUP3 DUP6 ADD PUSH3 0xA40 JUMP JUMPDEST PUSH1 0x0 DUP4 ADD MSTORE POP PUSH1 0x20 PUSH3 0xADF DUP5 DUP3 DUP6 ADD PUSH3 0xA7B JUMP JUMPDEST PUSH1 0x20 DUP4 ADD MSTORE POP SWAP3 SWAP2 POP POP JUMP JUMPDEST PUSH1 0x0 PUSH3 0xB02 PUSH3 0xAFC DUP5 PUSH3 0x9A5 JUMP JUMPDEST PUSH3 0x986 JUMP JUMPDEST SWAP1 POP DUP1 DUP4 DUP3 MSTORE PUSH1 0x20 DUP3 ADD SWAP1 POP PUSH1 0x40 DUP5 MUL DUP4 ADD DUP6 DUP2 GT ISZERO PUSH3 0xB28 JUMPI PUSH3 0xB27 PUSH3 0x9D4 JUMP JUMPDEST JUMPDEST DUP4 JUMPDEST DUP2 DUP2 LT ISZERO PUSH3 0xB55 JUMPI DUP1 PUSH3 0xB40 DUP9 DUP3 PUSH3 0xA92 JUMP JUMPDEST DUP5 MSTORE PUSH1 0x20 DUP5 ADD SWAP4 POP POP PUSH1 0x40 DUP2 ADD SWAP1 POP PUSH3 0xB2A JUMP JUMPDEST POP POP POP SWAP4 SWAP3 POP POP POP JUMP JUMPDEST PUSH1 0x0 DUP3 PUSH1 0x1F DUP4 ADD SLT PUSH3 0xB77 JUMPI PUSH3 0xB76 PUSH3 0x90B JUMP JUMPDEST JUMPDEST DUP2 MLOAD PUSH3 0xB89 DUP5 DUP3 PUSH1 0x20 DUP7 ADD PUSH3 0xAEB JUMP JUMPDEST SWAP2 POP POP SWAP3 SWAP2 POP POP JUMP JUMPDEST PUSH3 0xB9D DUP2 PUSH3 0x9FE JUMP JUMPDEST DUP2 EQ PUSH3 0xBA9 JUMPI PUSH1 0x0 DUP1 REVERT JUMPDEST POP JUMP JUMPDEST PUSH1 0x0 DUP2 MLOAD SWAP1 POP PUSH3 0xBBD DUP2 PUSH3 0xB92 JUMP JUMPDEST SWAP3 SWAP2 POP POP JUMP JUMPDEST PUSH1 0x0 DUP1 PUSH1 0x0 DUP1 PUSH1 0x0 DUP1 PUSH1 0xC0 DUP8 DUP10 SUB SLT ISZERO PUSH3 0xBE3 JUMPI PUSH3 0xBE2 PUSH3 0x901 JUMP JUMPDEST JUMPDEST PUSH1 0x0 DUP8 ADD MLOAD PUSH8 0xFFFFFFFFFFFFFFFF DUP2 GT ISZERO PUSH3 0xC04 JUMPI PUSH3 0xC03 PUSH3 0x906 JUMP JUMPDEST JUMPDEST PUSH3 0xC12 DUP10 DUP3 DUP11 ADD PUSH3 0xB5F JUMP JUMPDEST SWAP7 POP POP PUSH1 0x20 DUP8 ADD MLOAD PUSH8 0xFFFFFFFFFFFFFFFF DUP2 GT ISZERO PUSH3 0xC36 JUMPI PUSH3 0xC35 PUSH3 0x906 JUMP JUMPDEST JUMPDEST PUSH3 0xC44 DUP10 DUP3 DUP11 ADD PUSH3 0xB5F JUMP JUMPDEST SWAP6 POP POP PUSH1 0x40 DUP8 ADD MLOAD PUSH8 0xFFFFFFFFFFFFFFFF DUP2 GT ISZERO PUSH3 0xC68 JUMPI PUSH3 0xC67 PUSH3 0x906 JUMP JUMPDEST JUMPDEST PUSH3 0xC76 DUP10 DUP3 DUP11 ADD PUSH3 0xB5F JUMP JUMPDEST SWAP5 POP POP PUSH1 0x60 DUP8 ADD MLOAD PUSH8 0xFFFFFFFFFFFFFFFF DUP2 GT ISZERO PUSH3 0xC9A JUMPI PUSH3 0xC99 PUSH3 0x906 JUMP JUMPDEST JUMPDEST PUSH3 0xCA8 DUP10 DUP3 DUP11 ADD PUSH3 0xB5F JUMP JUMPDEST SWAP4 POP POP PUSH1 0x80 DUP8 ADD MLOAD PUSH8 0xFFFFFFFFFFFFFFFF DUP2 GT ISZERO PUSH3 0xCCC JUMPI PUSH3 0xCCB PUSH3 0x906 JUMP JUMPDEST JUMPDEST PUSH3 0xCDA DUP10 DUP3 DUP11 ADD PUSH3 0xB5F JUMP JUMPDEST SWAP3 POP POP PUSH1 0xA0 PUSH3 0xCED DUP10 DUP3 DUP11 ADD PUSH3 0xBAC JUMP JUMPDEST SWAP2 POP POP SWAP3 SWAP6 POP SWAP3 SWAP6 POP SWAP3 SWAP6 JUMP JUMPDEST PUSH32 0x4E487B7100000000000000000000000000000000000000000000000000000000 PUSH1 0x0 MSTORE PUSH1 0x21 PUSH1 0x4 MSTORE PUSH1 0x24 PUSH1 0x0 REVERT JUMPDEST PUSH32 0x4E487B7100000000000000000000000000000000000000000000000000000000 PUSH1 0x0 MSTORE PUSH1 0x32 PUSH1 0x4 MSTORE PUSH1 0x24 PUSH1 0x0 REVERT JUMPDEST PUSH32 0x4E487B7100000000000000000000000000000000000000000000000000000000 PUSH1 0x0 MSTORE PUSH1 0x11 PUSH1 0x4 MSTORE PUSH1 0x24 PUSH1 0x0 REVERT JUMPDEST PUSH1 0x0 PUSH3 0xD94 DUP3 PUSH3 0xA57 JUMP JUMPDEST SWAP2 POP PUSH32 0xFFFFFFFFFFFFFFFFFFFFFFFFFFFFFFFFFFFFFFFFFFFFFFFFFFFFFFFFFFFFFFFF DUP3 SUB PUSH3 0xDC9 JUMPI PUSH3 0xDC8 PUSH3 0xD58 JUMP JUMPDEST JUMPDEST PUSH1 0x1 DUP3 ADD SWAP1 POP SWAP2 SWAP1 POP JUMP JUMPDEST PUSH1 0x0 DUP2 MLOAD SWAP1 POP SWAP2 SWAP1 POP JUMP JUMPDEST PUSH1 0x0 DUP2 SWAP1 POP PUSH1 0x20 DUP3 ADD SWAP1 POP SWAP2 SWAP1 POP JUMP JUMPDEST PUSH1 0x0 DUP2 SWAP1 POP SWAP2 SWAP1 POP JUMP JUMPDEST PUSH1 0x0 PUSH3 0xE07 DUP3 MLOAD PUSH3 0xDEF JUMP JUMPDEST DUP1 SWAP2 POP POP SWAP2 SWAP1 POP JUMP JUMPDEST PUSH1 0x0 DUP3 DUP3 SHL SWAP1 POP SWAP3 SWAP2 POP POP JUMP JUMPDEST PUSH1 0x0 PUSH3 0xE2A DUP3 PUSH3 0xDD4 JUMP JUMPDEST DUP3 PUSH3 0xE36 DUP5 PUSH3 0xDDF JUMP JUMPDEST SWAP1 POP PUSH3 0xE43 DUP2 PUSH3 0xDF9 JUMP JUMPDEST SWAP3 POP PUSH1 0x20 DUP3 LT ISZERO PUSH3 0xE86 JUMPI PUSH3 0xE81 PUSH32 0xFFFFFFFFFFFFFFFFFFFFFFFFFFFFFFFFFFFFFFFFFFFFFFFFFFFFFFFFFFFFFFFF DUP4 PUSH1 0x20 SUB PUSH1 0x8 MUL PUSH3 0xE10 JUMP JUMPDEST DUP4 AND SWAP3 POP JUMPDEST POP POP SWAP2 SWAP1 POP JUMP JUMPDEST PUSH3 0xE98 DUP2 PUSH3 0xA57 JUMP JUMPDEST DUP3 MSTORE POP POP JUMP JUMPDEST PUSH1 0x0 DUP3 DUP3 MSTORE PUSH1 0x20 DUP3 ADD SWAP1 POP SWAP3 SWAP2 POP POP JUMP JUMPDEST PUSH1 0x0 JUMPDEST DUP4 DUP2 LT ISZERO PUSH3 0xECF JUMPI DUP1 DUP3 ADD MLOAD DUP2 DUP5 ADD MSTORE PUSH1 0x20 DUP2 ADD SWAP1 POP PUSH3 0xEB2 JUMP JUMPDEST PUSH1 0x0 DUP5 DUP5 ADD MSTORE POP POP POP POP JUMP JUMPDEST PUSH1 0x0 PUSH3 0xEE8 DUP3 PUSH3 0xDD4 JUMP JUMPDEST PUSH3 0xEF4 DUP2 DUP6 PUSH3 0xE9E JUMP JUMPDEST SWAP4 POP PUSH3 0xF06 DUP2 DUP6 PUSH1 0x20 DUP7 ADD PUSH3 0xEAF JUMP JUMPDEST PUSH3 0xF11 DUP2 PUSH3 0x910 JUMP JUMPDEST DUP5 ADD SWAP2 POP POP SWAP3 SWAP2 POP POP JUMP JUMPDEST PUSH1 0x0 PUSH1 0x40 DUP3 ADD SWAP1 POP PUSH3 0xF33 PUSH1 0x0 DUP4 ADD DUP6 PUSH3 0xE8D JUMP JUMPDEST DUP2 DUP2 SUB PUSH1 0x20 DUP4 ADD MSTORE PUSH3 0xF47 DUP2 DUP5 PUSH3 0xEDB JUMP JUMPDEST SWAP1 POP SWAP4 SWAP3 POP POP POP JUMP JUMPDEST PUSH1 0x0 DUP2 SWAP1 POP SWAP3 SWAP2 POP POP JUMP JUMPDEST PUSH1 0x0 PUSH3 0xF68 DUP3 PUSH3 0xDD4 JUMP JUMPDEST PUSH3 0xF74 DUP2 DUP6 PUSH3 0xF50 JUMP JUMPDEST SWAP4 POP PUSH3 0xF86 DUP2 DUP6 PUSH1 0x20 DUP7 ADD PUSH3 0xEAF JUMP JUMPDEST DUP1 DUP5 ADD SWAP2 POP POP SWAP3 SWAP2 POP POP JUMP JUMPDEST PUSH1 0x0 PUSH3 0xFA0 DUP3 DUP5 PUSH3 0xF5B JUMP JUMPDEST SWAP2 POP DUP2 SWAP1 POP SWAP3 SWAP2 POP POP JUMP JUMPDEST PUSH1 0x0 DUP3 DUP3 MSTORE PUSH1 0x20 DUP3 ADD SWAP1 POP SWAP3 SWAP2 POP POP JUMP JUMPDEST PUSH32 0x72616E646F6D42797465733A206661696C656400000000000000000000000000 PUSH1 0x0 DUP3 ADD MSTORE POP JUMP JUMPDEST PUSH1 0x0 PUSH3 0xFF4 PUSH1 0x13 DUP4 PUSH3 0xFAB JUMP JUMPDEST SWAP2 POP PUSH3 0x1001 DUP3 PUSH3 0xFBC JUMP JUMPDEST PUSH1 0x20 DUP3 ADD SWAP1 POP SWAP2 SWAP1 POP JUMP JUMPDEST PUSH1 0x0 PUSH1 0x20 DUP3 ADD SWAP1 POP DUP2 DUP2 SUB PUSH1 0x0 DUP4 ADD MSTORE PUSH3 0x1027 DUP2 PUSH3 0xFE5 JUMP JUMPDEST SWAP1 POP SWAP2 SWAP1 POP JUMP JUMPDEST PUSH1 0x80 MLOAD PUSH2 0x1796 PUSH3 0x1047 PUSH1 0x0 CODECOPY PUSH1 0x0 POP POP PUSH2 0x1796 PUSH1 0x0 RETURN INVALID PUSH1 0x80 PUSH1 0x40 MSTORE CALLVALUE DUP1 ISZERO PUSH2 0x10 JUMPI PUSH1 0x0 DUP1 REVERT JUMPDEST POP PUSH1 0x4 CALLDATASIZE LT PUSH2 0xA9 JUMPI PUSH1 0x0 CALLDATALOAD PUSH1 0xE0 SHR DUP1 PUSH4 0x6C19E783 GT PUSH2 0x71 JUMPI DUP1 PUSH4 0x6C19E783 EQ PUSH2 0x153 JUMPI DUP1 PUSH4 0x715018A6 EQ PUSH2 0x16F JUMPI DUP1 PUSH4 0x8456CB59 EQ PUSH2 0x179 JUMPI DUP1 PUSH4 0x8DA5CB5B EQ PUSH2 0x183 JUMPI DUP1 PUSH4 0xDD194E9F EQ PUSH2 0x1A1 JUMPI DUP1 PUSH4 0xF2FDE38B EQ PUSH2 0x1D1 JUMPI PUSH2 0xA9 JUMP JUMPDEST DUP1 PUSH4 0xDF9B7BE EQ PUSH2 0xAE JUMPI DUP1 PUSH4 0x2134333C EQ PUSH2 0xDF JUMPI DUP1 PUSH4 0x3F4BA83A EQ PUSH2 0x10F JUMPI DUP1 PUSH4 0x4FB322D2 EQ PUSH2 0x119 JUMPI DUP1 PUSH4 0x5C975ABB EQ PUSH2 0x135 JUMPI JUMPDEST PUSH1 0x0 DUP1 REVERT JUMPDEST PUSH2 0xC8 PUSH1 0x4 DUP1 CALLDATASIZE SUB DUP2 ADD SWAP1 PUSH2 0xC3 SWAP2 SWAP1 PUSH2 0xDC4 JUMP JUMPDEST PUSH2 0x1ED JUMP JUMPDEST PUSH1 0x40 MLOAD PUSH2 0xD6 SWAP3 SWAP2 SWAP1 PUSH2 0xE92 JUMP JUMPDEST PUSH1 0x40 MLOAD DUP1 SWAP2 SUB SWAP1 RETURN JUMPDEST PUSH2 0xF9 PUSH1 0x4 DUP1 CALLDATASIZE SUB DUP2 ADD SWAP1 PUSH2 0xF4 SWAP2 SWAP1 PUSH2 0xEF9 JUMP JUMPDEST PUSH2 0x24E JUMP JUMPDEST PUSH1 0x40 MLOAD PUSH2 0x106 SWAP2 SWAP1 PUSH2 0xF26 JUMP JUMPDEST PUSH1 0x40 MLOAD DUP1 SWAP2 SUB SWAP1 RETURN JUMPDEST PUSH2 0x117 PUSH2 0x266 JUMP JUMPDEST STOP JUMPDEST PUSH2 0x133 PUSH1 0x4 DUP1 CALLDATASIZE SUB DUP2 ADD SWAP1 PUSH2 0x12E SWAP2 SWAP1 PUSH2 0xFB0 JUMP JUMPDEST PUSH2 0x278 JUMP JUMPDEST STOP JUMPDEST PUSH2 0x13D PUSH2 0x76C JUMP JUMPDEST PUSH1 0x40 MLOAD PUSH2 0x14A SWAP2 SWAP1 PUSH2 0x1032 JUMP JUMPDEST PUSH1 0x40 MLOAD DUP1 SWAP2 SUB SWAP1 RETURN JUMPDEST PUSH2 0x16D PUSH1 0x4 DUP1 CALLDATASIZE SUB DUP2 ADD SWAP1 PUSH2 0x168 SWAP2 SWAP1 PUSH2 0xEF9 JUMP JUMPDEST PUSH2 0x782 JUMP JUMPDEST STOP JUMPDEST PUSH2 0x177 PUSH2 0x83D JUMP JUMPDEST STOP JUMPDEST PUSH2 0x181 PUSH2 0x851 JUMP JUMPDEST STOP JUMPDEST PUSH2 0x18B PUSH2 0x863 JUMP JUMPDEST PUSH1 0x40 MLOAD PUSH2 0x198 SWAP2 SWAP1 PUSH2 0x105C JUMP JUMPDEST PUSH1 0x40 MLOAD DUP1 SWAP2 SUB SWAP1 RETURN JUMPDEST PUSH2 0x1BB PUSH1 0x4 DUP1 CALLDATASIZE SUB DUP2 ADD SWAP1 PUSH2 0x1B6 SWAP2 SWAP1 PUSH2 0x1077 JUMP JUMPDEST PUSH2 0x88C JUMP JUMPDEST PUSH1 0x40 MLOAD PUSH2 0x1C8 SWAP2 SWAP1 PUSH2 0xF26 JUMP JUMPDEST PUSH1 0x40 MLOAD DUP1 SWAP2 SUB SWAP1 RETURN JUMPDEST PUSH2 0x1EB PUSH1 0x4 DUP1 CALLDATASIZE SUB DUP2 ADD SWAP1 PUSH2 0x1E6 SWAP2 SWAP1 PUSH2 0xEF9 JUMP JUMPDEST PUSH2 0x8A4 JUMP JUMPDEST STOP JUMPDEST PUSH1 0x3 PUSH1 0x20 MSTORE DUP2 PUSH1 0x0 MSTORE PUSH1 0x40 PUSH1 0x0 KECCAK256 DUP2 DUP2 SLOAD DUP2 LT PUSH2 0x209 JUMPI PUSH1 0x0 DUP1 REVERT JUMPDEST SWAP1 PUSH1 0x0 MSTORE PUSH1 0x20 PUSH1 0x0 KECCAK256 SWAP1 PUSH1 0x2 MUL ADD PUSH1 0x0 SWAP2 POP SWAP2 POP POP DUP1 PUSH1 0x0 ADD PUSH1 0x0 SWAP1 SLOAD SWAP1 PUSH2 0x100 EXP SWAP1 DIV PUSH20 0xFFFFFFFFFFFFFFFFFFFFFFFFFFFFFFFFFFFFFFFF AND SWAP1 DUP1 PUSH1 0x1 ADD SLOAD SWAP1 POP DUP3 JUMP JUMPDEST PUSH1 0x4 PUSH1 0x20 MSTORE DUP1 PUSH1 0x0 MSTORE PUSH1 0x40 PUSH1 0x0 KECCAK256 PUSH1 0x0 SWAP2 POP SWAP1 POP SLOAD DUP2 JUMP JUMPDEST PUSH2 0x26E PUSH2 0x927 JUMP JUMPDEST PUSH2 0x276 PUSH2 0x9A5 JUMP JUMPDEST JUMP JUMPDEST PUSH2 0x280 PUSH2 0xA07 JUMP JUMPDEST PUSH2 0x28C DUP5 DUP5 DUP5 DUP5 PUSH2 0xA51 JUMP JUMPDEST PUSH2 0x2CB JUMPI PUSH1 0x40 MLOAD PUSH32 0x8C379A000000000000000000000000000000000000000000000000000000000 DUP2 MSTORE PUSH1 0x4 ADD PUSH2 0x2C2 SWAP1 PUSH2 0x1101 JUMP JUMPDEST PUSH1 0x40 MLOAD DUP1 SWAP2 SUB SWAP1 REVERT JUMPDEST PUSH1 0x0 PUSH2 0x2DA DUP3 CALLER PUSH2 0x2710 PUSH2 0xB92 JUMP JUMPDEST SWAP1 POP PUSH1 0x0 PUSH1 0x2 PUSH1 0x0 PUSH1 0x1 PUSH1 0x4 DUP2 GT ISZERO PUSH2 0x2F6 JUMPI PUSH2 0x2F5 PUSH2 0x1121 JUMP JUMPDEST JUMPDEST PUSH1 0x4 DUP2 GT ISZERO PUSH2 0x308 JUMPI PUSH2 0x307 PUSH2 0x1121 JUMP JUMPDEST JUMPDEST DUP2 MSTORE PUSH1 0x20 ADD SWAP1 DUP2 MSTORE PUSH1 0x20 ADD PUSH1 0x0 KECCAK256 SLOAD DUP3 LT PUSH2 0x322 JUMPI PUSH1 0x0 SWAP1 POP JUMPDEST PUSH1 0x2 PUSH1 0x0 PUSH1 0x1 PUSH1 0x4 DUP2 GT ISZERO PUSH2 0x33A JUMPI PUSH2 0x339 PUSH2 0x1121 JUMP JUMPDEST JUMPDEST PUSH1 0x4 DUP2 GT ISZERO PUSH2 0x34C JUMPI PUSH2 0x34B PUSH2 0x1121 JUMP JUMPDEST JUMPDEST DUP2 MSTORE PUSH1 0x20 ADD SWAP1 DUP2 MSTORE PUSH1 0x20 ADD PUSH1 0x0 KECCAK256 SLOAD DUP3 LT DUP1 ISZERO PUSH2 0x3A1 JUMPI POP PUSH1 0x2 PUSH1 0x0 PUSH1 0x2 PUSH1 0x4 DUP2 GT ISZERO PUSH2 0x37C JUMPI PUSH2 0x37B PUSH2 0x1121 JUMP JUMPDEST JUMPDEST PUSH1 0x4 DUP2 GT ISZERO PUSH2 0x38E JUMPI PUSH2 0x38D PUSH2 0x1121 JUMP JUMPDEST JUMPDEST DUP2 MSTORE PUSH1 0x20 ADD SWAP1 DUP2 MSTORE PUSH1 0x20 ADD PUSH1 0x0 KECCAK256 SLOAD DUP3 LT ISZERO JUMPDEST ISZERO PUSH2 0x3AB JUMPI PUSH1 0x1 SWAP1 POP JUMPDEST PUSH1 0x2 PUSH1 0x0 PUSH1 0x2 PUSH1 0x4 DUP2 GT ISZERO PUSH2 0x3C3 JUMPI PUSH2 0x3C2 PUSH2 0x1121 JUMP JUMPDEST JUMPDEST PUSH1 0x4 DUP2 GT ISZERO PUSH2 0x3D5 JUMPI PUSH2 0x3D4 PUSH2 0x1121 JUMP JUMPDEST JUMPDEST DUP2 MSTORE PUSH1 0x20 ADD SWAP1 DUP2 MSTORE PUSH1 0x20 ADD PUSH1 0x0 KECCAK256 SLOAD DUP3 LT DUP1 ISZERO PUSH2 0x42A JUMPI POP PUSH1 0x2 PUSH1 0x0 PUSH1 0x3 PUSH1 0x4 DUP2 GT ISZERO PUSH2 0x405 JUMPI PUSH2 0x404 PUSH2 0x1121 JUMP JUMPDEST JUMPDEST PUSH1 0x4 DUP2 GT ISZERO PUSH2 0x417 JUMPI PUSH2 0x416 PUSH2 0x1121 JUMP JUMPDEST JUMPDEST DUP2 MSTORE PUSH1 0x20 ADD SWAP1 DUP2 MSTORE PUSH1 0x20 ADD PUSH1 0x0 KECCAK256 SLOAD DUP3 LT ISZERO JUMPDEST ISZERO PUSH2 0x434 JUMPI PUSH1 0x2 SWAP1 POP JUMPDEST PUSH1 0x2 PUSH1 0x0 PUSH1 0x3 PUSH1 0x4 DUP2 GT ISZERO PUSH2 0x44C JUMPI PUSH2 0x44B PUSH2 0x1121 JUMP JUMPDEST JUMPDEST PUSH1 0x4 DUP2 GT ISZERO PUSH2 0x45E JUMPI PUSH2 0x45D PUSH2 0x1121 JUMP JUMPDEST JUMPDEST DUP2 MSTORE PUSH1 0x20 ADD SWAP1 DUP2 MSTORE PUSH1 0x20 ADD PUSH1 0x0 KECCAK256 SLOAD DUP3 LT DUP1 ISZERO PUSH2 0x4B2 JUMPI POP PUSH1 0x2 PUSH1 0x0 PUSH1 0x4 DUP1 DUP2 GT ISZERO PUSH2 0x48D JUMPI PUSH2 0x48C PUSH2 0x1121 JUMP JUMPDEST JUMPDEST PUSH1 0x4 DUP2 GT ISZERO PUSH2 0x49F JUMPI PUSH2 0x49E PUSH2 0x1121 JUMP JUMPDEST JUMPDEST DUP2 MSTORE PUSH1 0x20 ADD SWAP1 DUP2 MSTORE PUSH1 0x20 ADD PUSH1 0x0 KECCAK256 SLOAD DUP3 LT ISZERO JUMPDEST ISZERO PUSH2 0x4BC JUMPI PUSH1 0x3 SWAP1 POP JUMPDEST PUSH1 0x2 PUSH1 0x0 PUSH1 0x4 DUP1 DUP2 GT ISZERO PUSH2 0x4D3 JUMPI PUSH2 0x4D2 PUSH2 0x1121 JUMP JUMPDEST JUMPDEST PUSH1 0x4 DUP2 GT ISZERO PUSH2 0x4E5 JUMPI PUSH2 0x4E4 PUSH2 0x1121 JUMP JUMPDEST JUMPDEST DUP2 MSTORE PUSH1 0x20 ADD SWAP1 DUP2 MSTORE PUSH1 0x20 ADD PUSH1 0x0 KECCAK256 SLOAD DUP3 LT ISZERO PUSH2 0x500 JUMPI PUSH1 0x4 SWAP1 POP JUMPDEST PUSH1 0x0 PUSH1 0x3 PUSH1 0x0 DUP4 PUSH1 0x4 DUP2 GT ISZERO PUSH2 0x519 JUMPI PUSH2 0x518 PUSH2 0x1121 JUMP JUMPDEST JUMPDEST PUSH1 0x4 DUP2 GT ISZERO PUSH2 0x52B JUMPI PUSH2 0x52A PUSH2 0x1121 JUMP JUMPDEST JUMPDEST DUP2 MSTORE PUSH1 0x20 ADD SWAP1 DUP2 MSTORE PUSH1 0x20 ADD PUSH1 0x0 KECCAK256 DUP1 SLOAD SWAP1 POP SWAP1 POP PUSH1 0x0 PUSH2 0x558 DUP6 ADDRESS PUSH1 0x1 DUP6 PUSH2 0x553 SWAP2 SWAP1 PUSH2 0x117F JUMP JUMPDEST PUSH2 0xB92 JUMP JUMPDEST SWAP1 POP PUSH1 0x0 PUSH1 0x3 PUSH1 0x0 DUP6 PUSH1 0x4 DUP2 GT ISZERO PUSH2 0x573 JUMPI PUSH2 0x572 PUSH2 0x1121 JUMP JUMPDEST JUMPDEST PUSH1 0x4 DUP2 GT ISZERO PUSH2 0x585 JUMPI PUSH2 0x584 PUSH2 0x1121 JUMP JUMPDEST JUMPDEST DUP2 MSTORE PUSH1 0x20 ADD SWAP1 DUP2 MSTORE PUSH1 0x20 ADD PUSH1 0x0 KECCAK256 DUP3 DUP2 SLOAD DUP2 LT PUSH2 0x5A5 JUMPI PUSH2 0x5A4 PUSH2 0x11B3 JUMP JUMPDEST JUMPDEST SWAP1 PUSH1 0x0 MSTORE PUSH1 0x20 PUSH1 0x0 KECCAK256 SWAP1 PUSH1 0x2 MUL ADD PUSH1 0x40 MLOAD DUP1 PUSH1 0x40 ADD PUSH1 0x40 MSTORE SWAP1 DUP2 PUSH1 0x0 DUP3 ADD PUSH1 0x0 SWAP1 SLOAD SWAP1 PUSH2 0x100 EXP SWAP1 DIV PUSH20 0xFFFFFFFFFFFFFFFFFFFFFFFFFFFFFFFFFFFFFFFF AND PUSH20 0xFFFFFFFFFFFFFFFFFFFFFFFFFFFFFFFFFFFFFFFF AND PUSH20 0xFFFFFFFFFFFFFFFFFFFFFFFFFFFFFFFFFFFFFFFF AND DUP2 MSTORE PUSH1 0x20 ADD PUSH1 0x1 DUP3 ADD SLOAD DUP2 MSTORE POP POP SWAP1 POP DUP1 PUSH1 0x0 ADD MLOAD PUSH20 0xFFFFFFFFFFFFFFFFFFFFFFFFFFFFFFFFFFFFFFFF AND PUSH4 0x40C10F19 CALLER DUP4 PUSH1 0x20 ADD MLOAD PUSH1 0x40 MLOAD DUP4 PUSH4 0xFFFFFFFF AND PUSH1 0xE0 SHL DUP2 MSTORE PUSH1 0x4 ADD PUSH2 0x663 SWAP3 SWAP2 SWAP1 PUSH2 0x11E2 JUMP JUMPDEST PUSH1 0x20 PUSH1 0x40 MLOAD DUP1 DUP4 SUB DUP2 PUSH1 0x0 DUP8 GAS CALL ISZERO DUP1 ISZERO PUSH2 0x682 JUMPI RETURNDATASIZE PUSH1 0x0 DUP1 RETURNDATACOPY RETURNDATASIZE PUSH1 0x0 REVERT JUMPDEST POP POP POP POP PUSH1 0x40 MLOAD RETURNDATASIZE PUSH1 0x1F NOT PUSH1 0x1F DUP3 ADD AND DUP3 ADD DUP1 PUSH1 0x40 MSTORE POP DUP2 ADD SWAP1 PUSH2 0x6A6 SWAP2 SWAP1 PUSH2 0x1220 JUMP JUMPDEST POP PUSH1 0x1 PUSH1 0x4 PUSH1 0x0 CALLER PUSH20 0xFFFFFFFFFFFFFFFFFFFFFFFFFFFFFFFFFFFFFFFF AND PUSH20 0xFFFFFFFFFFFFFFFFFFFFFFFFFFFFFFFFFFFFFFFF AND DUP2 MSTORE PUSH1 0x20 ADD SWAP1 DUP2 MSTORE PUSH1 0x20 ADD PUSH1 0x0 KECCAK256 PUSH1 0x0 DUP3 DUP3 SLOAD PUSH2 0x6F7 SWAP2 SWAP1 PUSH2 0x124D JUMP JUMPDEST SWAP3 POP POP DUP2 SWAP1 SSTORE POP DUP1 PUSH1 0x20 ADD MLOAD DUP2 PUSH1 0x0 ADD MLOAD PUSH20 0xFFFFFFFFFFFFFFFFFFFFFFFFFFFFFFFFFFFFFFFF AND CALLER PUSH20 0xFFFFFFFFFFFFFFFFFFFFFFFFFFFFFFFFFFFFFFFF AND PUSH32 0xD9BF520C4B02275D7964644F800C155049C19B5D627EFF5976DC8E2B5A1CF587 PUSH1 0x40 MLOAD PUSH1 0x40 MLOAD DUP1 SWAP2 SUB SWAP1 LOG4 POP POP POP POP POP POP POP POP POP JUMP JUMPDEST PUSH1 0x0 DUP1 PUSH1 0x0 SWAP1 SLOAD SWAP1 PUSH2 0x100 EXP SWAP1 DIV PUSH1 0xFF AND SWAP1 POP SWAP1 JUMP JUMPDEST PUSH2 0x78A PUSH2 0x927 JUMP JUMPDEST PUSH1 0x0 PUSH20 0xFFFFFFFFFFFFFFFFFFFFFFFFFFFFFFFFFFFFFFFF AND DUP2 PUSH20 0xFFFFFFFFFFFFFFFFFFFFFFFFFFFFFFFFFFFFFFFF AND SUB PUSH2 0x7F9 JUMPI PUSH1 0x40 MLOAD PUSH32 0x8C379A000000000000000000000000000000000000000000000000000000000 DUP2 MSTORE PUSH1 0x4 ADD PUSH2 0x7F0 SWAP1 PUSH2 0x12F3 JUMP JUMPDEST PUSH1 0x40 MLOAD DUP1 SWAP2 SUB SWAP1 REVERT JUMPDEST DUP1 PUSH1 0x1 PUSH1 0x0 PUSH2 0x100 EXP DUP2 SLOAD DUP2 PUSH20 0xFFFFFFFFFFFFFFFFFFFFFFFFFFFFFFFFFFFFFFFF MUL NOT AND SWAP1 DUP4 PUSH20 0xFFFFFFFFFFFFFFFFFFFFFFFFFFFFFFFFFFFFFFFF AND MUL OR SWAP1 SSTORE POP POP JUMP JUMPDEST PUSH2 0x845 PUSH2 0x927 JUMP JUMPDEST PUSH2 0x84F PUSH1 0x0 PUSH2 0xBEC JUMP JUMPDEST JUMP JUMPDEST PUSH2 0x859 PUSH2 0x927 JUMP JUMPDEST PUSH2 0x861 PUSH2 0xCB1 JUMP JUMPDEST JUMP JUMPDEST PUSH1 0x0 DUP1 PUSH1 0x1 SWAP1 SLOAD SWAP1 PUSH2 0x100 EXP SWAP1 DIV PUSH20 0xFFFFFFFFFFFFFFFFFFFFFFFFFFFFFFFFFFFFFFFF AND SWAP1 POP SWAP1 JUMP JUMPDEST PUSH1 0x2 PUSH1 0x20 MSTORE DUP1 PUSH1 0x0 MSTORE PUSH1 0x40 PUSH1 0x0 KECCAK256 PUSH1 0x0 SWAP2 POP SWAP1 POP SLOAD DUP2 JUMP JUMPDEST PUSH2 0x8AC PUSH2 0x927 JUMP JUMPDEST PUSH1 0x0 PUSH20 0xFFFFFFFFFFFFFFFFFFFFFFFFFFFFFFFFFFFFFFFF AND DUP2 PUSH20 0xFFFFFFFFFFFFFFFFFFFFFFFFFFFFFFFFFFFFFFFF AND SUB PUSH2 0x91B JUMPI PUSH1 0x40 MLOAD PUSH32 0x8C379A000000000000000000000000000000000000000000000000000000000 DUP2 MSTORE PUSH1 0x4 ADD PUSH2 0x912 SWAP1 PUSH2 0x1385 JUMP JUMPDEST PUSH1 0x40 MLOAD DUP1 SWAP2 SUB SWAP1 REVERT JUMPDEST PUSH2 0x924 DUP2 PUSH2 0xBEC JUMP JUMPDEST POP JUMP JUMPDEST PUSH2 0x92F PUSH2 0xD13 JUMP JUMPDEST PUSH20 0xFFFFFFFFFFFFFFFFFFFFFFFFFFFFFFFFFFFFFFFF AND PUSH2 0x94D PUSH2 0x863 JUMP JUMPDEST PUSH20 0xFFFFFFFFFFFFFFFFFFFFFFFFFFFFFFFFFFFFFFFF AND EQ PUSH2 0x9A3 JUMPI PUSH1 0x40 MLOAD PUSH32 0x8C379A000000000000000000000000000000000000000000000000000000000 DUP2 MSTORE PUSH1 0x4 ADD PUSH2 0x99A SWAP1 PUSH2 0x13F1 JUMP JUMPDEST PUSH1 0x40 MLOAD DUP1 SWAP2 SUB SWAP1 REVERT JUMPDEST JUMP JUMPDEST PUSH2 0x9AD PUSH2 0xD1B JUMP JUMPDEST PUSH1 0x0 DUP1 PUSH1 0x0 PUSH2 0x100 EXP DUP2 SLOAD DUP2 PUSH1 0xFF MUL NOT AND SWAP1 DUP4 ISZERO ISZERO MUL OR SWAP1 SSTORE POP PUSH32 0x5DB9EE0A495BF2E6FF9C91A7834C1BA4FDD244A5E8AA4E537BD38AEAE4B073AA PUSH2 0x9F0 PUSH2 0xD13 JUMP JUMPDEST PUSH1 0x40 MLOAD PUSH2 0x9FD SWAP2 SWAP1 PUSH2 0x105C JUMP JUMPDEST PUSH1 0x40 MLOAD DUP1 SWAP2 SUB SWAP1 LOG1 JUMP JUMPDEST PUSH2 0xA0F PUSH2 0x76C JUMP JUMPDEST ISZERO PUSH2 0xA4F JUMPI PUSH1 0x40 MLOAD PUSH32 0x8C379A000000000000000000000000000000000000000000000000000000000 DUP2 MSTORE PUSH1 0x4 ADD PUSH2 0xA46 SWAP1 PUSH2 0x145D JUMP JUMPDEST PUSH1 0x40 MLOAD DUP1 SWAP2 SUB SWAP1 REVERT JUMPDEST JUMP JUMPDEST PUSH1 0x0 DUP1 DUP3 CALLER ADDRESS PUSH1 0x4 PUSH1 0x0 CALLER PUSH20 0xFFFFFFFFFFFFFFFFFFFFFFFFFFFFFFFFFFFFFFFF AND PUSH20 0xFFFFFFFFFFFFFFFFFFFFFFFFFFFFFFFFFFFFFFFF AND DUP2 MSTORE PUSH1 0x20 ADD SWAP1 DUP2 MSTORE PUSH1 0x20 ADD PUSH1 0x0 KECCAK256 SLOAD PUSH1 0x40 MLOAD PUSH1 0x20 ADD PUSH2 0xAAA SWAP5 SWAP4 SWAP3 SWAP2 SWAP1 PUSH2 0x14E6 JUMP JUMPDEST PUSH1 0x40 MLOAD PUSH1 0x20 DUP2 DUP4 SUB SUB DUP2 MSTORE SWAP1 PUSH1 0x40 MSTORE DUP1 MLOAD SWAP1 PUSH1 0x20 ADD KECCAK256 SWAP1 POP PUSH1 0x1 DUP2 PUSH1 0x40 MLOAD PUSH1 0x20 ADD PUSH2 0xAD5 SWAP2 SWAP1 PUSH2 0x15AC JUMP JUMPDEST PUSH1 0x40 MLOAD PUSH1 0x20 DUP2 DUP4 SUB SUB DUP2 MSTORE SWAP1 PUSH1 0x40 MSTORE DUP1 MLOAD SWAP1 PUSH1 0x20 ADD KECCAK256 DUP7 DUP9 DUP8 PUSH1 0x40 MLOAD PUSH1 0x0 DUP2 MSTORE PUSH1 0x20 ADD PUSH1 0x40 MSTORE PUSH1 0x40 MLOAD PUSH2 0xB0B SWAP5 SWAP4 SWAP3 SWAP2 SWAP1 PUSH2 0x15F0 JUMP JUMPDEST PUSH1 0x20 PUSH1 0x40 MLOAD PUSH1 0x20 DUP2 SUB SWAP1 DUP1 DUP5 SUB SWAP1 DUP6 GAS STATICCALL ISZERO DUP1 ISZERO PUSH2 0xB2D JUMPI RETURNDATASIZE PUSH1 0x0 DUP1 RETURNDATACOPY RETURNDATASIZE PUSH1 0x0 REVERT JUMPDEST POP POP POP PUSH1 0x20 PUSH1 0x40 MLOAD SUB MLOAD PUSH20 0xFFFFFFFFFFFFFFFFFFFFFFFFFFFFFFFFFFFFFFFF AND PUSH1 0x1 PUSH1 0x0 SWAP1 SLOAD SWAP1 PUSH2 0x100 EXP SWAP1 DIV PUSH20 0xFFFFFFFFFFFFFFFFFFFFFFFFFFFFFFFFFFFFFFFF AND PUSH20 0xFFFFFFFFFFFFFFFFFFFFFFFFFFFFFFFFFFFFFFFF AND EQ SWAP2 POP POP SWAP5 SWAP4 POP POP POP POP JUMP JUMPDEST PUSH1 0x0 DUP1 DUP4 NUMBER PREVRANDAO DUP8 PUSH1 0x1 NUMBER PUSH2 0xBA6 SWAP2 SWAP1 PUSH2 0x117F JUMP JUMPDEST BLOCKHASH PUSH1 0x40 MLOAD PUSH1 0x20 ADD PUSH2 0xBBB SWAP6 SWAP5 SWAP4 SWAP3 SWAP2 SWAP1 PUSH2 0x1635 JUMP JUMPDEST PUSH1 0x40 MLOAD PUSH1 0x20 DUP2 DUP4 SUB SUB DUP2 MSTORE SWAP1 PUSH1 0x40 MSTORE DUP1 MLOAD SWAP1 PUSH1 0x20 ADD KECCAK256 PUSH1 0x0 SHR SWAP1 POP DUP3 DUP2 PUSH2 0xBE2 SWAP2 SWAP1 PUSH2 0x16C3 JUMP JUMPDEST SWAP2 POP POP SWAP4 SWAP3 POP POP POP JUMP JUMPDEST PUSH1 0x0 DUP1 PUSH1 0x1 SWAP1 SLOAD SWAP1 PUSH2 0x100 EXP SWAP1 DIV PUSH20 0xFFFFFFFFFFFFFFFFFFFFFFFFFFFFFFFFFFFFFFFF AND SWAP1 POP DUP2 PUSH1 0x0 PUSH1 0x1 PUSH2 0x100 EXP DUP2 SLOAD DUP2 PUSH20 0xFFFFFFFFFFFFFFFFFFFFFFFFFFFFFFFFFFFFFFFF MUL NOT AND SWAP1 DUP4 PUSH20 0xFFFFFFFFFFFFFFFFFFFFFFFFFFFFFFFFFFFFFFFF AND MUL OR SWAP1 SSTORE POP DUP2 PUSH20 0xFFFFFFFFFFFFFFFFFFFFFFFFFFFFFFFFFFFFFFFF AND DUP2 PUSH20 0xFFFFFFFFFFFFFFFFFFFFFFFFFFFFFFFFFFFFFFFF AND PUSH32 0x8BE0079C531659141344CD1FD0A4F28419497F9722A3DAAFE3B4186F6B6457E0 PUSH1 0x40 MLOAD PUSH1 0x40 MLOAD DUP1 SWAP2 SUB SWAP1 LOG3 POP POP JUMP JUMPDEST PUSH2 0xCB9 PUSH2 0xA07 JUMP JUMPDEST PUSH1 0x1 PUSH1 0x0 DUP1 PUSH2 0x100 EXP DUP2 SLOAD DUP2 PUSH1 0xFF MUL NOT AND SWAP1 DUP4 ISZERO ISZERO MUL OR SWAP1 SSTORE POP PUSH32 0x62E78CEA01BEE320CD4E420270B5EA74000D11B0C9F74754EBDBFC544B05A258 PUSH2 0xCFC PUSH2 0xD13 JUMP JUMPDEST PUSH1 0x40 MLOAD PUSH2 0xD09 SWAP2 SWAP1 PUSH2 0x105C JUMP JUMPDEST PUSH1 0x40 MLOAD DUP1 SWAP2 SUB SWAP1 LOG1 JUMP JUMPDEST PUSH1 0x0 CALLER SWAP1 POP SWAP1 JUMP JUMPDEST PUSH2 0xD23 PUSH2 0x76C JUMP JUMPDEST PUSH2 0xD62 JUMPI PUSH1 0x40 MLOAD PUSH32 0x8C379A000000000000000000000000000000000000000000000000000000000 DUP2 MSTORE PUSH1 0x4 ADD PUSH2 0xD59 SWAP1 PUSH2 0x1740 JUMP JUMPDEST PUSH1 0x40 MLOAD DUP1 SWAP2 SUB SWAP1 REVERT JUMPDEST JUMP JUMPDEST PUSH1 0x0 DUP1 REVERT JUMPDEST PUSH1 0x5 DUP2 LT PUSH2 0xD76 JUMPI PUSH1 0x0 DUP1 REVERT JUMPDEST POP JUMP JUMPDEST PUSH1 0x0 DUP2 CALLDATALOAD SWAP1 POP PUSH2 0xD88 DUP2 PUSH2 0xD69 JUMP JUMPDEST SWAP3 SWAP2 POP POP JUMP JUMPDEST PUSH1 0x0 DUP2 SWAP1 POP SWAP2 SWAP1 POP JUMP JUMPDEST PUSH2 0xDA1 DUP2 PUSH2 0xD8E JUMP JUMPDEST DUP2 EQ PUSH2 0xDAC JUMPI PUSH1 0x0 DUP1 REVERT JUMPDEST POP JUMP JUMPDEST PUSH1 0x0 DUP2 CALLDATALOAD SWAP1 POP PUSH2 0xDBE DUP2 PUSH2 0xD98 JUMP JUMPDEST SWAP3 SWAP2 POP POP JUMP JUMPDEST PUSH1 0x0 DUP1 PUSH1 0x40 DUP4 DUP6 SUB SLT ISZERO PUSH2 0xDDB JUMPI PUSH2 0xDDA PUSH2 0xD64 JUMP JUMPDEST JUMPDEST PUSH1 0x0 PUSH2 0xDE9 DUP6 DUP3 DUP7 ADD PUSH2 0xD79 JUMP JUMPDEST SWAP3 POP POP PUSH1 0x20 PUSH2 0xDFA DUP6 DUP3 DUP7 ADD PUSH2 0xDAF JUMP JUMPDEST SWAP2 POP POP SWAP3 POP SWAP3 SWAP1 POP JUMP JUMPDEST PUSH1 0x0 PUSH20 0xFFFFFFFFFFFFFFFFFFFFFFFFFFFFFFFFFFFFFFFF DUP3 AND SWAP1 POP SWAP2 SWAP1 POP JUMP JUMPDEST PUSH1 0x0 DUP2 SWAP1 POP SWAP2 SWAP1 POP JUMP JUMPDEST PUSH1 0x0 PUSH2 0xE49 PUSH2 0xE44 PUSH2 0xE3F DUP5 PUSH2 0xE04 JUMP JUMPDEST PUSH2 0xE24 JUMP JUMPDEST PUSH2 0xE04 JUMP JUMPDEST SWAP1 POP SWAP2 SWAP1 POP JUMP JUMPDEST PUSH1 0x0 PUSH2 0xE5B DUP3 PUSH2 0xE2E JUMP JUMPDEST SWAP1 POP SWAP2 SWAP1 POP JUMP JUMPDEST PUSH1 0x0 PUSH2 0xE6D DUP3 PUSH2 0xE50 JUMP JUMPDEST SWAP1 POP SWAP2 SWAP1 POP JUMP JUMPDEST PUSH2 0xE7D DUP2 PUSH2 0xE62 JUMP JUMPDEST DUP3 MSTORE POP POP JUMP JUMPDEST PUSH2 0xE8C DUP2 PUSH2 0xD8E JUMP JUMPDEST DUP3 MSTORE POP POP JUMP JUMPDEST PUSH1 0x0 PUSH1 0x40 DUP3 ADD SWAP1 POP PUSH2 0xEA7 PUSH1 0x0 DUP4 ADD DUP6 PUSH2 0xE74 JUMP JUMPDEST PUSH2 0xEB4 PUSH1 0x20 DUP4 ADD DUP5 PUSH2 0xE83 JUMP JUMPDEST SWAP4 SWAP3 POP POP POP JUMP JUMPDEST PUSH1 0x0 PUSH2 0xEC6 DUP3 PUSH2 0xE04 JUMP JUMPDEST SWAP1 POP SWAP2 SWAP1 POP JUMP JUMPDEST PUSH2 0xED6 DUP2 PUSH2 0xEBB JUMP JUMPDEST DUP2 EQ PUSH2 0xEE1 JUMPI PUSH1 0x0 DUP1 REVERT JUMPDEST POP JUMP JUMPDEST PUSH1 0x0 DUP2 CALLDATALOAD SWAP1 POP PUSH2 0xEF3 DUP2 PUSH2 0xECD JUMP JUMPDEST SWAP3 SWAP2 POP POP JUMP JUMPDEST PUSH1 0x0 PUSH1 0x20 DUP3 DUP5 SUB SLT ISZERO PUSH2 0xF0F JUMPI PUSH2 0xF0E PUSH2 0xD64 JUMP JUMPDEST JUMPDEST PUSH1 0x0 PUSH2 0xF1D DUP5 DUP3 DUP6 ADD PUSH2 0xEE4 JUMP JUMPDEST SWAP2 POP POP SWAP3 SWAP2 POP POP JUMP JUMPDEST PUSH1 0x0 PUSH1 0x20 DUP3 ADD SWAP1 POP PUSH2 0xF3B PUSH1 0x0 DUP4 ADD DUP5 PUSH2 0xE83 JUMP JUMPDEST SWAP3 SWAP2 POP POP JUMP JUMPDEST PUSH1 0x0 DUP2 SWAP1 POP SWAP2 SWAP1 POP JUMP JUMPDEST PUSH2 0xF54 DUP2 PUSH2 0xF41 JUMP JUMPDEST DUP2 EQ PUSH2 0xF5F JUMPI PUSH1 0x0 DUP1 REVERT JUMPDEST POP JUMP JUMPDEST PUSH1 0x0 DUP2 CALLDATALOAD SWAP1 POP PUSH2 0xF71 DUP2 PUSH2 0xF4B JUMP JUMPDEST SWAP3 SWAP2 POP POP JUMP JUMPDEST PUSH1 0x0 PUSH1 0xFF DUP3 AND SWAP1 POP SWAP2 SWAP1 POP JUMP JUMPDEST PUSH2 0xF8D DUP2 PUSH2 0xF77 JUMP JUMPDEST DUP2 EQ PUSH2 0xF98 JUMPI PUSH1 0x0 DUP1 REVERT JUMPDEST POP JUMP JUMPDEST PUSH1 0x0 DUP2 CALLDATALOAD SWAP1 POP PUSH2 0xFAA DUP2 PUSH2 0xF84 JUMP JUMPDEST SWAP3 SWAP2 POP POP JUMP JUMPDEST PUSH1 0x0 DUP1 PUSH1 0x0 DUP1 PUSH1 0x80 DUP6 DUP8 SUB SLT ISZERO PUSH2 0xFCA JUMPI PUSH2 0xFC9 PUSH2 0xD64 JUMP JUMPDEST JUMPDEST PUSH1 0x0 PUSH2 0xFD8 DUP8 DUP3 DUP9 ADD PUSH2 0xF62 JUMP JUMPDEST SWAP5 POP POP PUSH1 0x20 PUSH2 0xFE9 DUP8 DUP3 DUP9 ADD PUSH2 0xF9B JUMP JUMPDEST SWAP4 POP POP PUSH1 0x40 PUSH2 0xFFA DUP8 DUP3 DUP9 ADD PUSH2 0xF62 JUMP JUMPDEST SWAP3 POP POP PUSH1 0x60 PUSH2 0x100B DUP8 DUP3 DUP9 ADD PUSH2 0xDAF JUMP JUMPDEST SWAP2 POP POP SWAP3 SWAP6 SWAP2 SWAP5 POP SWAP3 POP JUMP JUMPDEST PUSH1 0x0 DUP2 ISZERO ISZERO SWAP1 POP SWAP2 SWAP1 POP JUMP JUMPDEST PUSH2 0x102C DUP2 PUSH2 0x1017 JUMP JUMPDEST DUP3 MSTORE POP POP JUMP JUMPDEST PUSH1 0x0 PUSH1 0x20 DUP3 ADD SWAP1 POP PUSH2 0x1047 PUSH1 0x0 DUP4 ADD DUP5 PUSH2 0x1023 JUMP JUMPDEST SWAP3 SWAP2 POP POP JUMP JUMPDEST PUSH2 0x1056 DUP2 PUSH2 0xEBB JUMP JUMPDEST DUP3 MSTORE POP POP JUMP JUMPDEST PUSH1 0x0 PUSH1 0x20 DUP3 ADD SWAP1 POP PUSH2 0x1071 PUSH1 0x0 DUP4 ADD DUP5 PUSH2 0x104D JUMP JUMPDEST SWAP3 SWAP2 POP POP JUMP JUMPDEST PUSH1 0x0 PUSH1 0x20 DUP3 DUP5 SUB SLT ISZERO PUSH2 0x108D JUMPI PUSH2 0x108C PUSH2 0xD64 JUMP JUMPDEST JUMPDEST PUSH1 0x0 PUSH2 0x109B DUP5 DUP3 DUP6 ADD PUSH2 0xD79 JUMP JUMPDEST SWAP2 POP POP SWAP3 SWAP2 POP POP JUMP JUMPDEST PUSH1 0x0 DUP3 DUP3 MSTORE PUSH1 0x20 DUP3 ADD SWAP1 POP SWAP3 SWAP2 POP POP JUMP JUMPDEST PUSH32 0x466169724669676874204C6F6F74626F783A204E6F7420766572696669656400 PUSH1 0x0 DUP3 ADD MSTORE POP JUMP JUMPDEST PUSH1 0x0 PUSH2 0x10EB PUSH1 0x1F DUP4 PUSH2 0x10A4 JUMP JUMPDEST SWAP2 POP PUSH2 0x10F6 DUP3 PUSH2 0x10B5 JUMP JUMPDEST PUSH1 0x20 DUP3 ADD SWAP1 POP SWAP2 SWAP1 POP JUMP JUMPDEST PUSH1 0x0 PUSH1 0x20 DUP3 ADD SWAP1 POP DUP2 DUP2 SUB PUSH1 0x0 DUP4 ADD MSTORE PUSH2 0x111A DUP2 PUSH2 0x10DE JUMP JUMPDEST SWAP1 POP SWAP2 SWAP1 POP JUMP JUMPDEST PUSH32 0x4E487B7100000000000000000000000000000000000000000000000000000000 PUSH1 0x0 MSTORE PUSH1 0x21 PUSH1 0x4 MSTORE PUSH1 0x24 PUSH1 0x0 REVERT JUMPDEST PUSH32 0x4E487B7100000000000000000000000000000000000000000000000000000000 PUSH1 0x0 MSTORE PUSH1 0x11 PUSH1 0x4 MSTORE PUSH1 0x24 PUSH1 0x0 REVERT JUMPDEST PUSH1 0x0 PUSH2 0x118A DUP3 PUSH2 0xD8E JUMP JUMPDEST SWAP2 POP PUSH2 0x1195 DUP4 PUSH2 0xD8E JUMP JUMPDEST SWAP3 POP DUP3 DUP3 SUB SWAP1 POP DUP2 DUP2 GT ISZERO PUSH2 0x11AD JUMPI PUSH2 0x11AC PUSH2 0x1150 JUMP JUMPDEST JUMPDEST SWAP3 SWAP2 POP POP JUMP JUMPDEST PUSH32 0x4E487B7100000000000000000000000000000000000000000000000000000000 PUSH1 0x0 MSTORE PUSH1 0x32 PUSH1 0x4 MSTORE PUSH1 0x24 PUSH1 0x0 REVERT JUMPDEST PUSH1 0x0 PUSH1 0x40 DUP3 ADD SWAP1 POP PUSH2 0x11F7 PUSH1 0x0 DUP4 ADD DUP6 PUSH2 0x104D JUMP JUMPDEST PUSH2 0x1204 PUSH1 0x20 DUP4 ADD DUP5 PUSH2 0xE83 JUMP JUMPDEST SWAP4 SWAP3 POP POP POP JUMP JUMPDEST PUSH1 0x0 DUP2 MLOAD SWAP1 POP PUSH2 0x121A DUP2 PUSH2 0xD98 JUMP JUMPDEST SWAP3 SWAP2 POP POP JUMP JUMPDEST PUSH1 0x0 PUSH1 0x20 DUP3 DUP5 SUB SLT ISZERO PUSH2 0x1236 JUMPI PUSH2 0x1235 PUSH2 0xD64 JUMP JUMPDEST JUMPDEST PUSH1 0x0 PUSH2 0x1244 DUP5 DUP3 DUP6 ADD PUSH2 0x120B JUMP JUMPDEST SWAP2 POP POP SWAP3 SWAP2 POP POP JUMP JUMPDEST PUSH1 0x0 PUSH2 0x1258 DUP3 PUSH2 0xD8E JUMP JUMPDEST SWAP2 POP PUSH2 0x1263 DUP4 PUSH2 0xD8E JUMP JUMPDEST SWAP3 POP DUP3 DUP3 ADD SWAP1 POP DUP1 DUP3 GT ISZERO PUSH2 0x127B JUMPI PUSH2 0x127A PUSH2 0x1150 JUMP JUMPDEST JUMPDEST SWAP3 SWAP2 POP POP JUMP JUMPDEST PUSH32 0x466169724669676874204C6F6F74626F783A205369676E65722063616E742062 PUSH1 0x0 DUP3 ADD MSTORE PUSH32 0x652061646472657373207A65726F000000000000000000000000000000000000 PUSH1 0x20 DUP3 ADD MSTORE POP JUMP JUMPDEST PUSH1 0x0 PUSH2 0x12DD PUSH1 0x2E DUP4 PUSH2 0x10A4 JUMP JUMPDEST SWAP2 POP PUSH2 0x12E8 DUP3 PUSH2 0x1281 JUMP JUMPDEST PUSH1 0x40 DUP3 ADD SWAP1 POP SWAP2 SWAP1 POP JUMP JUMPDEST PUSH1 0x0 PUSH1 0x20 DUP3 ADD SWAP1 POP DUP2 DUP2 SUB PUSH1 0x0 DUP4 ADD MSTORE PUSH2 0x130C DUP2 PUSH2 0x12D0 JUMP JUMPDEST SWAP1 POP SWAP2 SWAP1 POP JUMP JUMPDEST PUSH32 0x4F776E61626C653A206E6577206F776E657220697320746865207A65726F2061 PUSH1 0x0 DUP3 ADD MSTORE PUSH32 0x6464726573730000000000000000000000000000000000000000000000000000 PUSH1 0x20 DUP3 ADD MSTORE POP JUMP JUMPDEST PUSH1 0x0 PUSH2 0x136F PUSH1 0x26 DUP4 PUSH2 0x10A4 JUMP JUMPDEST SWAP2 POP PUSH2 0x137A DUP3 PUSH2 0x1313 JUMP JUMPDEST PUSH1 0x40 DUP3 ADD SWAP1 POP SWAP2 SWAP1 POP JUMP JUMPDEST PUSH1 0x0 PUSH1 0x20 DUP3 ADD SWAP1 POP DUP2 DUP2 SUB PUSH1 0x0 DUP4 ADD MSTORE PUSH2 0x139E DUP2 PUSH2 0x1362 JUMP JUMPDEST SWAP1 POP SWAP2 SWAP1 POP JUMP JUMPDEST PUSH32 0x4F776E61626C653A2063616C6C6572206973206E6F7420746865206F776E6572 PUSH1 0x0 DUP3 ADD MSTORE POP JUMP JUMPDEST PUSH1 0x0 PUSH2 0x13DB PUSH1 0x20 DUP4 PUSH2 0x10A4 JUMP JUMPDEST SWAP2 POP PUSH2 0x13E6 DUP3 PUSH2 0x13A5 JUMP JUMPDEST PUSH1 0x20 DUP3 ADD SWAP1 POP SWAP2 SWAP1 POP JUMP JUMPDEST PUSH1 0x0 PUSH1 0x20 DUP3 ADD SWAP1 POP DUP2 DUP2 SUB PUSH1 0x0 DUP4 ADD MSTORE PUSH2 0x140A DUP2 PUSH2 0x13CE JUMP JUMPDEST SWAP1 POP SWAP2 SWAP1 POP JUMP JUMPDEST PUSH32 0x5061757361626C653A2070617573656400000000000000000000000000000000 PUSH1 0x0 DUP3 ADD MSTORE POP JUMP JUMPDEST PUSH1 0x0 PUSH2 0x1447 PUSH1 0x10 DUP4 PUSH2 0x10A4 JUMP JUMPDEST SWAP2 POP PUSH2 0x1452 DUP3 PUSH2 0x1411 JUMP JUMPDEST PUSH1 0x20 DUP3 ADD SWAP1 POP SWAP2 SWAP1 POP JUMP JUMPDEST PUSH1 0x0 PUSH1 0x20 DUP3 ADD SWAP1 POP DUP2 DUP2 SUB PUSH1 0x0 DUP4 ADD MSTORE PUSH2 0x1476 DUP2 PUSH2 0x143A JUMP JUMPDEST SWAP1 POP SWAP2 SWAP1 POP JUMP JUMPDEST PUSH1 0x0 DUP2 SWAP1 POP SWAP2 SWAP1 POP JUMP JUMPDEST PUSH2 0x1498 PUSH2 0x1493 DUP3 PUSH2 0xD8E JUMP JUMPDEST PUSH2 0x147D JUMP JUMPDEST DUP3 MSTORE POP POP JUMP JUMPDEST PUSH1 0x0 DUP2 PUSH1 0x60 SHL SWAP1 POP SWAP2 SWAP1 POP JUMP JUMPDEST PUSH1 0x0 PUSH2 0x14B6 DUP3 PUSH2 0x149E JUMP JUMPDEST SWAP1 POP SWAP2 SWAP1 POP JUMP JUMPDEST PUSH1 0x0 PUSH2 0x14C8 DUP3 PUSH2 0x14AB JUMP JUMPDEST SWAP1 POP SWAP2 SWAP1 POP JUMP JUMPDEST PUSH2 0x14E0 PUSH2 0x14DB DUP3 PUSH2 0xEBB JUMP JUMPDEST PUSH2 0x14BD JUMP JUMPDEST DUP3 MSTORE POP POP JUMP JUMPDEST PUSH1 0x0 PUSH2 0x14F2 DUP3 DUP8 PUSH2 0x1487 JUMP JUMPDEST PUSH1 0x20 DUP3 ADD SWAP2 POP PUSH2 0x1502 DUP3 DUP7 PUSH2 0x14CF JUMP JUMPDEST PUSH1 0x14 DUP3 ADD SWAP2 POP PUSH2 0x1512 DUP3 DUP6 PUSH2 0x14CF JUMP JUMPDEST PUSH1 0x14 DUP3 ADD SWAP2 POP PUSH2 0x1522 DUP3 DUP5 PUSH2 0x1487 JUMP JUMPDEST PUSH1 0x20 DUP3 ADD SWAP2 POP DUP2 SWAP1 POP SWAP6 SWAP5 POP POP POP POP POP JUMP JUMPDEST PUSH1 0x0 DUP2 SWAP1 POP SWAP3 SWAP2 POP POP JUMP JUMPDEST PUSH32 0x19457468657265756D205369676E6564204D6573736167653A0A333200000000 PUSH1 0x0 DUP3 ADD MSTORE POP JUMP JUMPDEST PUSH1 0x0 PUSH2 0x1575 PUSH1 0x1C DUP4 PUSH2 0x1534 JUMP JUMPDEST SWAP2 POP PUSH2 0x1580 DUP3 PUSH2 0x153F JUMP JUMPDEST PUSH1 0x1C DUP3 ADD SWAP1 POP SWAP2 SWAP1 POP JUMP JUMPDEST PUSH1 0x0 DUP2 SWAP1 POP SWAP2 SWAP1 POP JUMP JUMPDEST PUSH2 0x15A6 PUSH2 0x15A1 DUP3 PUSH2 0xF41 JUMP JUMPDEST PUSH2 0x158B JUMP JUMPDEST DUP3 MSTORE POP POP JUMP JUMPDEST PUSH1 0x0 PUSH2 0x15B7 DUP3 PUSH2 0x1568 JUMP JUMPDEST SWAP2 POP PUSH2 0x15C3 DUP3 DUP5 PUSH2 0x1595 JUMP JUMPDEST PUSH1 0x20 DUP3 ADD SWAP2 POP DUP2 SWAP1 POP SWAP3 SWAP2 POP POP JUMP JUMPDEST PUSH2 0x15DB DUP2 PUSH2 0xF41 JUMP JUMPDEST DUP3 MSTORE POP POP JUMP JUMPDEST PUSH2 0x15EA DUP2 PUSH2 0xF77 JUMP JUMPDEST DUP3 MSTORE POP POP JUMP JUMPDEST PUSH1 0x0 PUSH1 0x80 DUP3 ADD SWAP1 POP PUSH2 0x1605 PUSH1 0x0 DUP4 ADD DUP8 PUSH2 0x15D2 JUMP JUMPDEST PUSH2 0x1612 PUSH1 0x20 DUP4 ADD DUP7 PUSH2 0x15E1 JUMP JUMPDEST PUSH2 0x161F PUSH1 0x40 DUP4 ADD DUP6 PUSH2 0x15D2 JUMP JUMPDEST PUSH2 0x162C PUSH1 0x60 DUP4 ADD DUP5 PUSH2 0x15D2 JUMP JUMPDEST SWAP6 SWAP5 POP POP POP POP POP JUMP JUMPDEST PUSH1 0x0 PUSH2 0x1641 DUP3 DUP9 PUSH2 0x14CF JUMP JUMPDEST PUSH1 0x14 DUP3 ADD SWAP2 POP PUSH2 0x1651 DUP3 DUP8 PUSH2 0x1487 JUMP JUMPDEST PUSH1 0x20 DUP3 ADD SWAP2 POP PUSH2 0x1661 DUP3 DUP7 PUSH2 0x1487 JUMP JUMPDEST PUSH1 0x20 DUP3 ADD SWAP2 POP PUSH2 0x1671 DUP3 DUP6 PUSH2 0x1487 JUMP JUMPDEST PUSH1 0x20 DUP3 ADD SWAP2 POP PUSH2 0x1681 DUP3 DUP5 PUSH2 0x1595 JUMP JUMPDEST PUSH1 0x20 DUP3 ADD SWAP2 POP DUP2 SWAP1 POP SWAP7 SWAP6 POP POP POP POP POP POP JUMP JUMPDEST PUSH32 0x4E487B7100000000000000000000000000000000000000000000000000000000 PUSH1 0x0 MSTORE PUSH1 0x12 PUSH1 0x4 MSTORE PUSH1 0x24 PUSH1 0x0 REVERT JUMPDEST PUSH1 0x0 PUSH2 0x16CE DUP3 PUSH2 0xD8E JUMP JUMPDEST SWAP2 POP PUSH2 0x16D9 DUP4 PUSH2 0xD8E JUMP JUMPDEST SWAP3 POP DUP3 PUSH2 0x16E9 JUMPI PUSH2 0x16E8 PUSH2 0x1694 JUMP JUMPDEST JUMPDEST DUP3 DUP3 MOD SWAP1 POP SWAP3 SWAP2 POP POP JUMP JUMPDEST PUSH32 0x5061757361626C653A206E6F7420706175736564000000000000000000000000 PUSH1 0x0 DUP3 ADD MSTORE POP JUMP JUMPDEST PUSH1 0x0 PUSH2 0x172A PUSH1 0x14 DUP4 PUSH2 0x10A4 JUMP JUMPDEST SWAP2 POP PUSH2 0x1735 DUP3 PUSH2 0x16F4 JUMP JUMPDEST PUSH1 0x20 DUP3 ADD SWAP1 POP SWAP2 SWAP1 POP JUMP JUMPDEST PUSH1 0x0 PUSH1 0x20 DUP3 ADD SWAP1 POP DUP2 DUP2 SUB PUSH1 0x0 DUP4 ADD MSTORE PUSH2 0x1759 DUP2 PUSH2 0x171D JUMP JUMPDEST SWAP1 POP SWAP2 SWAP1 POP JUMP INVALID LOG2 PUSH5 0x6970667358 0x22 SLT KECCAK256 0xE4 0xEC SUB SWAP11 0xA8 DUP15 0xD4 0xD4 PUSH6 0xBF802244958D EQ PUSH30 0xDEA5E67E9FAADFC8181FEDC54E743764736F6C6343000813003300000000 "},"methodIdentifiers":{"currentUserLoot(address)":"2134333c","loot(bytes32,uint8,bytes32,uint256)":"4fb322d2","owner()":"8da5cb5b","pause()":"8456cb59","paused()":"5c975abb","prizesByRarity(uint8,uint256)":"0df9b7be","rarityPercent(uint8)":"dd194e9f","renounceOwnership()":"715018a6","setSigner(address)":"6c19e783","transferOwnership(address)":"f2fde38b","unpause()":"3f4ba83a"}},"storageLayout":{"storage":[{"astId":506,"contract":"contracts/Lootbox/LootboxSapphire.sol:LootboxSapphire","label":"_paused","offset":0,"slot":"0","type":"t_bool"},{"astId":383,"contract":"contracts/Lootbox/LootboxSapphire.sol:LootboxSapphire","label":"_owner","offset":1,"slot":"0","type":"t_address"},{"astId":647,"contract":"contracts/Lootbox/LootboxSapphire.sol:LootboxSapphire","label":"signer","offset":0,"slot":"1","type":"t_address"},{"astId":653,"contract":"contracts/Lootbox/LootboxSapphire.sol:LootboxSapphire","label":"rarityPercent","offset":0,"slot":"2","type":"t_mapping(t_enum(Rarity)634,t_uint256)"},{"astId":660,"contract":"contracts/Lootbox/LootboxSapphire.sol:LootboxSapphire","label":"prizesByRarity","offset":0,"slot":"3","type":"t_mapping(t_enum(Rarity)634,t_array(t_struct(Prize)640_storage)dyn_storage)"},{"astId":665,"contract":"contracts/Lootbox/LootboxSapphire.sol:LootboxSapphire","label":"currentUserLoot","offset":0,"slot":"4","type":"t_mapping(t_address,t_uint256)"}],"types":{"t_address":{"encoding":"inplace","label":"address","numberOfBytes":"20"},"t_array(t_struct(Prize)640_storage)dyn_storage":{"base":"t_struct(Prize)640_storage","encoding":"dynamic_array","label":"struct LootboxSapphire.Prize[]","numberOfBytes":"32"},"t_bool":{"encoding":"inplace","label":"bool","numberOfBytes":"1"},"t_contract(IFFNFT)1186":{"encoding":"inplace","label":"contract IFFNFT","numberOfBytes":"20"},"t_enum(Rarity)634":{"encoding":"inplace","label":"enum LootboxSapphire.Rarity","numberOfBytes":"1"},"t_mapping(t_address,t_uint256)":{"encoding":"mapping","key":"t_address","label":"mapping(address => uint256)","numberOfBytes":"32","value":"t_uint256"},"t_mapping(t_enum(Rarity)634,t_array(t_struct(Prize)640_storage)dyn_storage)":{"encoding":"mapping","key":"t_enum(Rarity)634","label":"mapping(enum LootboxSapphire.Rarity => struct LootboxSapphire.Prize[])","numberOfBytes":"32","value":"t_array(t_struct(Prize)640_storage)dyn_storage"},"t_mapping(t_enum(Rarity)634,t_uint256)":{"encoding":"mapping","key":"t_enum(Rarity)634","label":"mapping(enum LootboxSapphire.Rarity => uint256)","numberOfBytes":"32","value":"t_uint256"},"t_struct(Prize)640_storage":{"encoding":"inplace","label":"struct LootboxSapphire.Prize","members":[{"astId":637,"contract":"contracts/Lootbox/LootboxSapphire.sol:LootboxSapphire","label":"nft","offset":0,"slot":"0","type":"t_contract(IFFNFT)1186"},{"astId":639,"contract":"contracts/Lootbox/LootboxSapphire.sol:LootboxSapphire","label":"propertyId","offset":0,"slot":"1","type":"t_uint256"}],"numberOfBytes":"64"},"t_uint256":{"encoding":"inplace","label":"uint256","numberOfBytes":"32"}}}}}}