{"contracts/FairFight.sol":{"FairFight":{"abi":[{"inputs":[],"stateMutability":"nonpayable","type":"constructor"},{"anonymous":false,"inputs":[{"indexed":true,"internalType":"uint256","name":"ID","type":"uint256"},{"indexed":true,"internalType":"address","name":"owner","type":"address"},{"indexed":true,"internalType":"contract IERC20","name":"token","type":"address"}],"name":"CreateFight","type":"event"},{"anonymous":false,"inputs":[{"indexed":true,"internalType":"uint256","name":"ID","type":"uint256"},{"indexed":true,"internalType":"address","name":"player","type":"address"},{"indexed":false,"internalType":"uint256","name":"amount","type":"uint256"},{"indexed":true,"internalType":"contract IERC20","name":"token","type":"address"}],"name":"FinishFight","type":"event"},{"anonymous":false,"inputs":[{"indexed":false,"internalType":"uint8","name":"version","type":"uint8"}],"name":"Initialized","type":"event"},{"anonymous":false,"inputs":[{"indexed":true,"internalType":"uint256","name":"ID","type":"uint256"},{"indexed":true,"internalType":"address","name":"player","type":"address"},{"indexed":true,"internalType":"contract IERC20","name":"token","type":"address"}],"name":"JoinFight","type":"event"},{"anonymous":false,"inputs":[{"indexed":false,"internalType":"address","name":"account","type":"address"}],"name":"Paused","type":"event"},{"anonymous":false,"inputs":[{"indexed":true,"internalType":"bytes32","name":"role","type":"bytes32"},{"indexed":true,"internalType":"bytes32","name":"previousAdminRole","type":"bytes32"},{"indexed":true,"internalType":"bytes32","name":"newAdminRole","type":"bytes32"}],"name":"RoleAdminChanged","type":"event"},{"anonymous":false,"inputs":[{"indexed":true,"internalType":"bytes32","name":"role","type":"bytes32"},{"indexed":true,"internalType":"address","name":"account","type":"address"},{"indexed":true,"internalType":"address","name":"sender","type":"address"}],"name":"RoleGranted","type":"event"},{"anonymous":false,"inputs":[{"indexed":true,"internalType":"bytes32","name":"role","type":"bytes32"},{"indexed":true,"internalType":"address","name":"account","type":"address"},{"indexed":true,"internalType":"address","name":"sender","type":"address"}],"name":"RoleRevoked","type":"event"},{"anonymous":false,"inputs":[{"indexed":false,"internalType":"address","name":"account","type":"address"}],"name":"Unpaused","type":"event"},{"anonymous":false,"inputs":[{"indexed":true,"internalType":"uint256","name":"ID","type":"uint256"},{"indexed":true,"internalType":"address","name":"owner","type":"address"},{"indexed":true,"internalType":"contract IERC20","name":"token","type":"address"}],"name":"Withdraw","type":"event"},{"inputs":[],"name":"DEFAULT_ADMIN_ROLE","outputs":[{"internalType":"bytes32","name":"","type":"bytes32"}],"stateMutability":"view","type":"function"},{"inputs":[{"internalType":"uint256","name":"_fee","type":"uint256"}],"name":"changeFee","outputs":[],"stateMutability":"nonpayable","type":"function"},{"inputs":[{"internalType":"address","name":"_feeCollector","type":"address"}],"name":"changeFeeCollector","outputs":[],"stateMutability":"nonpayable","type":"function"},{"inputs":[{"internalType":"uint256","name":"_maxPlayers","type":"uint256"}],"name":"changeMaxPlayers","outputs":[],"stateMutability":"nonpayable","type":"function"},{"inputs":[{"internalType":"uint256","name":"_maxRounds","type":"uint256"}],"name":"changeMaxRounds","outputs":[],"stateMutability":"nonpayable","type":"function"},{"inputs":[{"internalType":"contract IERC20","name":"_token","type":"address"},{"internalType":"uint256","name":"_minAmountPerRound","type":"uint256"}],"name":"changeMinAmountPerRound","outputs":[],"stateMutability":"nonpayable","type":"function"},{"inputs":[{"internalType":"address","name":"_signer","type":"address"}],"name":"changeSigner","outputs":[],"stateMutability":"nonpayable","type":"function"},{"inputs":[{"internalType":"uint256","name":"amountPerRound","type":"uint256"},{"internalType":"uint256","name":"rounds","type":"uint256"},{"internalType":"uint256","name":"playersAmount","type":"uint256"},{"internalType":"contract IERC20","name":"token","type":"address"}],"name":"create","outputs":[{"internalType":"uint256","name":"ID","type":"uint256"}],"stateMutability":"payable","type":"function"},{"inputs":[{"internalType":"address","name":"","type":"address"}],"name":"currentlyBusy","outputs":[{"internalType":"bool","name":"","type":"bool"}],"stateMutability":"view","type":"function"},{"inputs":[{"internalType":"uint256","name":"","type":"uint256"}],"name":"fights","outputs":[{"internalType":"uint256","name":"ID","type":"uint256"},{"internalType":"address","name":"owner","type":"address"},{"internalType":"contract IERC20","name":"token","type":"address"},{"internalType":"uint256","name":"baseAmount","type":"uint256"},{"internalType":"uint256","name":"createTime","type":"uint256"},{"internalType":"uint256","name":"finishTime","type":"uint256"},{"internalType":"uint256","name":"amountPerRound","type":"uint256"},{"internalType":"uint256","name":"rounds","type":"uint256"},{"internalType":"uint256","name":"playersAmount","type":"uint256"}],"stateMutability":"view","type":"function"},{"inputs":[{"internalType":"uint256","name":"ID","type":"uint256"},{"internalType":"uint256","name":"amount","type":"uint256"},{"internalType":"bytes32","name":"r","type":"bytes32"},{"internalType":"uint8","name":"v","type":"uint8"},{"internalType":"bytes32","name":"s","type":"bytes32"}],"name":"finish","outputs":[],"stateMutability":"nonpayable","type":"function"},{"inputs":[{"internalType":"uint256","name":"index","type":"uint256"},{"internalType":"uint256","name":"amount","type":"uint256"}],"name":"getChunkFights","outputs":[{"components":[{"internalType":"uint256","name":"ID","type":"uint256"},{"internalType":"address","name":"owner","type":"address"},{"internalType":"contract IERC20","name":"token","type":"address"},{"internalType":"uint256","name":"baseAmount","type":"uint256"},{"internalType":"uint256","name":"createTime","type":"uint256"},{"internalType":"uint256","name":"finishTime","type":"uint256"},{"internalType":"uint256","name":"amountPerRound","type":"uint256"},{"internalType":"uint256","name":"rounds","type":"uint256"},{"internalType":"uint256","name":"playersAmount","type":"uint256"}],"internalType":"struct IFairFight.Fight[]","name":"","type":"tuple[]"}],"stateMutability":"view","type":"function"},{"inputs":[{"internalType":"uint256","name":"ID","type":"uint256"}],"name":"getFightPlayers","outputs":[{"internalType":"address[]","name":"","type":"address[]"}],"stateMutability":"view","type":"function"},{"inputs":[{"internalType":"address","name":"player","type":"address"},{"internalType":"uint256","name":"amount","type":"uint256"}],"name":"getPlayerFullFights","outputs":[{"components":[{"internalType":"uint256","name":"ID","type":"uint256"},{"internalType":"address","name":"owner","type":"address"},{"internalType":"contract IERC20","name":"token","type":"address"},{"internalType":"uint256","name":"baseAmount","type":"uint256"},{"internalType":"uint256","name":"createTime","type":"uint256"},{"internalType":"uint256","name":"finishTime","type":"uint256"},{"internalType":"uint256","name":"amountPerRound","type":"uint256"},{"internalType":"uint256","name":"rounds","type":"uint256"},{"internalType":"uint256","name":"playersAmount","type":"uint256"}],"internalType":"struct IFairFight.Fight[]","name":"","type":"tuple[]"}],"stateMutability":"view","type":"function"},{"inputs":[{"internalType":"bytes32","name":"role","type":"bytes32"}],"name":"getRoleAdmin","outputs":[{"internalType":"bytes32","name":"","type":"bytes32"}],"stateMutability":"view","type":"function"},{"inputs":[{"internalType":"bytes32","name":"role","type":"bytes32"},{"internalType":"address","name":"account","type":"address"}],"name":"grantRole","outputs":[],"stateMutability":"nonpayable","type":"function"},{"inputs":[{"internalType":"bytes32","name":"role","type":"bytes32"},{"internalType":"address","name":"account","type":"address"}],"name":"hasRole","outputs":[{"internalType":"bool","name":"","type":"bool"}],"stateMutability":"view","type":"function"},{"inputs":[{"internalType":"address","name":"_signer","type":"address"},{"internalType":"uint256","name":"_maxRounds","type":"uint256"},{"internalType":"address","name":"_feeCollector","type":"address"},{"internalType":"uint256","name":"_fee","type":"uint256"},{"internalType":"uint256","name":"_minAmountPerRound","type":"uint256"},{"internalType":"uint256","name":"_maxPlayers","type":"uint256"}],"name":"initialize","outputs":[],"stateMutability":"nonpayable","type":"function"},{"inputs":[{"internalType":"uint256","name":"ID","type":"uint256"}],"name":"join","outputs":[],"stateMutability":"payable","type":"function"},{"inputs":[{"internalType":"address","name":"","type":"address"}],"name":"lastPlayerFight","outputs":[{"internalType":"uint256","name":"","type":"uint256"}],"stateMutability":"view","type":"function"},{"inputs":[],"name":"maxPlayers","outputs":[{"internalType":"uint256","name":"","type":"uint256"}],"stateMutability":"view","type":"function"},{"inputs":[],"name":"maxRounds","outputs":[{"internalType":"uint256","name":"","type":"uint256"}],"stateMutability":"view","type":"function"},{"inputs":[{"internalType":"contract IERC20","name":"","type":"address"}],"name":"minAmountPerRound","outputs":[{"internalType":"uint256","name":"","type":"uint256"}],"stateMutability":"view","type":"function"},{"inputs":[],"name":"pause","outputs":[],"stateMutability":"nonpayable","type":"function"},{"inputs":[],"name":"paused","outputs":[{"internalType":"bool","name":"","type":"bool"}],"stateMutability":"view","type":"function"},{"inputs":[{"internalType":"address","name":"","type":"address"},{"internalType":"uint256","name":"","type":"uint256"}],"name":"playerClaimed","outputs":[{"internalType":"bool","name":"","type":"bool"}],"stateMutability":"view","type":"function"},{"inputs":[{"internalType":"bytes32","name":"role","type":"bytes32"},{"internalType":"address","name":"account","type":"address"}],"name":"renounceRole","outputs":[],"stateMutability":"nonpayable","type":"function"},{"inputs":[{"internalType":"bytes32","name":"role","type":"bytes32"},{"internalType":"address","name":"account","type":"address"}],"name":"revokeRole","outputs":[],"stateMutability":"nonpayable","type":"function"},{"inputs":[{"internalType":"bytes4","name":"interfaceId","type":"bytes4"}],"name":"supportsInterface","outputs":[{"internalType":"bool","name":"","type":"bool"}],"stateMutability":"view","type":"function"},{"inputs":[],"name":"unpause","outputs":[],"stateMutability":"nonpayable","type":"function"},{"inputs":[{"internalType":"uint256","name":"ID","type":"uint256"}],"name":"withdraw","outputs":[],"stateMutability":"nonpayable","type":"function"}],"evm":{"bytecode":{"linkReferences":{},"object":"60806040523480156200001157600080fd5b50620000226200002860201b60201c565b620001d3565b600060019054906101000a900460ff16156200007b576040517f08c379a0000000000000000000000000000000000000000000000000000000008152600401620000729062000176565b60405180910390fd5b60ff801660008054906101000a900460ff1660ff161015620000ed5760ff6000806101000a81548160ff021916908360ff1602179055507f7f26b83ff96e1f2b6a682f133852f6798a09c465da95921460cefb384740249860ff604051620000e49190620001b6565b60405180910390a15b565b600082825260208201905092915050565b7f496e697469616c697a61626c653a20636f6e747261637420697320696e69746960008201527f616c697a696e6700000000000000000000000000000000000000000000000000602082015250565b60006200015e602783620000ef565b91506200016b8262000100565b604082019050919050565b6000602082019050818103600083015262000191816200014f565b9050919050565b600060ff82169050919050565b620001b08162000198565b82525050565b6000602082019050620001cd6000830184620001a5565b92915050565b61566480620001e36000396000f3fe6080604052600436106101d85760003560e01c806358b7f322116101025780639245290d11610095578063bd36e98311610064578063bd36e983146106de578063d10171b71461071b578063d547741f14610744578063fbc28fd61461076d576101d8565b80639245290d146106245780639c09bffc1461064d578063a217fddf1461068a578063aad2b723146106b5576101d8565b80636a2eae9f116100d15780636a2eae9f1461056a57806380d2ac1c146105a75780638456cb59146105d057806391d14854146105e7576101d8565b806358b7f322146104c45780635c975abb146104ed57806360653c44146105185780636a1db1bf14610541576101d8565b80632f2ff15d1161017a5780634315e723116101495780634315e723146103e7578063477cdbb51461042c5780634c2412a21461045c578063550b32da14610487576101d8565b80632f2ff15d1461034157806336568abe1461036a5780633a853019146103935780633f4ba83a146103d0576101d8565b8063144a536a116101b6578063144a536a146102735780631faf969b146102b0578063248a9ca3146102db5780632e1a7d4d14610318576101d8565b806301ffc9a7146101dd578063049878f31461021a578063115ecd9414610236575b600080fd5b3480156101e957600080fd5b5061020460048036038101906101ff9190613b07565b610796565b6040516102119190613b4f565b60405180910390f35b610234600480360381019061022f9190613ba0565b610810565b005b34801561024257600080fd5b5061025d60048036038101906102589190613c2b565b610e5d565b60405161026a9190613c67565b60405180910390f35b34801561027f57600080fd5b5061029a60048036038101906102959190613cc0565b610e76565b6040516102a79190613c67565b60405180910390f35b3480156102bc57600080fd5b506102c5610e8f565b6040516102d29190613c67565b60405180910390f35b3480156102e757600080fd5b5061030260048036038101906102fd9190613d23565b610e95565b60405161030f9190613d5f565b60405180910390f35b34801561032457600080fd5b5061033f600480360381019061033a9190613ba0565b610eb5565b005b34801561034d57600080fd5b5061036860048036038101906103639190613d7a565b611306565b005b34801561037657600080fd5b50610391600480360381019061038c9190613d7a565b611327565b005b34801561039f57600080fd5b506103ba60048036038101906103b59190613ba0565b6113aa565b6040516103c79190613e78565b60405180910390f35b3480156103dc57600080fd5b506103e56114dc565b005b3480156103f357600080fd5b5061040e60048036038101906104099190613ba0565b611511565b60405161042399989796959493929190613f08565b60405180910390f35b61044660048036038101906104419190613f95565b6115b0565b6040516104539190613c67565b60405180910390f35b34801561046857600080fd5b50610471611ba4565b60405161047e9190613c67565b60405180910390f35b34801561049357600080fd5b506104ae60048036038101906104a99190613ffc565b611baa565b6040516104bb9190613b4f565b60405180910390f35b3480156104d057600080fd5b506104eb60048036038101906104e69190614075565b611bda565b005b3480156104f957600080fd5b5061050261219e565b60405161050f9190613b4f565b60405180910390f35b34801561052457600080fd5b5061053f600480360381019061053a9190613ba0565b6121b5565b005b34801561054d57600080fd5b5061056860048036038101906105639190613ba0565b6121cd565b005b34801561057657600080fd5b50610591600480360381019061058c91906140f0565b6121e5565b60405161059e91906142b5565b60405180910390f35b3480156105b357600080fd5b506105ce60048036038101906105c991906142d7565b612444565b005b3480156105dc57600080fd5b506105e561287f565b005b3480156105f357600080fd5b5061060e60048036038101906106099190613d7a565b6128b4565b60405161061b9190613b4f565b60405180910390f35b34801561063057600080fd5b5061064b60048036038101906106469190613c2b565b61291f565b005b34801561065957600080fd5b50610674600480360381019061066f9190613c2b565b612971565b6040516106819190613b4f565b60405180910390f35b34801561069657600080fd5b5061069f612992565b6040516106ac9190613d5f565b60405180910390f35b3480156106c157600080fd5b506106dc60048036038101906106d79190613c2b565b612999565b005b3480156106ea57600080fd5b5061070560048036038101906107009190613ffc565b6129eb565b60405161071291906142b5565b60405180910390f35b34801561072757600080fd5b50610742600480360381019061073d9190613ba0565b612c86565b005b34801561075057600080fd5b5061076b60048036038101906107669190613d7a565b612c9e565b005b34801561077957600080fd5b50610794600480360381019061078f9190614364565b612cbf565b005b60007f7965db0b000000000000000000000000000000000000000000000000000000007bffffffffffffffffffffffffffffffffffffffffffffffffffffffff1916827bffffffffffffffffffffffffffffffffffffffffffffffffffffffff19161480610809575061080882612d16565b5b9050919050565b610818612d80565b6000610106828154811061082f5761082e6143a4565b5b906000526020600020906009020160405180610120016040529081600082015481526020016001820160009054906101000a900473ffffffffffffffffffffffffffffffffffffffff1673ffffffffffffffffffffffffffffffffffffffff1673ffffffffffffffffffffffffffffffffffffffff1681526020016002820160009054906101000a900473ffffffffffffffffffffffffffffffffffffffff1673ffffffffffffffffffffffffffffffffffffffff1673ffffffffffffffffffffffffffffffffffffffff16815260200160038201548152602001600482015481526020016005820154815260200160068201548152602001600782015481526020016008820154815250509050600073ffffffffffffffffffffffffffffffffffffffff16816040015173ffffffffffffffffffffffffffffffffffffffff16036109cf578060c001518160e001516109899190614402565b34146109ca576040517f08c379a00000000000000000000000000000000000000000000000000000000081526004016109c1906144a1565b60405180910390fd5b610a14565b610a1333308360c001518460e001516109e89190614402565b846040015173ffffffffffffffffffffffffffffffffffffffff16612dca909392919063ffffffff16565b5b61010360003373ffffffffffffffffffffffffffffffffffffffff1673ffffffffffffffffffffffffffffffffffffffff16815260200190815260200160002060009054906101000a900460ff1615610aa2576040517f08c379a0000000000000000000000000000000000000000000000000000000008152600401610a999061450d565b60405180910390fd5b80610100015161010560008481526020019081526020016000208054905010610b00576040517f08c379a0000000000000000000000000000000000000000000000000000000008152600401610af790614579565b60405180910390fd5b60008160a0015114610b47576040517f08c379a0000000000000000000000000000000000000000000000000000000008152600401610b3e906145e5565b60405180910390fd5b6101056000838152602001908152602001600020339080600181540180825580915050600190039060005260206000200160009091909190916101000a81548173ffffffffffffffffffffffffffffffffffffffff021916908373ffffffffffffffffffffffffffffffffffffffff160217905550600161010360003373ffffffffffffffffffffffffffffffffffffffff1673ffffffffffffffffffffffffffffffffffffffff16815260200190815260200160002060006101000a81548160ff02191690831515021790555060006101016000836020015173ffffffffffffffffffffffffffffffffffffffff1673ffffffffffffffffffffffffffffffffffffffff1681526020019081526020016000208054905090506000811480610cdc5750826101016000846020015173ffffffffffffffffffffffffffffffffffffffff1673ffffffffffffffffffffffffffffffffffffffff168152602001908152602001600020600183610cbd9190614605565b81548110610cce57610ccd6143a4565b5b906000526020600020015414155b15610d4d576101016000836020015173ffffffffffffffffffffffffffffffffffffffff1673ffffffffffffffffffffffffffffffffffffffff1681526020019081526020016000208390806001815401808255809150506001900390600052602060002001600090919091909150555b61010160003373ffffffffffffffffffffffffffffffffffffffff1673ffffffffffffffffffffffffffffffffffffffff1681526020019081526020016000208390806001815401808255809150506001900390600052602060002001600090919091909150558261010260003373ffffffffffffffffffffffffffffffffffffffff1673ffffffffffffffffffffffffffffffffffffffff16815260200190815260200160002081905550816040015173ffffffffffffffffffffffffffffffffffffffff163373ffffffffffffffffffffffffffffffffffffffff16847f9b3160bfef087eb6931b26de3095d081950aaebe0786a5103070769b3bd76e3160405160405180910390a4505050565b6101026020528060005260406000206000915090505481565b6101006020528060005260406000206000915090505481565b60ff5481565b600060976000838152602001908152602001600020600101549050919050565b610ebd612e53565b60006101068281548110610ed457610ed36143a4565b5b906000526020600020906009020160405180610120016040529081600082015481526020016001820160009054906101000a900473ffffffffffffffffffffffffffffffffffffffff1673ffffffffffffffffffffffffffffffffffffffff1673ffffffffffffffffffffffffffffffffffffffff1681526020016002820160009054906101000a900473ffffffffffffffffffffffffffffffffffffffff1673ffffffffffffffffffffffffffffffffffffffff1673ffffffffffffffffffffffffffffffffffffffff168152602001600382015481526020016004820154815260200160058201548152602001600682015481526020016007820154815260200160088201548152505090503373ffffffffffffffffffffffffffffffffffffffff16816020015173ffffffffffffffffffffffffffffffffffffffff1614611054576040517f08c379a000000000000000000000000000000000000000000000000000000000815260040161104b906146ab565b60405180910390fd5b60008160a001511461109b576040517f08c379a0000000000000000000000000000000000000000000000000000000008152600401611092906145e5565b60405180910390fd5b6001610105600084815260200190815260200160002080549050146110f5576040517f08c379a00000000000000000000000000000000000000000000000000000000081526004016110ec90614717565b60405180910390fd5b42610106838154811061110b5761110a6143a4565b5b906000526020600020906009020160050181905550600061010360003373ffffffffffffffffffffffffffffffffffffffff1673ffffffffffffffffffffffffffffffffffffffff16815260200190815260200160002060006101000a81548160ff021916908315150217905550600073ffffffffffffffffffffffffffffffffffffffff16816040015173ffffffffffffffffffffffffffffffffffffffff16036112675760003373ffffffffffffffffffffffffffffffffffffffff1682606001516040516111db90614768565b60006040518083038185875af1925050503d8060008114611218576040519150601f19603f3d011682016040523d82523d6000602084013e61121d565b606091505b5050905080611261576040517f08c379a0000000000000000000000000000000000000000000000000000000008152600401611258906147c9565b60405180910390fd5b5061129b565b61129a338260600151836040015173ffffffffffffffffffffffffffffffffffffffff16612ea29092919063ffffffff16565b5b806040015173ffffffffffffffffffffffffffffffffffffffff163373ffffffffffffffffffffffffffffffffffffffff16837fa51bb7c2c2049ab09fbff5561211a4ee34b3b4cee74c42f1bce5461cd4ef3f8d60405160405180910390a450611303612f28565b50565b61130f82610e95565b61131881612f32565b6113228383612f46565b505050565b61132f613027565b73ffffffffffffffffffffffffffffffffffffffff168173ffffffffffffffffffffffffffffffffffffffff161461139c576040517f08c379a00000000000000000000000000000000000000000000000000000000081526004016113939061485b565b60405180910390fd5b6113a6828261302f565b5050565b60606000610105600084815260200190815260200160002080549050905060008167ffffffffffffffff8111156113e4576113e361487b565b5b6040519080825280602002602001820160405280156114125781602001602082028036833780820191505090505b50905060005b828110156114d15761010560008681526020019081526020016000208181548110611446576114456143a4565b5b9060005260206000200160009054906101000a900473ffffffffffffffffffffffffffffffffffffffff16828281518110611484576114836143a4565b5b602002602001019073ffffffffffffffffffffffffffffffffffffffff16908173ffffffffffffffffffffffffffffffffffffffff168152505080806114c9906148aa565b915050611418565b508092505050919050565b7f65d7a28e3265b37a6474929f336521b332c1681b933f6cb9f3376673440d862a61150681612f32565b61150e613111565b50565b610106818154811061152257600080fd5b90600052602060002090600902016000915090508060000154908060010160009054906101000a900473ffffffffffffffffffffffffffffffffffffffff16908060020160009054906101000a900473ffffffffffffffffffffffffffffffffffffffff16908060030154908060040154908060050154908060060154908060070154908060080154905089565b60006115ba612d80565b600061010060008473ffffffffffffffffffffffffffffffffffffffff1673ffffffffffffffffffffffffffffffffffffffff168152602001908152602001600020540361163d576040517f08c379a000000000000000000000000000000000000000000000000000000000815260040161163490614964565b60405180910390fd5b61010360003373ffffffffffffffffffffffffffffffffffffffff1673ffffffffffffffffffffffffffffffffffffffff16815260200190815260200160002060009054906101000a900460ff16156116cb576040517f08c379a00000000000000000000000000000000000000000000000000000000081526004016116c29061450d565b60405180910390fd5b600084141580156116de575060ff548411155b61171d576040517f08c379a0000000000000000000000000000000000000000000000000000000008152600401611714906149d0565b60405180910390fd5b60fe54831115611762576040517f08c379a000000000000000000000000000000000000000000000000000000000815260040161175990614a3c565b60405180910390fd5b61010060008373ffffffffffffffffffffffffffffffffffffffff1673ffffffffffffffffffffffffffffffffffffffff168152602001908152602001600020548510156117e5576040517f08c379a00000000000000000000000000000000000000000000000000000000081526004016117dc90614ace565b60405180910390fd5b600073ffffffffffffffffffffffffffffffffffffffff168273ffffffffffffffffffffffffffffffffffffffff160361186b5784846118259190614402565b3414611866576040517f08c379a000000000000000000000000000000000000000000000000000000000815260040161185d906144a1565b60405180910390fd5b6118a4565b6118a33330878761187c9190614402565b8573ffffffffffffffffffffffffffffffffffffffff16612dca909392919063ffffffff16565b5b61010680549050905060006040518061012001604052808381526020013373ffffffffffffffffffffffffffffffffffffffff1681526020018473ffffffffffffffffffffffffffffffffffffffff16815260200187876119059190614402565b8152602001428152602001600081526020018781526020018681526020018581525090506101068190806001815401808255809150506001900390600052602060002090600902016000909190919091506000820151816000015560208201518160010160006101000a81548173ffffffffffffffffffffffffffffffffffffffff021916908373ffffffffffffffffffffffffffffffffffffffff16021790555060408201518160020160006101000a81548173ffffffffffffffffffffffffffffffffffffffff021916908373ffffffffffffffffffffffffffffffffffffffff160217905550606082015181600301556080820151816004015560a0820151816005015560c0820151816006015560e08201518160070155610100820151816008015550506101056000838152602001908152602001600020339080600181540180825580915050600190039060005260206000200160009091909190916101000a81548173ffffffffffffffffffffffffffffffffffffffff021916908373ffffffffffffffffffffffffffffffffffffffff160217905550600161010360003373ffffffffffffffffffffffffffffffffffffffff1673ffffffffffffffffffffffffffffffffffffffff16815260200190815260200160002060006101000a81548160ff0219169083151502179055508161010260003373ffffffffffffffffffffffffffffffffffffffff1673ffffffffffffffffffffffffffffffffffffffff168152602001908152602001600020819055508273ffffffffffffffffffffffffffffffffffffffff163373ffffffffffffffffffffffffffffffffffffffff16837f5ea0b4174c5795fa6a8a9f60501270348e7556ae8905b5dd5892b86c65055c0460405160405180910390a450949350505050565b60fe5481565b6101046020528160005260406000206020528060005260406000206000915091509054906101000a900460ff1681565b611be2612e53565b60006101068681548110611bf957611bf86143a4565b5b906000526020600020906009020160405180610120016040529081600082015481526020016001820160009054906101000a900473ffffffffffffffffffffffffffffffffffffffff1673ffffffffffffffffffffffffffffffffffffffff1673ffffffffffffffffffffffffffffffffffffffff1681526020016002820160009054906101000a900473ffffffffffffffffffffffffffffffffffffffff1673ffffffffffffffffffffffffffffffffffffffff1673ffffffffffffffffffffffffffffffffffffffff16815260200160038201548152602001600482015481526020016005820154815260200160068201548152602001600782015481526020016008820154815250509050611d1986868360400151878787613174565b611d58576040517f08c379a0000000000000000000000000000000000000000000000000000000008152600401611d4f90614b3a565b60405180910390fd5b60008160a0015103611d9057426101068781548110611d7a57611d796143a4565b5b9060005260206000209060090201600501819055505b61010460003373ffffffffffffffffffffffffffffffffffffffff1673ffffffffffffffffffffffffffffffffffffffff168152602001908152602001600020600087815260200190815260200160002060009054906101000a900460ff1615611e2f576040517f08c379a0000000000000000000000000000000000000000000000000000000008152600401611e2690614ba6565b60405180910390fd5b600161010460003373ffffffffffffffffffffffffffffffffffffffff1673ffffffffffffffffffffffffffffffffffffffff168152602001908152602001600020600088815260200190815260200160002060006101000a81548160ff021916908315150217905550600080611eaa83606001518861327a565b91509150600073ffffffffffffffffffffffffffffffffffffffff16836040015173ffffffffffffffffffffffffffffffffffffffff160361203f5760003373ffffffffffffffffffffffffffffffffffffffff1682604051611f0c90614768565b60006040518083038185875af1925050503d8060008114611f49576040519150601f19603f3d011682016040523d82523d6000602084013e611f4e565b606091505b5050905060006001905060008414611fef5760fc60009054906101000a900473ffffffffffffffffffffffffffffffffffffffff1673ffffffffffffffffffffffffffffffffffffffff1684604051611fa690614768565b60006040518083038185875af1925050503d8060008114611fe3576040519150601f19603f3d011682016040523d82523d6000602084013e611fe8565b606091505b5050809150505b818015611ff95750805b612038576040517f08c379a000000000000000000000000000000000000000000000000000000000815260040161202f906147c9565b60405180910390fd5b50506120c9565b61206e3382856040015173ffffffffffffffffffffffffffffffffffffffff16612ea29092919063ffffffff16565b600082146120c8576120c760fc60009054906101000a900473ffffffffffffffffffffffffffffffffffffffff1683856040015173ffffffffffffffffffffffffffffffffffffffff16612ea29092919063ffffffff16565b5b5b600061010360003373ffffffffffffffffffffffffffffffffffffffff1673ffffffffffffffffffffffffffffffffffffffff16815260200190815260200160002060006101000a81548160ff021916908315150217905550826040015173ffffffffffffffffffffffffffffffffffffffff163373ffffffffffffffffffffffffffffffffffffffff16897ff674789db389cbf7b8bcba8efc2a727996d4164e7589c33f9bc4f7c0375784d18a6040516121849190613c67565b60405180910390a4505050612197612f28565b5050505050565b6000603360009054906101000a900460ff16905090565b6000801b6121c281612f32565b8160fe819055505050565b6000801b6121da81612f32565b8160fd819055505050565b606060008267ffffffffffffffff8111156122035761220261487b565b5b60405190808252806020026020018201604052801561223c57816020015b612229613a32565b8152602001906001900390816122215790505b509050600061010680549050905080851061228c576040517f08c379a000000000000000000000000000000000000000000000000000000000815260040161228390614c12565b60405180910390fd5b600084868361229b9190614605565b116122a657816122b3565b84866122b29190614c32565b5b905060008690505b8181101561243757610106600182856122d49190614605565b6122de9190614605565b815481106122ef576122ee6143a4565b5b906000526020600020906009020160405180610120016040529081600082015481526020016001820160009054906101000a900473ffffffffffffffffffffffffffffffffffffffff1673ffffffffffffffffffffffffffffffffffffffff1673ffffffffffffffffffffffffffffffffffffffff1681526020016002820160009054906101000a900473ffffffffffffffffffffffffffffffffffffffff1673ffffffffffffffffffffffffffffffffffffffff1673ffffffffffffffffffffffffffffffffffffffff16815260200160038201548152602001600482015481526020016005820154815260200160068201548152602001600782015481526020016008820154815250508488836124089190614605565b81518110612419576124186143a4565b5b6020026020010181905250808061242f906148aa565b9150506122bb565b5082935050505092915050565b60008060019054906101000a900460ff161590508080156124755750600160008054906101000a900460ff1660ff16105b806124a25750612484306132cb565b1580156124a15750600160008054906101000a900460ff1660ff16145b5b6124e1576040517f08c379a00000000000000000000000000000000000000000000000000000000081526004016124d890614cd8565b60405180910390fd5b60016000806101000a81548160ff021916908360ff160217905550801561251e576001600060016101000a81548160ff0219169083151502179055505b6125266132ee565b61252e613347565b61253b6000801b33612f46565b6125657f65d7a28e3265b37a6474929f336521b332c1681b933f6cb9f3376673440d862a33612f46565b8660fb60006101000a81548173ffffffffffffffffffffffffffffffffffffffff021916908373ffffffffffffffffffffffffffffffffffffffff1602179055508560ff819055508460fc60006101000a81548173ffffffffffffffffffffffffffffffffffffffff021916908373ffffffffffffffffffffffffffffffffffffffff1602179055508360fd819055508261010060008073ffffffffffffffffffffffffffffffffffffffff1673ffffffffffffffffffffffffffffffffffffffff168152602001908152602001600020819055508160fe81905550600060405180610120016040528060008152602001600073ffffffffffffffffffffffffffffffffffffffff168152602001600073ffffffffffffffffffffffffffffffffffffffff168152602001600081526020016000815260200160008152602001600081526020016000815260200160008152509050600073ffffffffffffffffffffffffffffffffffffffff16600073ffffffffffffffffffffffffffffffffffffffff1660007f5ea0b4174c5795fa6a8a9f60501270348e7556ae8905b5dd5892b86c65055c0460405160405180910390a46101068190806001815401808255809150506001900390600052602060002090600902016000909190919091506000820151816000015560208201518160010160006101000a81548173ffffffffffffffffffffffffffffffffffffffff021916908373ffffffffffffffffffffffffffffffffffffffff16021790555060408201518160020160006101000a81548173ffffffffffffffffffffffffffffffffffffffff021916908373ffffffffffffffffffffffffffffffffffffffff160217905550606082015181600301556080820151816004015560a0820151816005015560c0820151816006015560e08201518160070155610100820151816008015550505080156128765760008060016101000a81548160ff0219169083151502179055507f7f26b83ff96e1f2b6a682f133852f6798a09c465da95921460cefb3847402498600160405161286d9190614d33565b60405180910390a15b50505050505050565b7f65d7a28e3265b37a6474929f336521b332c1681b933f6cb9f3376673440d862a6128a981612f32565b6128b1613398565b50565b60006097600084815260200190815260200160002060000160008373ffffffffffffffffffffffffffffffffffffffff1673ffffffffffffffffffffffffffffffffffffffff16815260200190815260200160002060009054906101000a900460ff16905092915050565b6000801b61292c81612f32565b8160fc60006101000a81548173ffffffffffffffffffffffffffffffffffffffff021916908373ffffffffffffffffffffffffffffffffffffffff1602179055505050565b6101036020528060005260406000206000915054906101000a900460ff1681565b6000801b81565b6000801b6129a681612f32565b8160fb60006101000a81548173ffffffffffffffffffffffffffffffffffffffff021916908373ffffffffffffffffffffffffffffffffffffffff1602179055505050565b606060008267ffffffffffffffff811115612a0957612a0861487b565b5b604051908082528060200260200182016040528015612a4257816020015b612a2f613a32565b815260200190600190039081612a275790505b509050600061010160008673ffffffffffffffffffffffffffffffffffffffff1673ffffffffffffffffffffffffffffffffffffffff1681526020019081526020016000208054905090506000848211612a9d576000612aaa565b8482612aa99190614605565b5b905060008190505b82811015612c7957600061010160008973ffffffffffffffffffffffffffffffffffffffff1673ffffffffffffffffffffffffffffffffffffffff1681526020019081526020016000208281548110612b0e57612b0d6143a4565b5b906000526020600020015490506101068181548110612b3057612b2f6143a4565b5b906000526020600020906009020160405180610120016040529081600082015481526020016001820160009054906101000a900473ffffffffffffffffffffffffffffffffffffffff1673ffffffffffffffffffffffffffffffffffffffff1673ffffffffffffffffffffffffffffffffffffffff1681526020016002820160009054906101000a900473ffffffffffffffffffffffffffffffffffffffff1673ffffffffffffffffffffffffffffffffffffffff1673ffffffffffffffffffffffffffffffffffffffff1681526020016003820154815260200160048201548152602001600582015481526020016006820154815260200160078201548152602001600882015481525050858484612c499190614605565b81518110612c5a57612c596143a4565b5b6020026020010181905250508080612c71906148aa565b915050612ab2565b5082935050505092915050565b6000801b612c9381612f32565b8160ff819055505050565b612ca782610e95565b612cb081612f32565b612cba838361302f565b505050565b6000801b612ccc81612f32565b8161010060008573ffffffffffffffffffffffffffffffffffffffff1673ffffffffffffffffffffffffffffffffffffffff16815260200190815260200160002081905550505050565b60007f01ffc9a7000000000000000000000000000000000000000000000000000000007bffffffffffffffffffffffffffffffffffffffffffffffffffffffff1916827bffffffffffffffffffffffffffffffffffffffffffffffffffffffff1916149050919050565b612d8861219e565b15612dc8576040517f08c379a0000000000000000000000000000000000000000000000000000000008152600401612dbf90614d9a565b60405180910390fd5b565b612e4d846323b872dd60e01b858585604051602401612deb93929190614dba565b604051602081830303815290604052907bffffffffffffffffffffffffffffffffffffffffffffffffffffffff19166020820180517bffffffffffffffffffffffffffffffffffffffffffffffffffffffff83818316178352505050506133fb565b50505050565b600260c95403612e98576040517f08c379a0000000000000000000000000000000000000000000000000000000008152600401612e8f90614e3d565b60405180910390fd5b600260c981905550565b612f238363a9059cbb60e01b8484604051602401612ec1929190614e5d565b604051602081830303815290604052907bffffffffffffffffffffffffffffffffffffffffffffffffffffffff19166020820180517bffffffffffffffffffffffffffffffffffffffffffffffffffffffff83818316178352505050506133fb565b505050565b600160c981905550565b612f4381612f3e613027565b6134c2565b50565b612f5082826128b4565b6130235760016097600084815260200190815260200160002060000160008373ffffffffffffffffffffffffffffffffffffffff1673ffffffffffffffffffffffffffffffffffffffff16815260200190815260200160002060006101000a81548160ff021916908315150217905550612fc8613027565b73ffffffffffffffffffffffffffffffffffffffff168173ffffffffffffffffffffffffffffffffffffffff16837f2f8788117e7eff1d82e926ec794901d17c78024a50270940304540a733656f0d60405160405180910390a45b5050565b600033905090565b61303982826128b4565b1561310d5760006097600084815260200190815260200160002060000160008373ffffffffffffffffffffffffffffffffffffffff1673ffffffffffffffffffffffffffffffffffffffff16815260200190815260200160002060006101000a81548160ff0219169083151502179055506130b2613027565b73ffffffffffffffffffffffffffffffffffffffff168173ffffffffffffffffffffffffffffffffffffffff16837ff6391f5c32d9c69d2a47ea670b442974b53935d1edc7fd64eb21e047a839171b60405160405180910390a45b5050565b613119613547565b6000603360006101000a81548160ff0219169083151502179055507f5db9ee0a495bf2e6ff9c91a7834c1ba4fdd244a5e8aa4e537bd38aeae4b073aa61315d613027565b60405161316a9190614e86565b60405180910390a1565b6000808787873330604051602001613190959493929190614f0a565b6040516020818303038152906040528051906020012090506001816040516020016131bb9190614fe1565b60405160208183030381529060405280519060200120858786604051600081526020016040526040516131f19493929190615016565b6020604051602081039080840390855afa158015613213573d6000803e3d6000fd5b5050506020604051035173ffffffffffffffffffffffffffffffffffffffff1660fb60009054906101000a900473ffffffffffffffffffffffffffffffffffffffff1673ffffffffffffffffffffffffffffffffffffffff16149150509695505050505050565b600080838311156132c05761271060fd54846132969190614402565b6132a0919061508a565b836132ab9190614605565b905080836132b99190614605565b91506132c4565b8290505b9250929050565b6000808273ffffffffffffffffffffffffffffffffffffffff163b119050919050565b600060019054906101000a900460ff1661333d576040517f08c379a00000000000000000000000000000000000000000000000000000000081526004016133349061512d565b60405180910390fd5b613345613590565b565b600060019054906101000a900460ff16613396576040517f08c379a000000000000000000000000000000000000000000000000000000000815260040161338d9061512d565b60405180910390fd5b565b6133a0612d80565b6001603360006101000a81548160ff0219169083151502179055507f62e78cea01bee320cd4e420270b5ea74000d11b0c9f74754ebdbfc544b05a2586133e4613027565b6040516133f19190614e86565b60405180910390a1565b600061345d826040518060400160405280602081526020017f5361666545524332303a206c6f772d6c6576656c2063616c6c206661696c65648152508573ffffffffffffffffffffffffffffffffffffffff166135fc9092919063ffffffff16565b90506000815111156134bd578080602001905181019061347d9190615179565b6134bc576040517f08c379a00000000000000000000000000000000000000000000000000000000081526004016134b390615218565b60405180910390fd5b5b505050565b6134cc82826128b4565b613543576134d981613614565b6134e78360001c6020613641565b6040516020016134f8929190615336565b6040516020818303038152906040526040517f08c379a000000000000000000000000000000000000000000000000000000000815260040161353a91906153ba565b60405180910390fd5b5050565b61354f61219e565b61358e576040517f08c379a000000000000000000000000000000000000000000000000000000000815260040161358590615428565b60405180910390fd5b565b600060019054906101000a900460ff166135df576040517f08c379a00000000000000000000000000000000000000000000000000000000081526004016135d69061512d565b60405180910390fd5b6000603360006101000a81548160ff021916908315150217905550565b606061360b848460008561387d565b90509392505050565b606061363a8273ffffffffffffffffffffffffffffffffffffffff16601460ff16613641565b9050919050565b6060600060028360026136549190614402565b61365e9190614c32565b67ffffffffffffffff8111156136775761367661487b565b5b6040519080825280601f01601f1916602001820160405280156136a95781602001600182028036833780820191505090505b5090507f3000000000000000000000000000000000000000000000000000000000000000816000815181106136e1576136e06143a4565b5b60200101907effffffffffffffffffffffffffffffffffffffffffffffffffffffffffffff1916908160001a9053507f780000000000000000000000000000000000000000000000000000000000000081600181518110613745576137446143a4565b5b60200101907effffffffffffffffffffffffffffffffffffffffffffffffffffffffffffff1916908160001a905350600060018460026137859190614402565b61378f9190614c32565b90505b600181111561382f577f3031323334353637383961626364656600000000000000000000000000000000600f8616601081106137d1576137d06143a4565b5b1a60f81b8282815181106137e8576137e76143a4565b5b60200101907effffffffffffffffffffffffffffffffffffffffffffffffffffffffffffff1916908160001a905350600485901c94508061382890615448565b9050613792565b5060008414613873576040517f08c379a000000000000000000000000000000000000000000000000000000000815260040161386a906154bd565b60405180910390fd5b8091505092915050565b6060824710156138c2576040517f08c379a00000000000000000000000000000000000000000000000000000000081526004016138b99061554f565b60405180910390fd5b6000808673ffffffffffffffffffffffffffffffffffffffff1685876040516138eb91906155ab565b60006040518083038185875af1925050503d8060008114613928576040519150601f19603f3d011682016040523d82523d6000602084013e61392d565b606091505b509150915061393e8783838761394a565b92505050949350505050565b606083156139ac5760008351036139a457613964856139bf565b6139a3576040517f08c379a000000000000000000000000000000000000000000000000000000000815260040161399a9061560e565b60405180910390fd5b5b8290506139b7565b6139b683836139e2565b5b949350505050565b6000808273ffffffffffffffffffffffffffffffffffffffff163b119050919050565b6000825111156139f55781518083602001fd5b806040517f08c379a0000000000000000000000000000000000000000000000000000000008152600401613a2991906153ba565b60405180910390fd5b60405180610120016040528060008152602001600073ffffffffffffffffffffffffffffffffffffffff168152602001600073ffffffffffffffffffffffffffffffffffffffff1681526020016000815260200160008152602001600081526020016000815260200160008152602001600081525090565b600080fd5b60007fffffffff0000000000000000000000000000000000000000000000000000000082169050919050565b613ae481613aaf565b8114613aef57600080fd5b50565b600081359050613b0181613adb565b92915050565b600060208284031215613b1d57613b1c613aaa565b5b6000613b2b84828501613af2565b91505092915050565b60008115159050919050565b613b4981613b34565b82525050565b6000602082019050613b646000830184613b40565b92915050565b6000819050919050565b613b7d81613b6a565b8114613b8857600080fd5b50565b600081359050613b9a81613b74565b92915050565b600060208284031215613bb657613bb5613aaa565b5b6000613bc484828501613b8b565b91505092915050565b600073ffffffffffffffffffffffffffffffffffffffff82169050919050565b6000613bf882613bcd565b9050919050565b613c0881613bed565b8114613c1357600080fd5b50565b600081359050613c2581613bff565b92915050565b600060208284031215613c4157613c40613aaa565b5b6000613c4f84828501613c16565b91505092915050565b613c6181613b6a565b82525050565b6000602082019050613c7c6000830184613c58565b92915050565b6000613c8d82613bed565b9050919050565b613c9d81613c82565b8114613ca857600080fd5b50565b600081359050613cba81613c94565b92915050565b600060208284031215613cd657613cd5613aaa565b5b6000613ce484828501613cab565b91505092915050565b6000819050919050565b613d0081613ced565b8114613d0b57600080fd5b50565b600081359050613d1d81613cf7565b92915050565b600060208284031215613d3957613d38613aaa565b5b6000613d4784828501613d0e565b91505092915050565b613d5981613ced565b82525050565b6000602082019050613d746000830184613d50565b92915050565b60008060408385031215613d9157613d90613aaa565b5b6000613d9f85828601613d0e565b9250506020613db085828601613c16565b9150509250929050565b600081519050919050565b600082825260208201905092915050565b6000819050602082019050919050565b613def81613bed565b82525050565b6000613e018383613de6565b60208301905092915050565b6000602082019050919050565b6000613e2582613dba565b613e2f8185613dc5565b9350613e3a83613dd6565b8060005b83811015613e6b578151613e528882613df5565b9750613e5d83613e0d565b925050600181019050613e3e565b5085935050505092915050565b60006020820190508181036000830152613e928184613e1a565b905092915050565b613ea381613bed565b82525050565b6000819050919050565b6000613ece613ec9613ec484613bcd565b613ea9565b613bcd565b9050919050565b6000613ee082613eb3565b9050919050565b6000613ef282613ed5565b9050919050565b613f0281613ee7565b82525050565b600061012082019050613f1e600083018c613c58565b613f2b602083018b613e9a565b613f38604083018a613ef9565b613f456060830189613c58565b613f526080830188613c58565b613f5f60a0830187613c58565b613f6c60c0830186613c58565b613f7960e0830185613c58565b613f87610100830184613c58565b9a9950505050505050505050565b60008060008060808587031215613faf57613fae613aaa565b5b6000613fbd87828801613b8b565b9450506020613fce87828801613b8b565b9350506040613fdf87828801613b8b565b9250506060613ff087828801613cab565b91505092959194509250565b6000806040838503121561401357614012613aaa565b5b600061402185828601613c16565b925050602061403285828601613b8b565b9150509250929050565b600060ff82169050919050565b6140528161403c565b811461405d57600080fd5b50565b60008135905061406f81614049565b92915050565b600080600080600060a0868803121561409157614090613aaa565b5b600061409f88828901613b8b565b95505060206140b088828901613b8b565b94505060406140c188828901613d0e565b93505060606140d288828901614060565b92505060806140e388828901613d0e565b9150509295509295909350565b6000806040838503121561410757614106613aaa565b5b600061411585828601613b8b565b925050602061412685828601613b8b565b9150509250929050565b600081519050919050565b600082825260208201905092915050565b6000819050602082019050919050565b61416581613b6a565b82525050565b61417481613ee7565b82525050565b61012082016000820151614191600085018261415c565b5060208201516141a46020850182613de6565b5060408201516141b7604085018261416b565b5060608201516141ca606085018261415c565b5060808201516141dd608085018261415c565b5060a08201516141f060a085018261415c565b5060c082015161420360c085018261415c565b5060e082015161421660e085018261415c565b5061010082015161422b61010085018261415c565b50505050565b600061423d838361417a565b6101208301905092915050565b6000602082019050919050565b600061426282614130565b61426c818561413b565b93506142778361414c565b8060005b838110156142a857815161428f8882614231565b975061429a8361424a565b92505060018101905061427b565b5085935050505092915050565b600060208201905081810360008301526142cf8184614257565b905092915050565b60008060008060008060c087890312156142f4576142f3613aaa565b5b600061430289828a01613c16565b965050602061431389828a01613b8b565b955050604061432489828a01613c16565b945050606061433589828a01613b8b565b935050608061434689828a01613b8b565b92505060a061435789828a01613b8b565b9150509295509295509295565b6000806040838503121561437b5761437a613aaa565b5b600061438985828601613cab565b925050602061439a85828601613b8b565b9150509250929050565b7f4e487b7100000000000000000000000000000000000000000000000000000000600052603260045260246000fd5b7f4e487b7100000000000000000000000000000000000000000000000000000000600052601160045260246000fd5b600061440d82613b6a565b915061441883613b6a565b925082820261442681613b6a565b9150828204841483151761443d5761443c6143d3565b5b5092915050565b600082825260208201905092915050565b7f4661697246696768743a2057726f6e6720616d6f756e74000000000000000000600082015250565b600061448b601783614444565b915061449682614455565b602082019050919050565b600060208201905081810360008301526144ba8161447e565b9050919050565b7f4661697246696768743a20596f752068617665206f70656e2066696768740000600082015250565b60006144f7601e83614444565b9150614502826144c1565b602082019050919050565b60006020820190508181036000830152614526816144ea565b9050919050565b7f4661697246696768743a2046696768742069732066756c6c0000000000000000600082015250565b6000614563601883614444565b915061456e8261452d565b602082019050919050565b6000602082019050818103600083015261459281614556565b9050919050565b7f4661697246696768743a204669676874206973206f7665720000000000000000600082015250565b60006145cf601883614444565b91506145da82614599565b602082019050919050565b600060208201905081810360008301526145fe816145c2565b9050919050565b600061461082613b6a565b915061461b83613b6a565b9250828203905081811115614633576146326143d3565b5b92915050565b7f4661697246696768743a20596f75277265206e6f742066696768742773206f7760008201527f6e65720000000000000000000000000000000000000000000000000000000000602082015250565b6000614695602383614444565b91506146a082614639565b604082019050919050565b600060208201905081810360008301526146c481614688565b9050919050565b7f4661697246696768743a2046696768742068617320706c617965727300000000600082015250565b6000614701601c83614444565b915061470c826146cb565b602082019050919050565b60006020820190508181036000830152614730816146f4565b9050919050565b600081905092915050565b50565b6000614752600083614737565b915061475d82614742565b600082019050919050565b600061477382614745565b9150819050919050565b7f4661697246696768743a204e6f742073756363657373207061796d656e740000600082015250565b60006147b3601e83614444565b91506147be8261477d565b602082019050919050565b600060208201905081810360008301526147e2816147a6565b9050919050565b7f416363657373436f6e74726f6c3a2063616e206f6e6c792072656e6f756e636560008201527f20726f6c657320666f722073656c660000000000000000000000000000000000602082015250565b6000614845602f83614444565b9150614850826147e9565b604082019050919050565b6000602082019050818103600083015261487481614838565b9050919050565b7f4e487b7100000000000000000000000000000000000000000000000000000000600052604160045260246000fd5b60006148b582613b6a565b91507fffffffffffffffffffffffffffffffffffffffffffffffffffffffffffffffff82036148e7576148e66143d3565b5b600182019050919050565b7f4661697246696768743a204e6f7420616c6c6f776564207061796d656e74207460008201527f7970650000000000000000000000000000000000000000000000000000000000602082015250565b600061494e602383614444565b9150614959826148f2565b604082019050919050565b6000602082019050818103600083015261497d81614941565b9050919050565b7f4661697246696768743a2057726f6e6720726f756e647320616d6f756e740000600082015250565b60006149ba601e83614444565b91506149c582614984565b602082019050919050565b600060208201905081810360008301526149e9816149ad565b9050919050565b7f4661697246696768743a20546f6f206d75636820706c61796572730000000000600082015250565b6000614a26601b83614444565b9150614a31826149f0565b602082019050919050565b60006020820190508181036000830152614a5581614a19565b9050919050565b7f4661697246696768743a20546f6f206c6974746c6520616d6f756e742070657260008201527f20726f756e640000000000000000000000000000000000000000000000000000602082015250565b6000614ab8602683614444565b9150614ac382614a5c565b604082019050919050565b60006020820190508181036000830152614ae781614aab565b9050919050565b7f4661697246696768743a20596f7520646f6e7420686176652061636365737300600082015250565b6000614b24601f83614444565b9150614b2f82614aee565b602082019050919050565b60006020820190508181036000830152614b5381614b17565b9050919050565b7f4661697246696768743a20416c72656164792073656e64656400000000000000600082015250565b6000614b90601983614444565b9150614b9b82614b5a565b602082019050919050565b60006020820190508181036000830152614bbf81614b83565b9050919050565b7f496e76616c696420696e64657800000000000000000000000000000000000000600082015250565b6000614bfc600d83614444565b9150614c0782614bc6565b602082019050919050565b60006020820190508181036000830152614c2b81614bef565b9050919050565b6000614c3d82613b6a565b9150614c4883613b6a565b9250828201905080821115614c6057614c5f6143d3565b5b92915050565b7f496e697469616c697a61626c653a20636f6e747261637420697320616c72656160008201527f647920696e697469616c697a6564000000000000000000000000000000000000602082015250565b6000614cc2602e83614444565b9150614ccd82614c66565b604082019050919050565b60006020820190508181036000830152614cf181614cb5565b9050919050565b6000819050919050565b6000614d1d614d18614d1384614cf8565b613ea9565b61403c565b9050919050565b614d2d81614d02565b82525050565b6000602082019050614d486000830184614d24565b92915050565b7f5061757361626c653a2070617573656400000000000000000000000000000000600082015250565b6000614d84601083614444565b9150614d8f82614d4e565b602082019050919050565b60006020820190508181036000830152614db381614d77565b9050919050565b6000606082019050614dcf6000830186613e9a565b614ddc6020830185613e9a565b614de96040830184613c58565b949350505050565b7f5265656e7472616e637947756172643a207265656e7472616e742063616c6c00600082015250565b6000614e27601f83614444565b9150614e3282614df1565b602082019050919050565b60006020820190508181036000830152614e5681614e1a565b9050919050565b6000604082019050614e726000830185613e9a565b614e7f6020830184613c58565b9392505050565b6000602082019050614e9b6000830184613e9a565b92915050565b6000819050919050565b614ebc614eb782613b6a565b614ea1565b82525050565b60008160601b9050919050565b6000614eda82614ec2565b9050919050565b6000614eec82614ecf565b9050919050565b614f04614eff82613bed565b614ee1565b82525050565b6000614f168288614eab565b602082019150614f268287614eab565b602082019150614f368286614ef3565b601482019150614f468285614ef3565b601482019150614f568284614ef3565b6014820191508190509695505050505050565b600081905092915050565b7f19457468657265756d205369676e6564204d6573736167653a0a333200000000600082015250565b6000614faa601c83614f69565b9150614fb582614f74565b601c82019050919050565b6000819050919050565b614fdb614fd682613ced565b614fc0565b82525050565b6000614fec82614f9d565b9150614ff88284614fca565b60208201915081905092915050565b6150108161403c565b82525050565b600060808201905061502b6000830187613d50565b6150386020830186615007565b6150456040830185613d50565b6150526060830184613d50565b95945050505050565b7f4e487b7100000000000000000000000000000000000000000000000000000000600052601260045260246000fd5b600061509582613b6a565b91506150a083613b6a565b9250826150b0576150af61505b565b5b828204905092915050565b7f496e697469616c697a61626c653a20636f6e7472616374206973206e6f74206960008201527f6e697469616c697a696e67000000000000000000000000000000000000000000602082015250565b6000615117602b83614444565b9150615122826150bb565b604082019050919050565b600060208201905081810360008301526151468161510a565b9050919050565b61515681613b34565b811461516157600080fd5b50565b6000815190506151738161514d565b92915050565b60006020828403121561518f5761518e613aaa565b5b600061519d84828501615164565b91505092915050565b7f5361666545524332303a204552433230206f7065726174696f6e20646964206e60008201527f6f74207375636365656400000000000000000000000000000000000000000000602082015250565b6000615202602a83614444565b915061520d826151a6565b604082019050919050565b60006020820190508181036000830152615231816151f5565b9050919050565b7f416363657373436f6e74726f6c3a206163636f756e7420000000000000000000600082015250565b600061526e601783614f69565b915061527982615238565b601782019050919050565b600081519050919050565b60005b838110156152ad578082015181840152602081019050615292565b60008484015250505050565b60006152c482615284565b6152ce8185614f69565b93506152de81856020860161528f565b80840191505092915050565b7f206973206d697373696e6720726f6c6520000000000000000000000000000000600082015250565b6000615320601183614f69565b915061532b826152ea565b601182019050919050565b600061534182615261565b915061534d82856152b9565b915061535882615313565b915061536482846152b9565b91508190509392505050565b6000601f19601f8301169050919050565b600061538c82615284565b6153968185614444565b93506153a681856020860161528f565b6153af81615370565b840191505092915050565b600060208201905081810360008301526153d48184615381565b905092915050565b7f5061757361626c653a206e6f7420706175736564000000000000000000000000600082015250565b6000615412601483614444565b915061541d826153dc565b602082019050919050565b6000602082019050818103600083015261544181615405565b9050919050565b600061545382613b6a565b915060008203615466576154656143d3565b5b600182039050919050565b7f537472696e67733a20686578206c656e67746820696e73756666696369656e74600082015250565b60006154a7602083614444565b91506154b282615471565b602082019050919050565b600060208201905081810360008301526154d68161549a565b9050919050565b7f416464726573733a20696e73756666696369656e742062616c616e636520666f60008201527f722063616c6c0000000000000000000000000000000000000000000000000000602082015250565b6000615539602683614444565b9150615544826154dd565b604082019050919050565b600060208201905081810360008301526155688161552c565b9050919050565b600081519050919050565b60006155858261556f565b61558f8185614737565b935061559f81856020860161528f565b80840191505092915050565b60006155b7828461557a565b915081905092915050565b7f416464726573733a2063616c6c20746f206e6f6e2d636f6e7472616374000000600082015250565b60006155f8601d83614444565b9150615603826155c2565b602082019050919050565b60006020820190508181036000830152615627816155eb565b905091905056fea26469706673582212206ab0b87b8b5a5da574187609f5509524cbb1a764791abc1b77db31b5c7f879bf64736f6c63430008130033","opcodes":"PUSH1 0x80 PUSH1 0x40 MSTORE CALLVALUE DUP1 ISZERO PUSH3 0x11 JUMPI PUSH1 0x0 DUP1 REVERT JUMPDEST POP PUSH3 0x22 PUSH3 0x28 PUSH1 0x20 SHL PUSH1 0x20 SHR JUMP JUMPDEST PUSH3 0x1D3 JUMP JUMPDEST PUSH1 0x0 PUSH1 0x1 SWAP1 SLOAD SWAP1 PUSH2 0x100 EXP SWAP1 DIV PUSH1 0xFF AND ISZERO PUSH3 0x7B JUMPI PUSH1 0x40 MLOAD PUSH32 0x8C379A000000000000000000000000000000000000000000000000000000000 DUP2 MSTORE PUSH1 0x4 ADD PUSH3 0x72 SWAP1 PUSH3 0x176 JUMP JUMPDEST PUSH1 0x40 MLOAD DUP1 SWAP2 SUB SWAP1 REVERT JUMPDEST PUSH1 0xFF DUP1 AND PUSH1 0x0 DUP1 SLOAD SWAP1 PUSH2 0x100 EXP SWAP1 DIV PUSH1 0xFF AND PUSH1 0xFF AND LT ISZERO PUSH3 0xED JUMPI PUSH1 0xFF PUSH1 0x0 DUP1 PUSH2 0x100 EXP DUP2 SLOAD DUP2 PUSH1 0xFF MUL NOT AND SWAP1 DUP4 PUSH1 0xFF AND MUL OR SWAP1 SSTORE POP PUSH32 0x7F26B83FF96E1F2B6A682F133852F6798A09C465DA95921460CEFB3847402498 PUSH1 0xFF PUSH1 0x40 MLOAD PUSH3 0xE4 SWAP2 SWAP1 PUSH3 0x1B6 JUMP JUMPDEST PUSH1 0x40 MLOAD DUP1 SWAP2 SUB SWAP1 LOG1 JUMPDEST JUMP JUMPDEST PUSH1 0x0 DUP3 DUP3 MSTORE PUSH1 0x20 DUP3 ADD SWAP1 POP SWAP3 SWAP2 POP POP JUMP JUMPDEST PUSH32 0x496E697469616C697A61626C653A20636F6E747261637420697320696E697469 PUSH1 0x0 DUP3 ADD MSTORE PUSH32 0x616C697A696E6700000000000000000000000000000000000000000000000000 PUSH1 0x20 DUP3 ADD MSTORE POP JUMP JUMPDEST PUSH1 0x0 PUSH3 0x15E PUSH1 0x27 DUP4 PUSH3 0xEF JUMP JUMPDEST SWAP2 POP PUSH3 0x16B DUP3 PUSH3 0x100 JUMP JUMPDEST PUSH1 0x40 DUP3 ADD SWAP1 POP SWAP2 SWAP1 POP JUMP JUMPDEST PUSH1 0x0 PUSH1 0x20 DUP3 ADD SWAP1 POP DUP2 DUP2 SUB PUSH1 0x0 DUP4 ADD MSTORE PUSH3 0x191 DUP2 PUSH3 0x14F JUMP JUMPDEST SWAP1 POP SWAP2 SWAP1 POP JUMP JUMPDEST PUSH1 0x0 PUSH1 0xFF DUP3 AND SWAP1 POP SWAP2 SWAP1 POP JUMP JUMPDEST PUSH3 0x1B0 DUP2 PUSH3 0x198 JUMP JUMPDEST DUP3 MSTORE POP POP JUMP JUMPDEST PUSH1 0x0 PUSH1 0x20 DUP3 ADD SWAP1 POP PUSH3 0x1CD PUSH1 0x0 DUP4 ADD DUP5 PUSH3 0x1A5 JUMP JUMPDEST SWAP3 SWAP2 POP POP JUMP JUMPDEST PUSH2 0x5664 DUP1 PUSH3 0x1E3 PUSH1 0x0 CODECOPY PUSH1 0x0 RETURN INVALID PUSH1 0x80 PUSH1 0x40 MSTORE PUSH1 0x4 CALLDATASIZE LT PUSH2 0x1D8 JUMPI PUSH1 0x0 CALLDATALOAD PUSH1 0xE0 SHR DUP1 PUSH4 0x58B7F322 GT PUSH2 0x102 JUMPI DUP1 PUSH4 0x9245290D GT PUSH2 0x95 JUMPI DUP1 PUSH4 0xBD36E983 GT PUSH2 0x64 JUMPI DUP1 PUSH4 0xBD36E983 EQ PUSH2 0x6DE JUMPI DUP1 PUSH4 0xD10171B7 EQ PUSH2 0x71B JUMPI DUP1 PUSH4 0xD547741F EQ PUSH2 0x744 JUMPI DUP1 PUSH4 0xFBC28FD6 EQ PUSH2 0x76D JUMPI PUSH2 0x1D8 JUMP JUMPDEST DUP1 PUSH4 0x9245290D EQ PUSH2 0x624 JUMPI DUP1 PUSH4 0x9C09BFFC EQ PUSH2 0x64D JUMPI DUP1 PUSH4 0xA217FDDF EQ PUSH2 0x68A JUMPI DUP1 PUSH4 0xAAD2B723 EQ PUSH2 0x6B5 JUMPI PUSH2 0x1D8 JUMP JUMPDEST DUP1 PUSH4 0x6A2EAE9F GT PUSH2 0xD1 JUMPI DUP1 PUSH4 0x6A2EAE9F EQ PUSH2 0x56A JUMPI DUP1 PUSH4 0x80D2AC1C EQ PUSH2 0x5A7 JUMPI DUP1 PUSH4 0x8456CB59 EQ PUSH2 0x5D0 JUMPI DUP1 PUSH4 0x91D14854 EQ PUSH2 0x5E7 JUMPI PUSH2 0x1D8 JUMP JUMPDEST DUP1 PUSH4 0x58B7F322 EQ PUSH2 0x4C4 JUMPI DUP1 PUSH4 0x5C975ABB EQ PUSH2 0x4ED JUMPI DUP1 PUSH4 0x60653C44 EQ PUSH2 0x518 JUMPI DUP1 PUSH4 0x6A1DB1BF EQ PUSH2 0x541 JUMPI PUSH2 0x1D8 JUMP JUMPDEST DUP1 PUSH4 0x2F2FF15D GT PUSH2 0x17A JUMPI DUP1 PUSH4 0x4315E723 GT PUSH2 0x149 JUMPI DUP1 PUSH4 0x4315E723 EQ PUSH2 0x3E7 JUMPI DUP1 PUSH4 0x477CDBB5 EQ PUSH2 0x42C JUMPI DUP1 PUSH4 0x4C2412A2 EQ PUSH2 0x45C JUMPI DUP1 PUSH4 0x550B32DA EQ PUSH2 0x487 JUMPI PUSH2 0x1D8 JUMP JUMPDEST DUP1 PUSH4 0x2F2FF15D EQ PUSH2 0x341 JUMPI DUP1 PUSH4 0x36568ABE EQ PUSH2 0x36A JUMPI DUP1 PUSH4 0x3A853019 EQ PUSH2 0x393 JUMPI DUP1 PUSH4 0x3F4BA83A EQ PUSH2 0x3D0 JUMPI PUSH2 0x1D8 JUMP JUMPDEST DUP1 PUSH4 0x144A536A GT PUSH2 0x1B6 JUMPI DUP1 PUSH4 0x144A536A EQ PUSH2 0x273 JUMPI DUP1 PUSH4 0x1FAF969B EQ PUSH2 0x2B0 JUMPI DUP1 PUSH4 0x248A9CA3 EQ PUSH2 0x2DB JUMPI DUP1 PUSH4 0x2E1A7D4D EQ PUSH2 0x318 JUMPI PUSH2 0x1D8 JUMP JUMPDEST DUP1 PUSH4 0x1FFC9A7 EQ PUSH2 0x1DD JUMPI DUP1 PUSH4 0x49878F3 EQ PUSH2 0x21A JUMPI DUP1 PUSH4 0x115ECD94 EQ PUSH2 0x236 JUMPI JUMPDEST PUSH1 0x0 DUP1 REVERT JUMPDEST CALLVALUE DUP1 ISZERO PUSH2 0x1E9 JUMPI PUSH1 0x0 DUP1 REVERT JUMPDEST POP PUSH2 0x204 PUSH1 0x4 DUP1 CALLDATASIZE SUB DUP2 ADD SWAP1 PUSH2 0x1FF SWAP2 SWAP1 PUSH2 0x3B07 JUMP JUMPDEST PUSH2 0x796 JUMP JUMPDEST PUSH1 0x40 MLOAD PUSH2 0x211 SWAP2 SWAP1 PUSH2 0x3B4F JUMP JUMPDEST PUSH1 0x40 MLOAD DUP1 SWAP2 SUB SWAP1 RETURN JUMPDEST PUSH2 0x234 PUSH1 0x4 DUP1 CALLDATASIZE SUB DUP2 ADD SWAP1 PUSH2 0x22F SWAP2 SWAP1 PUSH2 0x3BA0 JUMP JUMPDEST PUSH2 0x810 JUMP JUMPDEST STOP JUMPDEST CALLVALUE DUP1 ISZERO PUSH2 0x242 JUMPI PUSH1 0x0 DUP1 REVERT JUMPDEST POP PUSH2 0x25D PUSH1 0x4 DUP1 CALLDATASIZE SUB DUP2 ADD SWAP1 PUSH2 0x258 SWAP2 SWAP1 PUSH2 0x3C2B JUMP JUMPDEST PUSH2 0xE5D JUMP JUMPDEST PUSH1 0x40 MLOAD PUSH2 0x26A SWAP2 SWAP1 PUSH2 0x3C67 JUMP JUMPDEST PUSH1 0x40 MLOAD DUP1 SWAP2 SUB SWAP1 RETURN JUMPDEST CALLVALUE DUP1 ISZERO PUSH2 0x27F JUMPI PUSH1 0x0 DUP1 REVERT JUMPDEST POP PUSH2 0x29A PUSH1 0x4 DUP1 CALLDATASIZE SUB DUP2 ADD SWAP1 PUSH2 0x295 SWAP2 SWAP1 PUSH2 0x3CC0 JUMP JUMPDEST PUSH2 0xE76 JUMP JUMPDEST PUSH1 0x40 MLOAD PUSH2 0x2A7 SWAP2 SWAP1 PUSH2 0x3C67 JUMP JUMPDEST PUSH1 0x40 MLOAD DUP1 SWAP2 SUB SWAP1 RETURN JUMPDEST CALLVALUE DUP1 ISZERO PUSH2 0x2BC JUMPI PUSH1 0x0 DUP1 REVERT JUMPDEST POP PUSH2 0x2C5 PUSH2 0xE8F JUMP JUMPDEST PUSH1 0x40 MLOAD PUSH2 0x2D2 SWAP2 SWAP1 PUSH2 0x3C67 JUMP JUMPDEST PUSH1 0x40 MLOAD DUP1 SWAP2 SUB SWAP1 RETURN JUMPDEST CALLVALUE DUP1 ISZERO PUSH2 0x2E7 JUMPI PUSH1 0x0 DUP1 REVERT JUMPDEST POP PUSH2 0x302 PUSH1 0x4 DUP1 CALLDATASIZE SUB DUP2 ADD SWAP1 PUSH2 0x2FD SWAP2 SWAP1 PUSH2 0x3D23 JUMP JUMPDEST PUSH2 0xE95 JUMP JUMPDEST PUSH1 0x40 MLOAD PUSH2 0x30F SWAP2 SWAP1 PUSH2 0x3D5F JUMP JUMPDEST PUSH1 0x40 MLOAD DUP1 SWAP2 SUB SWAP1 RETURN JUMPDEST CALLVALUE DUP1 ISZERO PUSH2 0x324 JUMPI PUSH1 0x0 DUP1 REVERT JUMPDEST POP PUSH2 0x33F PUSH1 0x4 DUP1 CALLDATASIZE SUB DUP2 ADD SWAP1 PUSH2 0x33A SWAP2 SWAP1 PUSH2 0x3BA0 JUMP JUMPDEST PUSH2 0xEB5 JUMP JUMPDEST STOP JUMPDEST CALLVALUE DUP1 ISZERO PUSH2 0x34D JUMPI PUSH1 0x0 DUP1 REVERT JUMPDEST POP PUSH2 0x368 PUSH1 0x4 DUP1 CALLDATASIZE SUB DUP2 ADD SWAP1 PUSH2 0x363 SWAP2 SWAP1 PUSH2 0x3D7A JUMP JUMPDEST PUSH2 0x1306 JUMP JUMPDEST STOP JUMPDEST CALLVALUE DUP1 ISZERO PUSH2 0x376 JUMPI PUSH1 0x0 DUP1 REVERT JUMPDEST POP PUSH2 0x391 PUSH1 0x4 DUP1 CALLDATASIZE SUB DUP2 ADD SWAP1 PUSH2 0x38C SWAP2 SWAP1 PUSH2 0x3D7A JUMP JUMPDEST PUSH2 0x1327 JUMP JUMPDEST STOP JUMPDEST CALLVALUE DUP1 ISZERO PUSH2 0x39F JUMPI PUSH1 0x0 DUP1 REVERT JUMPDEST POP PUSH2 0x3BA PUSH1 0x4 DUP1 CALLDATASIZE SUB DUP2 ADD SWAP1 PUSH2 0x3B5 SWAP2 SWAP1 PUSH2 0x3BA0 JUMP JUMPDEST PUSH2 0x13AA JUMP JUMPDEST PUSH1 0x40 MLOAD PUSH2 0x3C7 SWAP2 SWAP1 PUSH2 0x3E78 JUMP JUMPDEST PUSH1 0x40 MLOAD DUP1 SWAP2 SUB SWAP1 RETURN JUMPDEST CALLVALUE DUP1 ISZERO PUSH2 0x3DC JUMPI PUSH1 0x0 DUP1 REVERT JUMPDEST POP PUSH2 0x3E5 PUSH2 0x14DC JUMP JUMPDEST STOP JUMPDEST CALLVALUE DUP1 ISZERO PUSH2 0x3F3 JUMPI PUSH1 0x0 DUP1 REVERT JUMPDEST POP PUSH2 0x40E PUSH1 0x4 DUP1 CALLDATASIZE SUB DUP2 ADD SWAP1 PUSH2 0x409 SWAP2 SWAP1 PUSH2 0x3BA0 JUMP JUMPDEST PUSH2 0x1511 JUMP JUMPDEST PUSH1 0x40 MLOAD PUSH2 0x423 SWAP10 SWAP9 SWAP8 SWAP7 SWAP6 SWAP5 SWAP4 SWAP3 SWAP2 SWAP1 PUSH2 0x3F08 JUMP JUMPDEST PUSH1 0x40 MLOAD DUP1 SWAP2 SUB SWAP1 RETURN JUMPDEST PUSH2 0x446 PUSH1 0x4 DUP1 CALLDATASIZE SUB DUP2 ADD SWAP1 PUSH2 0x441 SWAP2 SWAP1 PUSH2 0x3F95 JUMP JUMPDEST PUSH2 0x15B0 JUMP JUMPDEST PUSH1 0x40 MLOAD PUSH2 0x453 SWAP2 SWAP1 PUSH2 0x3C67 JUMP JUMPDEST PUSH1 0x40 MLOAD DUP1 SWAP2 SUB SWAP1 RETURN JUMPDEST CALLVALUE DUP1 ISZERO PUSH2 0x468 JUMPI PUSH1 0x0 DUP1 REVERT JUMPDEST POP PUSH2 0x471 PUSH2 0x1BA4 JUMP JUMPDEST PUSH1 0x40 MLOAD PUSH2 0x47E SWAP2 SWAP1 PUSH2 0x3C67 JUMP JUMPDEST PUSH1 0x40 MLOAD DUP1 SWAP2 SUB SWAP1 RETURN JUMPDEST CALLVALUE DUP1 ISZERO PUSH2 0x493 JUMPI PUSH1 0x0 DUP1 REVERT JUMPDEST POP PUSH2 0x4AE PUSH1 0x4 DUP1 CALLDATASIZE SUB DUP2 ADD SWAP1 PUSH2 0x4A9 SWAP2 SWAP1 PUSH2 0x3FFC JUMP JUMPDEST PUSH2 0x1BAA JUMP JUMPDEST PUSH1 0x40 MLOAD PUSH2 0x4BB SWAP2 SWAP1 PUSH2 0x3B4F JUMP JUMPDEST PUSH1 0x40 MLOAD DUP1 SWAP2 SUB SWAP1 RETURN JUMPDEST CALLVALUE DUP1 ISZERO PUSH2 0x4D0 JUMPI PUSH1 0x0 DUP1 REVERT JUMPDEST POP PUSH2 0x4EB PUSH1 0x4 DUP1 CALLDATASIZE SUB DUP2 ADD SWAP1 PUSH2 0x4E6 SWAP2 SWAP1 PUSH2 0x4075 JUMP JUMPDEST PUSH2 0x1BDA JUMP JUMPDEST STOP JUMPDEST CALLVALUE DUP1 ISZERO PUSH2 0x4F9 JUMPI PUSH1 0x0 DUP1 REVERT JUMPDEST POP PUSH2 0x502 PUSH2 0x219E JUMP JUMPDEST PUSH1 0x40 MLOAD PUSH2 0x50F SWAP2 SWAP1 PUSH2 0x3B4F JUMP JUMPDEST PUSH1 0x40 MLOAD DUP1 SWAP2 SUB SWAP1 RETURN JUMPDEST CALLVALUE DUP1 ISZERO PUSH2 0x524 JUMPI PUSH1 0x0 DUP1 REVERT JUMPDEST POP PUSH2 0x53F PUSH1 0x4 DUP1 CALLDATASIZE SUB DUP2 ADD SWAP1 PUSH2 0x53A SWAP2 SWAP1 PUSH2 0x3BA0 JUMP JUMPDEST PUSH2 0x21B5 JUMP JUMPDEST STOP JUMPDEST CALLVALUE DUP1 ISZERO PUSH2 0x54D JUMPI PUSH1 0x0 DUP1 REVERT JUMPDEST POP PUSH2 0x568 PUSH1 0x4 DUP1 CALLDATASIZE SUB DUP2 ADD SWAP1 PUSH2 0x563 SWAP2 SWAP1 PUSH2 0x3BA0 JUMP JUMPDEST PUSH2 0x21CD JUMP JUMPDEST STOP JUMPDEST CALLVALUE DUP1 ISZERO PUSH2 0x576 JUMPI PUSH1 0x0 DUP1 REVERT JUMPDEST POP PUSH2 0x591 PUSH1 0x4 DUP1 CALLDATASIZE SUB DUP2 ADD SWAP1 PUSH2 0x58C SWAP2 SWAP1 PUSH2 0x40F0 JUMP JUMPDEST PUSH2 0x21E5 JUMP JUMPDEST PUSH1 0x40 MLOAD PUSH2 0x59E SWAP2 SWAP1 PUSH2 0x42B5 JUMP JUMPDEST PUSH1 0x40 MLOAD DUP1 SWAP2 SUB SWAP1 RETURN JUMPDEST CALLVALUE DUP1 ISZERO PUSH2 0x5B3 JUMPI PUSH1 0x0 DUP1 REVERT JUMPDEST POP PUSH2 0x5CE PUSH1 0x4 DUP1 CALLDATASIZE SUB DUP2 ADD SWAP1 PUSH2 0x5C9 SWAP2 SWAP1 PUSH2 0x42D7 JUMP JUMPDEST PUSH2 0x2444 JUMP JUMPDEST STOP JUMPDEST CALLVALUE DUP1 ISZERO PUSH2 0x5DC JUMPI PUSH1 0x0 DUP1 REVERT JUMPDEST POP PUSH2 0x5E5 PUSH2 0x287F JUMP JUMPDEST STOP JUMPDEST CALLVALUE DUP1 ISZERO PUSH2 0x5F3 JUMPI PUSH1 0x0 DUP1 REVERT JUMPDEST POP PUSH2 0x60E PUSH1 0x4 DUP1 CALLDATASIZE SUB DUP2 ADD SWAP1 PUSH2 0x609 SWAP2 SWAP1 PUSH2 0x3D7A JUMP JUMPDEST PUSH2 0x28B4 JUMP JUMPDEST PUSH1 0x40 MLOAD PUSH2 0x61B SWAP2 SWAP1 PUSH2 0x3B4F JUMP JUMPDEST PUSH1 0x40 MLOAD DUP1 SWAP2 SUB SWAP1 RETURN JUMPDEST CALLVALUE DUP1 ISZERO PUSH2 0x630 JUMPI PUSH1 0x0 DUP1 REVERT JUMPDEST POP PUSH2 0x64B PUSH1 0x4 DUP1 CALLDATASIZE SUB DUP2 ADD SWAP1 PUSH2 0x646 SWAP2 SWAP1 PUSH2 0x3C2B JUMP JUMPDEST PUSH2 0x291F JUMP JUMPDEST STOP JUMPDEST CALLVALUE DUP1 ISZERO PUSH2 0x659 JUMPI PUSH1 0x0 DUP1 REVERT JUMPDEST POP PUSH2 0x674 PUSH1 0x4 DUP1 CALLDATASIZE SUB DUP2 ADD SWAP1 PUSH2 0x66F SWAP2 SWAP1 PUSH2 0x3C2B JUMP JUMPDEST PUSH2 0x2971 JUMP JUMPDEST PUSH1 0x40 MLOAD PUSH2 0x681 SWAP2 SWAP1 PUSH2 0x3B4F JUMP JUMPDEST PUSH1 0x40 MLOAD DUP1 SWAP2 SUB SWAP1 RETURN JUMPDEST CALLVALUE DUP1 ISZERO PUSH2 0x696 JUMPI PUSH1 0x0 DUP1 REVERT JUMPDEST POP PUSH2 0x69F PUSH2 0x2992 JUMP JUMPDEST PUSH1 0x40 MLOAD PUSH2 0x6AC SWAP2 SWAP1 PUSH2 0x3D5F JUMP JUMPDEST PUSH1 0x40 MLOAD DUP1 SWAP2 SUB SWAP1 RETURN JUMPDEST CALLVALUE DUP1 ISZERO PUSH2 0x6C1 JUMPI PUSH1 0x0 DUP1 REVERT JUMPDEST POP PUSH2 0x6DC PUSH1 0x4 DUP1 CALLDATASIZE SUB DUP2 ADD SWAP1 PUSH2 0x6D7 SWAP2 SWAP1 PUSH2 0x3C2B JUMP JUMPDEST PUSH2 0x2999 JUMP JUMPDEST STOP JUMPDEST CALLVALUE DUP1 ISZERO PUSH2 0x6EA JUMPI PUSH1 0x0 DUP1 REVERT JUMPDEST POP PUSH2 0x705 PUSH1 0x4 DUP1 CALLDATASIZE SUB DUP2 ADD SWAP1 PUSH2 0x700 SWAP2 SWAP1 PUSH2 0x3FFC JUMP JUMPDEST PUSH2 0x29EB JUMP JUMPDEST PUSH1 0x40 MLOAD PUSH2 0x712 SWAP2 SWAP1 PUSH2 0x42B5 JUMP JUMPDEST PUSH1 0x40 MLOAD DUP1 SWAP2 SUB SWAP1 RETURN JUMPDEST CALLVALUE DUP1 ISZERO PUSH2 0x727 JUMPI PUSH1 0x0 DUP1 REVERT JUMPDEST POP PUSH2 0x742 PUSH1 0x4 DUP1 CALLDATASIZE SUB DUP2 ADD SWAP1 PUSH2 0x73D SWAP2 SWAP1 PUSH2 0x3BA0 JUMP JUMPDEST PUSH2 0x2C86 JUMP JUMPDEST STOP JUMPDEST CALLVALUE DUP1 ISZERO PUSH2 0x750 JUMPI PUSH1 0x0 DUP1 REVERT JUMPDEST POP PUSH2 0x76B PUSH1 0x4 DUP1 CALLDATASIZE SUB DUP2 ADD SWAP1 PUSH2 0x766 SWAP2 SWAP1 PUSH2 0x3D7A JUMP JUMPDEST PUSH2 0x2C9E JUMP JUMPDEST STOP JUMPDEST CALLVALUE DUP1 ISZERO PUSH2 0x779 JUMPI PUSH1 0x0 DUP1 REVERT JUMPDEST POP PUSH2 0x794 PUSH1 0x4 DUP1 CALLDATASIZE SUB DUP2 ADD SWAP1 PUSH2 0x78F SWAP2 SWAP1 PUSH2 0x4364 JUMP JUMPDEST PUSH2 0x2CBF JUMP JUMPDEST STOP JUMPDEST PUSH1 0x0 PUSH32 0x7965DB0B00000000000000000000000000000000000000000000000000000000 PUSH28 0xFFFFFFFFFFFFFFFFFFFFFFFFFFFFFFFFFFFFFFFFFFFFFFFFFFFFFFFF NOT AND DUP3 PUSH28 0xFFFFFFFFFFFFFFFFFFFFFFFFFFFFFFFFFFFFFFFFFFFFFFFFFFFFFFFF NOT AND EQ DUP1 PUSH2 0x809 JUMPI POP PUSH2 0x808 DUP3 PUSH2 0x2D16 JUMP JUMPDEST JUMPDEST SWAP1 POP SWAP2 SWAP1 POP JUMP JUMPDEST PUSH2 0x818 PUSH2 0x2D80 JUMP JUMPDEST PUSH1 0x0 PUSH2 0x106 DUP3 DUP2 SLOAD DUP2 LT PUSH2 0x82F JUMPI PUSH2 0x82E PUSH2 0x43A4 JUMP JUMPDEST JUMPDEST SWAP1 PUSH1 0x0 MSTORE PUSH1 0x20 PUSH1 0x0 KECCAK256 SWAP1 PUSH1 0x9 MUL ADD PUSH1 0x40 MLOAD DUP1 PUSH2 0x120 ADD PUSH1 0x40 MSTORE SWAP1 DUP2 PUSH1 0x0 DUP3 ADD SLOAD DUP2 MSTORE PUSH1 0x20 ADD PUSH1 0x1 DUP3 ADD PUSH1 0x0 SWAP1 SLOAD SWAP1 PUSH2 0x100 EXP SWAP1 DIV PUSH20 0xFFFFFFFFFFFFFFFFFFFFFFFFFFFFFFFFFFFFFFFF AND PUSH20 0xFFFFFFFFFFFFFFFFFFFFFFFFFFFFFFFFFFFFFFFF AND PUSH20 0xFFFFFFFFFFFFFFFFFFFFFFFFFFFFFFFFFFFFFFFF AND DUP2 MSTORE PUSH1 0x20 ADD PUSH1 0x2 DUP3 ADD PUSH1 0x0 SWAP1 SLOAD SWAP1 PUSH2 0x100 EXP SWAP1 DIV PUSH20 0xFFFFFFFFFFFFFFFFFFFFFFFFFFFFFFFFFFFFFFFF AND PUSH20 0xFFFFFFFFFFFFFFFFFFFFFFFFFFFFFFFFFFFFFFFF AND PUSH20 0xFFFFFFFFFFFFFFFFFFFFFFFFFFFFFFFFFFFFFFFF AND DUP2 MSTORE PUSH1 0x20 ADD PUSH1 0x3 DUP3 ADD SLOAD DUP2 MSTORE PUSH1 0x20 ADD PUSH1 0x4 DUP3 ADD SLOAD DUP2 MSTORE PUSH1 0x20 ADD PUSH1 0x5 DUP3 ADD SLOAD DUP2 MSTORE PUSH1 0x20 ADD PUSH1 0x6 DUP3 ADD SLOAD DUP2 MSTORE PUSH1 0x20 ADD PUSH1 0x7 DUP3 ADD SLOAD DUP2 MSTORE PUSH1 0x20 ADD PUSH1 0x8 DUP3 ADD SLOAD DUP2 MSTORE POP POP SWAP1 POP PUSH1 0x0 PUSH20 0xFFFFFFFFFFFFFFFFFFFFFFFFFFFFFFFFFFFFFFFF AND DUP2 PUSH1 0x40 ADD MLOAD PUSH20 0xFFFFFFFFFFFFFFFFFFFFFFFFFFFFFFFFFFFFFFFF AND SUB PUSH2 0x9CF JUMPI DUP1 PUSH1 0xC0 ADD MLOAD DUP2 PUSH1 0xE0 ADD MLOAD PUSH2 0x989 SWAP2 SWAP1 PUSH2 0x4402 JUMP JUMPDEST CALLVALUE EQ PUSH2 0x9CA JUMPI PUSH1 0x40 MLOAD PUSH32 0x8C379A000000000000000000000000000000000000000000000000000000000 DUP2 MSTORE PUSH1 0x4 ADD PUSH2 0x9C1 SWAP1 PUSH2 0x44A1 JUMP JUMPDEST PUSH1 0x40 MLOAD DUP1 SWAP2 SUB SWAP1 REVERT JUMPDEST PUSH2 0xA14 JUMP JUMPDEST PUSH2 0xA13 CALLER ADDRESS DUP4 PUSH1 0xC0 ADD MLOAD DUP5 PUSH1 0xE0 ADD MLOAD PUSH2 0x9E8 SWAP2 SWAP1 PUSH2 0x4402 JUMP JUMPDEST DUP5 PUSH1 0x40 ADD MLOAD PUSH20 0xFFFFFFFFFFFFFFFFFFFFFFFFFFFFFFFFFFFFFFFF AND PUSH2 0x2DCA SWAP1 SWAP4 SWAP3 SWAP2 SWAP1 PUSH4 0xFFFFFFFF AND JUMP JUMPDEST JUMPDEST PUSH2 0x103 PUSH1 0x0 CALLER PUSH20 0xFFFFFFFFFFFFFFFFFFFFFFFFFFFFFFFFFFFFFFFF AND PUSH20 0xFFFFFFFFFFFFFFFFFFFFFFFFFFFFFFFFFFFFFFFF AND DUP2 MSTORE PUSH1 0x20 ADD SWAP1 DUP2 MSTORE PUSH1 0x20 ADD PUSH1 0x0 KECCAK256 PUSH1 0x0 SWAP1 SLOAD SWAP1 PUSH2 0x100 EXP SWAP1 DIV PUSH1 0xFF AND ISZERO PUSH2 0xAA2 JUMPI PUSH1 0x40 MLOAD PUSH32 0x8C379A000000000000000000000000000000000000000000000000000000000 DUP2 MSTORE PUSH1 0x4 ADD PUSH2 0xA99 SWAP1 PUSH2 0x450D JUMP JUMPDEST PUSH1 0x40 MLOAD DUP1 SWAP2 SUB SWAP1 REVERT JUMPDEST DUP1 PUSH2 0x100 ADD MLOAD PUSH2 0x105 PUSH1 0x0 DUP5 DUP2 MSTORE PUSH1 0x20 ADD SWAP1 DUP2 MSTORE PUSH1 0x20 ADD PUSH1 0x0 KECCAK256 DUP1 SLOAD SWAP1 POP LT PUSH2 0xB00 JUMPI PUSH1 0x40 MLOAD PUSH32 0x8C379A000000000000000000000000000000000000000000000000000000000 DUP2 MSTORE PUSH1 0x4 ADD PUSH2 0xAF7 SWAP1 PUSH2 0x4579 JUMP JUMPDEST PUSH1 0x40 MLOAD DUP1 SWAP2 SUB SWAP1 REVERT JUMPDEST PUSH1 0x0 DUP2 PUSH1 0xA0 ADD MLOAD EQ PUSH2 0xB47 JUMPI PUSH1 0x40 MLOAD PUSH32 0x8C379A000000000000000000000000000000000000000000000000000000000 DUP2 MSTORE PUSH1 0x4 ADD PUSH2 0xB3E SWAP1 PUSH2 0x45E5 JUMP JUMPDEST PUSH1 0x40 MLOAD DUP1 SWAP2 SUB SWAP1 REVERT JUMPDEST PUSH2 0x105 PUSH1 0x0 DUP4 DUP2 MSTORE PUSH1 0x20 ADD SWAP1 DUP2 MSTORE PUSH1 0x20 ADD PUSH1 0x0 KECCAK256 CALLER SWAP1 DUP1 PUSH1 0x1 DUP2 SLOAD ADD DUP1 DUP3 SSTORE DUP1 SWAP2 POP POP PUSH1 0x1 SWAP1 SUB SWAP1 PUSH1 0x0 MSTORE PUSH1 0x20 PUSH1 0x0 KECCAK256 ADD PUSH1 0x0 SWAP1 SWAP2 SWAP1 SWAP2 SWAP1 SWAP2 PUSH2 0x100 EXP DUP2 SLOAD DUP2 PUSH20 0xFFFFFFFFFFFFFFFFFFFFFFFFFFFFFFFFFFFFFFFF MUL NOT AND SWAP1 DUP4 PUSH20 0xFFFFFFFFFFFFFFFFFFFFFFFFFFFFFFFFFFFFFFFF AND MUL OR SWAP1 SSTORE POP PUSH1 0x1 PUSH2 0x103 PUSH1 0x0 CALLER PUSH20 0xFFFFFFFFFFFFFFFFFFFFFFFFFFFFFFFFFFFFFFFF AND PUSH20 0xFFFFFFFFFFFFFFFFFFFFFFFFFFFFFFFFFFFFFFFF AND DUP2 MSTORE PUSH1 0x20 ADD SWAP1 DUP2 MSTORE PUSH1 0x20 ADD PUSH1 0x0 KECCAK256 PUSH1 0x0 PUSH2 0x100 EXP DUP2 SLOAD DUP2 PUSH1 0xFF MUL NOT AND SWAP1 DUP4 ISZERO ISZERO MUL OR SWAP1 SSTORE POP PUSH1 0x0 PUSH2 0x101 PUSH1 0x0 DUP4 PUSH1 0x20 ADD MLOAD PUSH20 0xFFFFFFFFFFFFFFFFFFFFFFFFFFFFFFFFFFFFFFFF AND PUSH20 0xFFFFFFFFFFFFFFFFFFFFFFFFFFFFFFFFFFFFFFFF AND DUP2 MSTORE PUSH1 0x20 ADD SWAP1 DUP2 MSTORE PUSH1 0x20 ADD PUSH1 0x0 KECCAK256 DUP1 SLOAD SWAP1 POP SWAP1 POP PUSH1 0x0 DUP2 EQ DUP1 PUSH2 0xCDC JUMPI POP DUP3 PUSH2 0x101 PUSH1 0x0 DUP5 PUSH1 0x20 ADD MLOAD PUSH20 0xFFFFFFFFFFFFFFFFFFFFFFFFFFFFFFFFFFFFFFFF AND PUSH20 0xFFFFFFFFFFFFFFFFFFFFFFFFFFFFFFFFFFFFFFFF AND DUP2 MSTORE PUSH1 0x20 ADD SWAP1 DUP2 MSTORE PUSH1 0x20 ADD PUSH1 0x0 KECCAK256 PUSH1 0x1 DUP4 PUSH2 0xCBD SWAP2 SWAP1 PUSH2 0x4605 JUMP JUMPDEST DUP2 SLOAD DUP2 LT PUSH2 0xCCE JUMPI PUSH2 0xCCD PUSH2 0x43A4 JUMP JUMPDEST JUMPDEST SWAP1 PUSH1 0x0 MSTORE PUSH1 0x20 PUSH1 0x0 KECCAK256 ADD SLOAD EQ ISZERO JUMPDEST ISZERO PUSH2 0xD4D JUMPI PUSH2 0x101 PUSH1 0x0 DUP4 PUSH1 0x20 ADD MLOAD PUSH20 0xFFFFFFFFFFFFFFFFFFFFFFFFFFFFFFFFFFFFFFFF AND PUSH20 0xFFFFFFFFFFFFFFFFFFFFFFFFFFFFFFFFFFFFFFFF AND DUP2 MSTORE PUSH1 0x20 ADD SWAP1 DUP2 MSTORE PUSH1 0x20 ADD PUSH1 0x0 KECCAK256 DUP4 SWAP1 DUP1 PUSH1 0x1 DUP2 SLOAD ADD DUP1 DUP3 SSTORE DUP1 SWAP2 POP POP PUSH1 0x1 SWAP1 SUB SWAP1 PUSH1 0x0 MSTORE PUSH1 0x20 PUSH1 0x0 KECCAK256 ADD PUSH1 0x0 SWAP1 SWAP2 SWAP1 SWAP2 SWAP1 SWAP2 POP SSTORE JUMPDEST PUSH2 0x101 PUSH1 0x0 CALLER PUSH20 0xFFFFFFFFFFFFFFFFFFFFFFFFFFFFFFFFFFFFFFFF AND PUSH20 0xFFFFFFFFFFFFFFFFFFFFFFFFFFFFFFFFFFFFFFFF AND DUP2 MSTORE PUSH1 0x20 ADD SWAP1 DUP2 MSTORE PUSH1 0x20 ADD PUSH1 0x0 KECCAK256 DUP4 SWAP1 DUP1 PUSH1 0x1 DUP2 SLOAD ADD DUP1 DUP3 SSTORE DUP1 SWAP2 POP POP PUSH1 0x1 SWAP1 SUB SWAP1 PUSH1 0x0 MSTORE PUSH1 0x20 PUSH1 0x0 KECCAK256 ADD PUSH1 0x0 SWAP1 SWAP2 SWAP1 SWAP2 SWAP1 SWAP2 POP SSTORE DUP3 PUSH2 0x102 PUSH1 0x0 CALLER PUSH20 0xFFFFFFFFFFFFFFFFFFFFFFFFFFFFFFFFFFFFFFFF AND PUSH20 0xFFFFFFFFFFFFFFFFFFFFFFFFFFFFFFFFFFFFFFFF AND DUP2 MSTORE PUSH1 0x20 ADD SWAP1 DUP2 MSTORE PUSH1 0x20 ADD PUSH1 0x0 KECCAK256 DUP2 SWAP1 SSTORE POP DUP2 PUSH1 0x40 ADD MLOAD PUSH20 0xFFFFFFFFFFFFFFFFFFFFFFFFFFFFFFFFFFFFFFFF AND CALLER PUSH20 0xFFFFFFFFFFFFFFFFFFFFFFFFFFFFFFFFFFFFFFFF AND DUP5 PUSH32 0x9B3160BFEF087EB6931B26DE3095D081950AAEBE0786A5103070769B3BD76E31 PUSH1 0x40 MLOAD PUSH1 0x40 MLOAD DUP1 SWAP2 SUB SWAP1 LOG4 POP POP POP JUMP JUMPDEST PUSH2 0x102 PUSH1 0x20 MSTORE DUP1 PUSH1 0x0 MSTORE PUSH1 0x40 PUSH1 0x0 KECCAK256 PUSH1 0x0 SWAP2 POP SWAP1 POP SLOAD DUP2 JUMP JUMPDEST PUSH2 0x100 PUSH1 0x20 MSTORE DUP1 PUSH1 0x0 MSTORE PUSH1 0x40 PUSH1 0x0 KECCAK256 PUSH1 0x0 SWAP2 POP SWAP1 POP SLOAD DUP2 JUMP JUMPDEST PUSH1 0xFF SLOAD DUP2 JUMP JUMPDEST PUSH1 0x0 PUSH1 0x97 PUSH1 0x0 DUP4 DUP2 MSTORE PUSH1 0x20 ADD SWAP1 DUP2 MSTORE PUSH1 0x20 ADD PUSH1 0x0 KECCAK256 PUSH1 0x1 ADD SLOAD SWAP1 POP SWAP2 SWAP1 POP JUMP JUMPDEST PUSH2 0xEBD PUSH2 0x2E53 JUMP JUMPDEST PUSH1 0x0 PUSH2 0x106 DUP3 DUP2 SLOAD DUP2 LT PUSH2 0xED4 JUMPI PUSH2 0xED3 PUSH2 0x43A4 JUMP JUMPDEST JUMPDEST SWAP1 PUSH1 0x0 MSTORE PUSH1 0x20 PUSH1 0x0 KECCAK256 SWAP1 PUSH1 0x9 MUL ADD PUSH1 0x40 MLOAD DUP1 PUSH2 0x120 ADD PUSH1 0x40 MSTORE SWAP1 DUP2 PUSH1 0x0 DUP3 ADD SLOAD DUP2 MSTORE PUSH1 0x20 ADD PUSH1 0x1 DUP3 ADD PUSH1 0x0 SWAP1 SLOAD SWAP1 PUSH2 0x100 EXP SWAP1 DIV PUSH20 0xFFFFFFFFFFFFFFFFFFFFFFFFFFFFFFFFFFFFFFFF AND PUSH20 0xFFFFFFFFFFFFFFFFFFFFFFFFFFFFFFFFFFFFFFFF AND PUSH20 0xFFFFFFFFFFFFFFFFFFFFFFFFFFFFFFFFFFFFFFFF AND DUP2 MSTORE PUSH1 0x20 ADD PUSH1 0x2 DUP3 ADD PUSH1 0x0 SWAP1 SLOAD SWAP1 PUSH2 0x100 EXP SWAP1 DIV PUSH20 0xFFFFFFFFFFFFFFFFFFFFFFFFFFFFFFFFFFFFFFFF AND PUSH20 0xFFFFFFFFFFFFFFFFFFFFFFFFFFFFFFFFFFFFFFFF AND PUSH20 0xFFFFFFFFFFFFFFFFFFFFFFFFFFFFFFFFFFFFFFFF AND DUP2 MSTORE PUSH1 0x20 ADD PUSH1 0x3 DUP3 ADD SLOAD DUP2 MSTORE PUSH1 0x20 ADD PUSH1 0x4 DUP3 ADD SLOAD DUP2 MSTORE PUSH1 0x20 ADD PUSH1 0x5 DUP3 ADD SLOAD DUP2 MSTORE PUSH1 0x20 ADD PUSH1 0x6 DUP3 ADD SLOAD DUP2 MSTORE PUSH1 0x20 ADD PUSH1 0x7 DUP3 ADD SLOAD DUP2 MSTORE PUSH1 0x20 ADD PUSH1 0x8 DUP3 ADD SLOAD DUP2 MSTORE POP POP SWAP1 POP CALLER PUSH20 0xFFFFFFFFFFFFFFFFFFFFFFFFFFFFFFFFFFFFFFFF AND DUP2 PUSH1 0x20 ADD MLOAD PUSH20 0xFFFFFFFFFFFFFFFFFFFFFFFFFFFFFFFFFFFFFFFF AND EQ PUSH2 0x1054 JUMPI PUSH1 0x40 MLOAD PUSH32 0x8C379A000000000000000000000000000000000000000000000000000000000 DUP2 MSTORE PUSH1 0x4 ADD PUSH2 0x104B SWAP1 PUSH2 0x46AB JUMP JUMPDEST PUSH1 0x40 MLOAD DUP1 SWAP2 SUB SWAP1 REVERT JUMPDEST PUSH1 0x0 DUP2 PUSH1 0xA0 ADD MLOAD EQ PUSH2 0x109B JUMPI PUSH1 0x40 MLOAD PUSH32 0x8C379A000000000000000000000000000000000000000000000000000000000 DUP2 MSTORE PUSH1 0x4 ADD PUSH2 0x1092 SWAP1 PUSH2 0x45E5 JUMP JUMPDEST PUSH1 0x40 MLOAD DUP1 SWAP2 SUB SWAP1 REVERT JUMPDEST PUSH1 0x1 PUSH2 0x105 PUSH1 0x0 DUP5 DUP2 MSTORE PUSH1 0x20 ADD SWAP1 DUP2 MSTORE PUSH1 0x20 ADD PUSH1 0x0 KECCAK256 DUP1 SLOAD SWAP1 POP EQ PUSH2 0x10F5 JUMPI PUSH1 0x40 MLOAD PUSH32 0x8C379A000000000000000000000000000000000000000000000000000000000 DUP2 MSTORE PUSH1 0x4 ADD PUSH2 0x10EC SWAP1 PUSH2 0x4717 JUMP JUMPDEST PUSH1 0x40 MLOAD DUP1 SWAP2 SUB SWAP1 REVERT JUMPDEST TIMESTAMP PUSH2 0x106 DUP4 DUP2 SLOAD DUP2 LT PUSH2 0x110B JUMPI PUSH2 0x110A PUSH2 0x43A4 JUMP JUMPDEST JUMPDEST SWAP1 PUSH1 0x0 MSTORE PUSH1 0x20 PUSH1 0x0 KECCAK256 SWAP1 PUSH1 0x9 MUL ADD PUSH1 0x5 ADD DUP2 SWAP1 SSTORE POP PUSH1 0x0 PUSH2 0x103 PUSH1 0x0 CALLER PUSH20 0xFFFFFFFFFFFFFFFFFFFFFFFFFFFFFFFFFFFFFFFF AND PUSH20 0xFFFFFFFFFFFFFFFFFFFFFFFFFFFFFFFFFFFFFFFF AND DUP2 MSTORE PUSH1 0x20 ADD SWAP1 DUP2 MSTORE PUSH1 0x20 ADD PUSH1 0x0 KECCAK256 PUSH1 0x0 PUSH2 0x100 EXP DUP2 SLOAD DUP2 PUSH1 0xFF MUL NOT AND SWAP1 DUP4 ISZERO ISZERO MUL OR SWAP1 SSTORE POP PUSH1 0x0 PUSH20 0xFFFFFFFFFFFFFFFFFFFFFFFFFFFFFFFFFFFFFFFF AND DUP2 PUSH1 0x40 ADD MLOAD PUSH20 0xFFFFFFFFFFFFFFFFFFFFFFFFFFFFFFFFFFFFFFFF AND SUB PUSH2 0x1267 JUMPI PUSH1 0x0 CALLER PUSH20 0xFFFFFFFFFFFFFFFFFFFFFFFFFFFFFFFFFFFFFFFF AND DUP3 PUSH1 0x60 ADD MLOAD PUSH1 0x40 MLOAD PUSH2 0x11DB SWAP1 PUSH2 0x4768 JUMP JUMPDEST PUSH1 0x0 PUSH1 0x40 MLOAD DUP1 DUP4 SUB DUP2 DUP6 DUP8 GAS CALL SWAP3 POP POP POP RETURNDATASIZE DUP1 PUSH1 0x0 DUP2 EQ PUSH2 0x1218 JUMPI PUSH1 0x40 MLOAD SWAP2 POP PUSH1 0x1F NOT PUSH1 0x3F RETURNDATASIZE ADD AND DUP3 ADD PUSH1 0x40 MSTORE RETURNDATASIZE DUP3 MSTORE RETURNDATASIZE PUSH1 0x0 PUSH1 0x20 DUP5 ADD RETURNDATACOPY PUSH2 0x121D JUMP JUMPDEST PUSH1 0x60 SWAP2 POP JUMPDEST POP POP SWAP1 POP DUP1 PUSH2 0x1261 JUMPI PUSH1 0x40 MLOAD PUSH32 0x8C379A000000000000000000000000000000000000000000000000000000000 DUP2 MSTORE PUSH1 0x4 ADD PUSH2 0x1258 SWAP1 PUSH2 0x47C9 JUMP JUMPDEST PUSH1 0x40 MLOAD DUP1 SWAP2 SUB SWAP1 REVERT JUMPDEST POP PUSH2 0x129B JUMP JUMPDEST PUSH2 0x129A CALLER DUP3 PUSH1 0x60 ADD MLOAD DUP4 PUSH1 0x40 ADD MLOAD PUSH20 0xFFFFFFFFFFFFFFFFFFFFFFFFFFFFFFFFFFFFFFFF AND PUSH2 0x2EA2 SWAP1 SWAP3 SWAP2 SWAP1 PUSH4 0xFFFFFFFF AND JUMP JUMPDEST JUMPDEST DUP1 PUSH1 0x40 ADD MLOAD PUSH20 0xFFFFFFFFFFFFFFFFFFFFFFFFFFFFFFFFFFFFFFFF AND CALLER PUSH20 0xFFFFFFFFFFFFFFFFFFFFFFFFFFFFFFFFFFFFFFFF AND DUP4 PUSH32 0xA51BB7C2C2049AB09FBFF5561211A4EE34B3B4CEE74C42F1BCE5461CD4EF3F8D PUSH1 0x40 MLOAD PUSH1 0x40 MLOAD DUP1 SWAP2 SUB SWAP1 LOG4 POP PUSH2 0x1303 PUSH2 0x2F28 JUMP JUMPDEST POP JUMP JUMPDEST PUSH2 0x130F DUP3 PUSH2 0xE95 JUMP JUMPDEST PUSH2 0x1318 DUP2 PUSH2 0x2F32 JUMP JUMPDEST PUSH2 0x1322 DUP4 DUP4 PUSH2 0x2F46 JUMP JUMPDEST POP POP POP JUMP JUMPDEST PUSH2 0x132F PUSH2 0x3027 JUMP JUMPDEST PUSH20 0xFFFFFFFFFFFFFFFFFFFFFFFFFFFFFFFFFFFFFFFF AND DUP2 PUSH20 0xFFFFFFFFFFFFFFFFFFFFFFFFFFFFFFFFFFFFFFFF AND EQ PUSH2 0x139C JUMPI PUSH1 0x40 MLOAD PUSH32 0x8C379A000000000000000000000000000000000000000000000000000000000 DUP2 MSTORE PUSH1 0x4 ADD PUSH2 0x1393 SWAP1 PUSH2 0x485B JUMP JUMPDEST PUSH1 0x40 MLOAD DUP1 SWAP2 SUB SWAP1 REVERT JUMPDEST PUSH2 0x13A6 DUP3 DUP3 PUSH2 0x302F JUMP JUMPDEST POP POP JUMP JUMPDEST PUSH1 0x60 PUSH1 0x0 PUSH2 0x105 PUSH1 0x0 DUP5 DUP2 MSTORE PUSH1 0x20 ADD SWAP1 DUP2 MSTORE PUSH1 0x20 ADD PUSH1 0x0 KECCAK256 DUP1 SLOAD SWAP1 POP SWAP1 POP PUSH1 0x0 DUP2 PUSH8 0xFFFFFFFFFFFFFFFF DUP2 GT ISZERO PUSH2 0x13E4 JUMPI PUSH2 0x13E3 PUSH2 0x487B JUMP JUMPDEST JUMPDEST PUSH1 0x40 MLOAD SWAP1 DUP1 DUP3 MSTORE DUP1 PUSH1 0x20 MUL PUSH1 0x20 ADD DUP3 ADD PUSH1 0x40 MSTORE DUP1 ISZERO PUSH2 0x1412 JUMPI DUP2 PUSH1 0x20 ADD PUSH1 0x20 DUP3 MUL DUP1 CALLDATASIZE DUP4 CALLDATACOPY DUP1 DUP3 ADD SWAP2 POP POP SWAP1 POP JUMPDEST POP SWAP1 POP PUSH1 0x0 JUMPDEST DUP3 DUP2 LT ISZERO PUSH2 0x14D1 JUMPI PUSH2 0x105 PUSH1 0x0 DUP7 DUP2 MSTORE PUSH1 0x20 ADD SWAP1 DUP2 MSTORE PUSH1 0x20 ADD PUSH1 0x0 KECCAK256 DUP2 DUP2 SLOAD DUP2 LT PUSH2 0x1446 JUMPI PUSH2 0x1445 PUSH2 0x43A4 JUMP JUMPDEST JUMPDEST SWAP1 PUSH1 0x0 MSTORE PUSH1 0x20 PUSH1 0x0 KECCAK256 ADD PUSH1 0x0 SWAP1 SLOAD SWAP1 PUSH2 0x100 EXP SWAP1 DIV PUSH20 0xFFFFFFFFFFFFFFFFFFFFFFFFFFFFFFFFFFFFFFFF AND DUP3 DUP3 DUP2 MLOAD DUP2 LT PUSH2 0x1484 JUMPI PUSH2 0x1483 PUSH2 0x43A4 JUMP JUMPDEST JUMPDEST PUSH1 0x20 MUL PUSH1 0x20 ADD ADD SWAP1 PUSH20 0xFFFFFFFFFFFFFFFFFFFFFFFFFFFFFFFFFFFFFFFF AND SWAP1 DUP2 PUSH20 0xFFFFFFFFFFFFFFFFFFFFFFFFFFFFFFFFFFFFFFFF AND DUP2 MSTORE POP POP DUP1 DUP1 PUSH2 0x14C9 SWAP1 PUSH2 0x48AA JUMP JUMPDEST SWAP2 POP POP PUSH2 0x1418 JUMP JUMPDEST POP DUP1 SWAP3 POP POP POP SWAP2 SWAP1 POP JUMP JUMPDEST PUSH32 0x65D7A28E3265B37A6474929F336521B332C1681B933F6CB9F3376673440D862A PUSH2 0x1506 DUP2 PUSH2 0x2F32 JUMP JUMPDEST PUSH2 0x150E PUSH2 0x3111 JUMP JUMPDEST POP JUMP JUMPDEST PUSH2 0x106 DUP2 DUP2 SLOAD DUP2 LT PUSH2 0x1522 JUMPI PUSH1 0x0 DUP1 REVERT JUMPDEST SWAP1 PUSH1 0x0 MSTORE PUSH1 0x20 PUSH1 0x0 KECCAK256 SWAP1 PUSH1 0x9 MUL ADD PUSH1 0x0 SWAP2 POP SWAP1 POP DUP1 PUSH1 0x0 ADD SLOAD SWAP1 DUP1 PUSH1 0x1 ADD PUSH1 0x0 SWAP1 SLOAD SWAP1 PUSH2 0x100 EXP SWAP1 DIV PUSH20 0xFFFFFFFFFFFFFFFFFFFFFFFFFFFFFFFFFFFFFFFF AND SWAP1 DUP1 PUSH1 0x2 ADD PUSH1 0x0 SWAP1 SLOAD SWAP1 PUSH2 0x100 EXP SWAP1 DIV PUSH20 0xFFFFFFFFFFFFFFFFFFFFFFFFFFFFFFFFFFFFFFFF AND SWAP1 DUP1 PUSH1 0x3 ADD SLOAD SWAP1 DUP1 PUSH1 0x4 ADD SLOAD SWAP1 DUP1 PUSH1 0x5 ADD SLOAD SWAP1 DUP1 PUSH1 0x6 ADD SLOAD SWAP1 DUP1 PUSH1 0x7 ADD SLOAD SWAP1 DUP1 PUSH1 0x8 ADD SLOAD SWAP1 POP DUP10 JUMP JUMPDEST PUSH1 0x0 PUSH2 0x15BA PUSH2 0x2D80 JUMP JUMPDEST PUSH1 0x0 PUSH2 0x100 PUSH1 0x0 DUP5 PUSH20 0xFFFFFFFFFFFFFFFFFFFFFFFFFFFFFFFFFFFFFFFF AND PUSH20 0xFFFFFFFFFFFFFFFFFFFFFFFFFFFFFFFFFFFFFFFF AND DUP2 MSTORE PUSH1 0x20 ADD SWAP1 DUP2 MSTORE PUSH1 0x20 ADD PUSH1 0x0 KECCAK256 SLOAD SUB PUSH2 0x163D JUMPI PUSH1 0x40 MLOAD PUSH32 0x8C379A000000000000000000000000000000000000000000000000000000000 DUP2 MSTORE PUSH1 0x4 ADD PUSH2 0x1634 SWAP1 PUSH2 0x4964 JUMP JUMPDEST PUSH1 0x40 MLOAD DUP1 SWAP2 SUB SWAP1 REVERT JUMPDEST PUSH2 0x103 PUSH1 0x0 CALLER PUSH20 0xFFFFFFFFFFFFFFFFFFFFFFFFFFFFFFFFFFFFFFFF AND PUSH20 0xFFFFFFFFFFFFFFFFFFFFFFFFFFFFFFFFFFFFFFFF AND DUP2 MSTORE PUSH1 0x20 ADD SWAP1 DUP2 MSTORE PUSH1 0x20 ADD PUSH1 0x0 KECCAK256 PUSH1 0x0 SWAP1 SLOAD SWAP1 PUSH2 0x100 EXP SWAP1 DIV PUSH1 0xFF AND ISZERO PUSH2 0x16CB JUMPI PUSH1 0x40 MLOAD PUSH32 0x8C379A000000000000000000000000000000000000000000000000000000000 DUP2 MSTORE PUSH1 0x4 ADD PUSH2 0x16C2 SWAP1 PUSH2 0x450D JUMP JUMPDEST PUSH1 0x40 MLOAD DUP1 SWAP2 SUB SWAP1 REVERT JUMPDEST PUSH1 0x0 DUP5 EQ ISZERO DUP1 ISZERO PUSH2 0x16DE JUMPI POP PUSH1 0xFF SLOAD DUP5 GT ISZERO JUMPDEST PUSH2 0x171D JUMPI PUSH1 0x40 MLOAD PUSH32 0x8C379A000000000000000000000000000000000000000000000000000000000 DUP2 MSTORE PUSH1 0x4 ADD PUSH2 0x1714 SWAP1 PUSH2 0x49D0 JUMP JUMPDEST PUSH1 0x40 MLOAD DUP1 SWAP2 SUB SWAP1 REVERT JUMPDEST PUSH1 0xFE SLOAD DUP4 GT ISZERO PUSH2 0x1762 JUMPI PUSH1 0x40 MLOAD PUSH32 0x8C379A000000000000000000000000000000000000000000000000000000000 DUP2 MSTORE PUSH1 0x4 ADD PUSH2 0x1759 SWAP1 PUSH2 0x4A3C JUMP JUMPDEST PUSH1 0x40 MLOAD DUP1 SWAP2 SUB SWAP1 REVERT JUMPDEST PUSH2 0x100 PUSH1 0x0 DUP4 PUSH20 0xFFFFFFFFFFFFFFFFFFFFFFFFFFFFFFFFFFFFFFFF AND PUSH20 0xFFFFFFFFFFFFFFFFFFFFFFFFFFFFFFFFFFFFFFFF AND DUP2 MSTORE PUSH1 0x20 ADD SWAP1 DUP2 MSTORE PUSH1 0x20 ADD PUSH1 0x0 KECCAK256 SLOAD DUP6 LT ISZERO PUSH2 0x17E5 JUMPI PUSH1 0x40 MLOAD PUSH32 0x8C379A000000000000000000000000000000000000000000000000000000000 DUP2 MSTORE PUSH1 0x4 ADD PUSH2 0x17DC SWAP1 PUSH2 0x4ACE JUMP JUMPDEST PUSH1 0x40 MLOAD DUP1 SWAP2 SUB SWAP1 REVERT JUMPDEST PUSH1 0x0 PUSH20 0xFFFFFFFFFFFFFFFFFFFFFFFFFFFFFFFFFFFFFFFF AND DUP3 PUSH20 0xFFFFFFFFFFFFFFFFFFFFFFFFFFFFFFFFFFFFFFFF AND SUB PUSH2 0x186B JUMPI DUP5 DUP5 PUSH2 0x1825 SWAP2 SWAP1 PUSH2 0x4402 JUMP JUMPDEST CALLVALUE EQ PUSH2 0x1866 JUMPI PUSH1 0x40 MLOAD PUSH32 0x8C379A000000000000000000000000000000000000000000000000000000000 DUP2 MSTORE PUSH1 0x4 ADD PUSH2 0x185D SWAP1 PUSH2 0x44A1 JUMP JUMPDEST PUSH1 0x40 MLOAD DUP1 SWAP2 SUB SWAP1 REVERT JUMPDEST PUSH2 0x18A4 JUMP JUMPDEST PUSH2 0x18A3 CALLER ADDRESS DUP8 DUP8 PUSH2 0x187C SWAP2 SWAP1 PUSH2 0x4402 JUMP JUMPDEST DUP6 PUSH20 0xFFFFFFFFFFFFFFFFFFFFFFFFFFFFFFFFFFFFFFFF AND PUSH2 0x2DCA SWAP1 SWAP4 SWAP3 SWAP2 SWAP1 PUSH4 0xFFFFFFFF AND JUMP JUMPDEST JUMPDEST PUSH2 0x106 DUP1 SLOAD SWAP1 POP SWAP1 POP PUSH1 0x0 PUSH1 0x40 MLOAD DUP1 PUSH2 0x120 ADD PUSH1 0x40 MSTORE DUP1 DUP4 DUP2 MSTORE PUSH1 0x20 ADD CALLER PUSH20 0xFFFFFFFFFFFFFFFFFFFFFFFFFFFFFFFFFFFFFFFF AND DUP2 MSTORE PUSH1 0x20 ADD DUP5 PUSH20 0xFFFFFFFFFFFFFFFFFFFFFFFFFFFFFFFFFFFFFFFF AND DUP2 MSTORE PUSH1 0x20 ADD DUP8 DUP8 PUSH2 0x1905 SWAP2 SWAP1 PUSH2 0x4402 JUMP JUMPDEST DUP2 MSTORE PUSH1 0x20 ADD TIMESTAMP DUP2 MSTORE PUSH1 0x20 ADD PUSH1 0x0 DUP2 MSTORE PUSH1 0x20 ADD DUP8 DUP2 MSTORE PUSH1 0x20 ADD DUP7 DUP2 MSTORE PUSH1 0x20 ADD DUP6 DUP2 MSTORE POP SWAP1 POP PUSH2 0x106 DUP2 SWAP1 DUP1 PUSH1 0x1 DUP2 SLOAD ADD DUP1 DUP3 SSTORE DUP1 SWAP2 POP POP PUSH1 0x1 SWAP1 SUB SWAP1 PUSH1 0x0 MSTORE PUSH1 0x20 PUSH1 0x0 KECCAK256 SWAP1 PUSH1 0x9 MUL ADD PUSH1 0x0 SWAP1 SWAP2 SWAP1 SWAP2 SWAP1 SWAP2 POP PUSH1 0x0 DUP3 ADD MLOAD DUP2 PUSH1 0x0 ADD SSTORE PUSH1 0x20 DUP3 ADD MLOAD DUP2 PUSH1 0x1 ADD PUSH1 0x0 PUSH2 0x100 EXP DUP2 SLOAD DUP2 PUSH20 0xFFFFFFFFFFFFFFFFFFFFFFFFFFFFFFFFFFFFFFFF MUL NOT AND SWAP1 DUP4 PUSH20 0xFFFFFFFFFFFFFFFFFFFFFFFFFFFFFFFFFFFFFFFF AND MUL OR SWAP1 SSTORE POP PUSH1 0x40 DUP3 ADD MLOAD DUP2 PUSH1 0x2 ADD PUSH1 0x0 PUSH2 0x100 EXP DUP2 SLOAD DUP2 PUSH20 0xFFFFFFFFFFFFFFFFFFFFFFFFFFFFFFFFFFFFFFFF MUL NOT AND SWAP1 DUP4 PUSH20 0xFFFFFFFFFFFFFFFFFFFFFFFFFFFFFFFFFFFFFFFF AND MUL OR SWAP1 SSTORE POP PUSH1 0x60 DUP3 ADD MLOAD DUP2 PUSH1 0x3 ADD SSTORE PUSH1 0x80 DUP3 ADD MLOAD DUP2 PUSH1 0x4 ADD SSTORE PUSH1 0xA0 DUP3 ADD MLOAD DUP2 PUSH1 0x5 ADD SSTORE PUSH1 0xC0 DUP3 ADD MLOAD DUP2 PUSH1 0x6 ADD SSTORE PUSH1 0xE0 DUP3 ADD MLOAD DUP2 PUSH1 0x7 ADD SSTORE PUSH2 0x100 DUP3 ADD MLOAD DUP2 PUSH1 0x8 ADD SSTORE POP POP PUSH2 0x105 PUSH1 0x0 DUP4 DUP2 MSTORE PUSH1 0x20 ADD SWAP1 DUP2 MSTORE PUSH1 0x20 ADD PUSH1 0x0 KECCAK256 CALLER SWAP1 DUP1 PUSH1 0x1 DUP2 SLOAD ADD DUP1 DUP3 SSTORE DUP1 SWAP2 POP POP PUSH1 0x1 SWAP1 SUB SWAP1 PUSH1 0x0 MSTORE PUSH1 0x20 PUSH1 0x0 KECCAK256 ADD PUSH1 0x0 SWAP1 SWAP2 SWAP1 SWAP2 SWAP1 SWAP2 PUSH2 0x100 EXP DUP2 SLOAD DUP2 PUSH20 0xFFFFFFFFFFFFFFFFFFFFFFFFFFFFFFFFFFFFFFFF MUL NOT AND SWAP1 DUP4 PUSH20 0xFFFFFFFFFFFFFFFFFFFFFFFFFFFFFFFFFFFFFFFF AND MUL OR SWAP1 SSTORE POP PUSH1 0x1 PUSH2 0x103 PUSH1 0x0 CALLER PUSH20 0xFFFFFFFFFFFFFFFFFFFFFFFFFFFFFFFFFFFFFFFF AND PUSH20 0xFFFFFFFFFFFFFFFFFFFFFFFFFFFFFFFFFFFFFFFF AND DUP2 MSTORE PUSH1 0x20 ADD SWAP1 DUP2 MSTORE PUSH1 0x20 ADD PUSH1 0x0 KECCAK256 PUSH1 0x0 PUSH2 0x100 EXP DUP2 SLOAD DUP2 PUSH1 0xFF MUL NOT AND SWAP1 DUP4 ISZERO ISZERO MUL OR SWAP1 SSTORE POP DUP2 PUSH2 0x102 PUSH1 0x0 CALLER PUSH20 0xFFFFFFFFFFFFFFFFFFFFFFFFFFFFFFFFFFFFFFFF AND PUSH20 0xFFFFFFFFFFFFFFFFFFFFFFFFFFFFFFFFFFFFFFFF AND DUP2 MSTORE PUSH1 0x20 ADD SWAP1 DUP2 MSTORE PUSH1 0x20 ADD PUSH1 0x0 KECCAK256 DUP2 SWAP1 SSTORE POP DUP3 PUSH20 0xFFFFFFFFFFFFFFFFFFFFFFFFFFFFFFFFFFFFFFFF AND CALLER PUSH20 0xFFFFFFFFFFFFFFFFFFFFFFFFFFFFFFFFFFFFFFFF AND DUP4 PUSH32 0x5EA0B4174C5795FA6A8A9F60501270348E7556AE8905B5DD5892B86C65055C04 PUSH1 0x40 MLOAD PUSH1 0x40 MLOAD DUP1 SWAP2 SUB SWAP1 LOG4 POP SWAP5 SWAP4 POP POP POP POP JUMP JUMPDEST PUSH1 0xFE SLOAD DUP2 JUMP JUMPDEST PUSH2 0x104 PUSH1 0x20 MSTORE DUP2 PUSH1 0x0 MSTORE PUSH1 0x40 PUSH1 0x0 KECCAK256 PUSH1 0x20 MSTORE DUP1 PUSH1 0x0 MSTORE PUSH1 0x40 PUSH1 0x0 KECCAK256 PUSH1 0x0 SWAP2 POP SWAP2 POP SWAP1 SLOAD SWAP1 PUSH2 0x100 EXP SWAP1 DIV PUSH1 0xFF AND DUP2 JUMP JUMPDEST PUSH2 0x1BE2 PUSH2 0x2E53 JUMP JUMPDEST PUSH1 0x0 PUSH2 0x106 DUP7 DUP2 SLOAD DUP2 LT PUSH2 0x1BF9 JUMPI PUSH2 0x1BF8 PUSH2 0x43A4 JUMP JUMPDEST JUMPDEST SWAP1 PUSH1 0x0 MSTORE PUSH1 0x20 PUSH1 0x0 KECCAK256 SWAP1 PUSH1 0x9 MUL ADD PUSH1 0x40 MLOAD DUP1 PUSH2 0x120 ADD PUSH1 0x40 MSTORE SWAP1 DUP2 PUSH1 0x0 DUP3 ADD SLOAD DUP2 MSTORE PUSH1 0x20 ADD PUSH1 0x1 DUP3 ADD PUSH1 0x0 SWAP1 SLOAD SWAP1 PUSH2 0x100 EXP SWAP1 DIV PUSH20 0xFFFFFFFFFFFFFFFFFFFFFFFFFFFFFFFFFFFFFFFF AND PUSH20 0xFFFFFFFFFFFFFFFFFFFFFFFFFFFFFFFFFFFFFFFF AND PUSH20 0xFFFFFFFFFFFFFFFFFFFFFFFFFFFFFFFFFFFFFFFF AND DUP2 MSTORE PUSH1 0x20 ADD PUSH1 0x2 DUP3 ADD PUSH1 0x0 SWAP1 SLOAD SWAP1 PUSH2 0x100 EXP SWAP1 DIV PUSH20 0xFFFFFFFFFFFFFFFFFFFFFFFFFFFFFFFFFFFFFFFF AND PUSH20 0xFFFFFFFFFFFFFFFFFFFFFFFFFFFFFFFFFFFFFFFF AND PUSH20 0xFFFFFFFFFFFFFFFFFFFFFFFFFFFFFFFFFFFFFFFF AND DUP2 MSTORE PUSH1 0x20 ADD PUSH1 0x3 DUP3 ADD SLOAD DUP2 MSTORE PUSH1 0x20 ADD PUSH1 0x4 DUP3 ADD SLOAD DUP2 MSTORE PUSH1 0x20 ADD PUSH1 0x5 DUP3 ADD SLOAD DUP2 MSTORE PUSH1 0x20 ADD PUSH1 0x6 DUP3 ADD SLOAD DUP2 MSTORE PUSH1 0x20 ADD PUSH1 0x7 DUP3 ADD SLOAD DUP2 MSTORE PUSH1 0x20 ADD PUSH1 0x8 DUP3 ADD SLOAD DUP2 MSTORE POP POP SWAP1 POP PUSH2 0x1D19 DUP7 DUP7 DUP4 PUSH1 0x40 ADD MLOAD DUP8 DUP8 DUP8 PUSH2 0x3174 JUMP JUMPDEST PUSH2 0x1D58 JUMPI PUSH1 0x40 MLOAD PUSH32 0x8C379A000000000000000000000000000000000000000000000000000000000 DUP2 MSTORE PUSH1 0x4 ADD PUSH2 0x1D4F SWAP1 PUSH2 0x4B3A JUMP JUMPDEST PUSH1 0x40 MLOAD DUP1 SWAP2 SUB SWAP1 REVERT JUMPDEST PUSH1 0x0 DUP2 PUSH1 0xA0 ADD MLOAD SUB PUSH2 0x1D90 JUMPI TIMESTAMP PUSH2 0x106 DUP8 DUP2 SLOAD DUP2 LT PUSH2 0x1D7A JUMPI PUSH2 0x1D79 PUSH2 0x43A4 JUMP JUMPDEST JUMPDEST SWAP1 PUSH1 0x0 MSTORE PUSH1 0x20 PUSH1 0x0 KECCAK256 SWAP1 PUSH1 0x9 MUL ADD PUSH1 0x5 ADD DUP2 SWAP1 SSTORE POP JUMPDEST PUSH2 0x104 PUSH1 0x0 CALLER PUSH20 0xFFFFFFFFFFFFFFFFFFFFFFFFFFFFFFFFFFFFFFFF AND PUSH20 0xFFFFFFFFFFFFFFFFFFFFFFFFFFFFFFFFFFFFFFFF AND DUP2 MSTORE PUSH1 0x20 ADD SWAP1 DUP2 MSTORE PUSH1 0x20 ADD PUSH1 0x0 KECCAK256 PUSH1 0x0 DUP8 DUP2 MSTORE PUSH1 0x20 ADD SWAP1 DUP2 MSTORE PUSH1 0x20 ADD PUSH1 0x0 KECCAK256 PUSH1 0x0 SWAP1 SLOAD SWAP1 PUSH2 0x100 EXP SWAP1 DIV PUSH1 0xFF AND ISZERO PUSH2 0x1E2F JUMPI PUSH1 0x40 MLOAD PUSH32 0x8C379A000000000000000000000000000000000000000000000000000000000 DUP2 MSTORE PUSH1 0x4 ADD PUSH2 0x1E26 SWAP1 PUSH2 0x4BA6 JUMP JUMPDEST PUSH1 0x40 MLOAD DUP1 SWAP2 SUB SWAP1 REVERT JUMPDEST PUSH1 0x1 PUSH2 0x104 PUSH1 0x0 CALLER PUSH20 0xFFFFFFFFFFFFFFFFFFFFFFFFFFFFFFFFFFFFFFFF AND PUSH20 0xFFFFFFFFFFFFFFFFFFFFFFFFFFFFFFFFFFFFFFFF AND DUP2 MSTORE PUSH1 0x20 ADD SWAP1 DUP2 MSTORE PUSH1 0x20 ADD PUSH1 0x0 KECCAK256 PUSH1 0x0 DUP9 DUP2 MSTORE PUSH1 0x20 ADD SWAP1 DUP2 MSTORE PUSH1 0x20 ADD PUSH1 0x0 KECCAK256 PUSH1 0x0 PUSH2 0x100 EXP DUP2 SLOAD DUP2 PUSH1 0xFF MUL NOT AND SWAP1 DUP4 ISZERO ISZERO MUL OR SWAP1 SSTORE POP PUSH1 0x0 DUP1 PUSH2 0x1EAA DUP4 PUSH1 0x60 ADD MLOAD DUP9 PUSH2 0x327A JUMP JUMPDEST SWAP2 POP SWAP2 POP PUSH1 0x0 PUSH20 0xFFFFFFFFFFFFFFFFFFFFFFFFFFFFFFFFFFFFFFFF AND DUP4 PUSH1 0x40 ADD MLOAD PUSH20 0xFFFFFFFFFFFFFFFFFFFFFFFFFFFFFFFFFFFFFFFF AND SUB PUSH2 0x203F JUMPI PUSH1 0x0 CALLER PUSH20 0xFFFFFFFFFFFFFFFFFFFFFFFFFFFFFFFFFFFFFFFF AND DUP3 PUSH1 0x40 MLOAD PUSH2 0x1F0C SWAP1 PUSH2 0x4768 JUMP JUMPDEST PUSH1 0x0 PUSH1 0x40 MLOAD DUP1 DUP4 SUB DUP2 DUP6 DUP8 GAS CALL SWAP3 POP POP POP RETURNDATASIZE DUP1 PUSH1 0x0 DUP2 EQ PUSH2 0x1F49 JUMPI PUSH1 0x40 MLOAD SWAP2 POP PUSH1 0x1F NOT PUSH1 0x3F RETURNDATASIZE ADD AND DUP3 ADD PUSH1 0x40 MSTORE RETURNDATASIZE DUP3 MSTORE RETURNDATASIZE PUSH1 0x0 PUSH1 0x20 DUP5 ADD RETURNDATACOPY PUSH2 0x1F4E JUMP JUMPDEST PUSH1 0x60 SWAP2 POP JUMPDEST POP POP SWAP1 POP PUSH1 0x0 PUSH1 0x1 SWAP1 POP PUSH1 0x0 DUP5 EQ PUSH2 0x1FEF JUMPI PUSH1 0xFC PUSH1 0x0 SWAP1 SLOAD SWAP1 PUSH2 0x100 EXP SWAP1 DIV PUSH20 0xFFFFFFFFFFFFFFFFFFFFFFFFFFFFFFFFFFFFFFFF AND PUSH20 0xFFFFFFFFFFFFFFFFFFFFFFFFFFFFFFFFFFFFFFFF AND DUP5 PUSH1 0x40 MLOAD PUSH2 0x1FA6 SWAP1 PUSH2 0x4768 JUMP JUMPDEST PUSH1 0x0 PUSH1 0x40 MLOAD DUP1 DUP4 SUB DUP2 DUP6 DUP8 GAS CALL SWAP3 POP POP POP RETURNDATASIZE DUP1 PUSH1 0x0 DUP2 EQ PUSH2 0x1FE3 JUMPI PUSH1 0x40 MLOAD SWAP2 POP PUSH1 0x1F NOT PUSH1 0x3F RETURNDATASIZE ADD AND DUP3 ADD PUSH1 0x40 MSTORE RETURNDATASIZE DUP3 MSTORE RETURNDATASIZE PUSH1 0x0 PUSH1 0x20 DUP5 ADD RETURNDATACOPY PUSH2 0x1FE8 JUMP JUMPDEST PUSH1 0x60 SWAP2 POP JUMPDEST POP POP DUP1 SWAP2 POP POP JUMPDEST DUP2 DUP1 ISZERO PUSH2 0x1FF9 JUMPI POP DUP1 JUMPDEST PUSH2 0x2038 JUMPI PUSH1 0x40 MLOAD PUSH32 0x8C379A000000000000000000000000000000000000000000000000000000000 DUP2 MSTORE PUSH1 0x4 ADD PUSH2 0x202F SWAP1 PUSH2 0x47C9 JUMP JUMPDEST PUSH1 0x40 MLOAD DUP1 SWAP2 SUB SWAP1 REVERT JUMPDEST POP POP PUSH2 0x20C9 JUMP JUMPDEST PUSH2 0x206E CALLER DUP3 DUP6 PUSH1 0x40 ADD MLOAD PUSH20 0xFFFFFFFFFFFFFFFFFFFFFFFFFFFFFFFFFFFFFFFF AND PUSH2 0x2EA2 SWAP1 SWAP3 SWAP2 SWAP1 PUSH4 0xFFFFFFFF AND JUMP JUMPDEST PUSH1 0x0 DUP3 EQ PUSH2 0x20C8 JUMPI PUSH2 0x20C7 PUSH1 0xFC PUSH1 0x0 SWAP1 SLOAD SWAP1 PUSH2 0x100 EXP SWAP1 DIV PUSH20 0xFFFFFFFFFFFFFFFFFFFFFFFFFFFFFFFFFFFFFFFF AND DUP4 DUP6 PUSH1 0x40 ADD MLOAD PUSH20 0xFFFFFFFFFFFFFFFFFFFFFFFFFFFFFFFFFFFFFFFF AND PUSH2 0x2EA2 SWAP1 SWAP3 SWAP2 SWAP1 PUSH4 0xFFFFFFFF AND JUMP JUMPDEST JUMPDEST JUMPDEST PUSH1 0x0 PUSH2 0x103 PUSH1 0x0 CALLER PUSH20 0xFFFFFFFFFFFFFFFFFFFFFFFFFFFFFFFFFFFFFFFF AND PUSH20 0xFFFFFFFFFFFFFFFFFFFFFFFFFFFFFFFFFFFFFFFF AND DUP2 MSTORE PUSH1 0x20 ADD SWAP1 DUP2 MSTORE PUSH1 0x20 ADD PUSH1 0x0 KECCAK256 PUSH1 0x0 PUSH2 0x100 EXP DUP2 SLOAD DUP2 PUSH1 0xFF MUL NOT AND SWAP1 DUP4 ISZERO ISZERO MUL OR SWAP1 SSTORE POP DUP3 PUSH1 0x40 ADD MLOAD PUSH20 0xFFFFFFFFFFFFFFFFFFFFFFFFFFFFFFFFFFFFFFFF AND CALLER PUSH20 0xFFFFFFFFFFFFFFFFFFFFFFFFFFFFFFFFFFFFFFFF AND DUP10 PUSH32 0xF674789DB389CBF7B8BCBA8EFC2A727996D4164E7589C33F9BC4F7C0375784D1 DUP11 PUSH1 0x40 MLOAD PUSH2 0x2184 SWAP2 SWAP1 PUSH2 0x3C67 JUMP JUMPDEST PUSH1 0x40 MLOAD DUP1 SWAP2 SUB SWAP1 LOG4 POP POP POP PUSH2 0x2197 PUSH2 0x2F28 JUMP JUMPDEST POP POP POP POP POP JUMP JUMPDEST PUSH1 0x0 PUSH1 0x33 PUSH1 0x0 SWAP1 SLOAD SWAP1 PUSH2 0x100 EXP SWAP1 DIV PUSH1 0xFF AND SWAP1 POP SWAP1 JUMP JUMPDEST PUSH1 0x0 DUP1 SHL PUSH2 0x21C2 DUP2 PUSH2 0x2F32 JUMP JUMPDEST DUP2 PUSH1 0xFE DUP2 SWAP1 SSTORE POP POP POP JUMP JUMPDEST PUSH1 0x0 DUP1 SHL PUSH2 0x21DA DUP2 PUSH2 0x2F32 JUMP JUMPDEST DUP2 PUSH1 0xFD DUP2 SWAP1 SSTORE POP POP POP JUMP JUMPDEST PUSH1 0x60 PUSH1 0x0 DUP3 PUSH8 0xFFFFFFFFFFFFFFFF DUP2 GT ISZERO PUSH2 0x2203 JUMPI PUSH2 0x2202 PUSH2 0x487B JUMP JUMPDEST JUMPDEST PUSH1 0x40 MLOAD SWAP1 DUP1 DUP3 MSTORE DUP1 PUSH1 0x20 MUL PUSH1 0x20 ADD DUP3 ADD PUSH1 0x40 MSTORE DUP1 ISZERO PUSH2 0x223C JUMPI DUP2 PUSH1 0x20 ADD JUMPDEST PUSH2 0x2229 PUSH2 0x3A32 JUMP JUMPDEST DUP2 MSTORE PUSH1 0x20 ADD SWAP1 PUSH1 0x1 SWAP1 SUB SWAP1 DUP2 PUSH2 0x2221 JUMPI SWAP1 POP JUMPDEST POP SWAP1 POP PUSH1 0x0 PUSH2 0x106 DUP1 SLOAD SWAP1 POP SWAP1 POP DUP1 DUP6 LT PUSH2 0x228C JUMPI PUSH1 0x40 MLOAD PUSH32 0x8C379A000000000000000000000000000000000000000000000000000000000 DUP2 MSTORE PUSH1 0x4 ADD PUSH2 0x2283 SWAP1 PUSH2 0x4C12 JUMP JUMPDEST PUSH1 0x40 MLOAD DUP1 SWAP2 SUB SWAP1 REVERT JUMPDEST PUSH1 0x0 DUP5 DUP7 DUP4 PUSH2 0x229B SWAP2 SWAP1 PUSH2 0x4605 JUMP JUMPDEST GT PUSH2 0x22A6 JUMPI DUP2 PUSH2 0x22B3 JUMP JUMPDEST DUP5 DUP7 PUSH2 0x22B2 SWAP2 SWAP1 PUSH2 0x4C32 JUMP JUMPDEST JUMPDEST SWAP1 POP PUSH1 0x0 DUP7 SWAP1 POP JUMPDEST DUP2 DUP2 LT ISZERO PUSH2 0x2437 JUMPI PUSH2 0x106 PUSH1 0x1 DUP3 DUP6 PUSH2 0x22D4 SWAP2 SWAP1 PUSH2 0x4605 JUMP JUMPDEST PUSH2 0x22DE SWAP2 SWAP1 PUSH2 0x4605 JUMP JUMPDEST DUP2 SLOAD DUP2 LT PUSH2 0x22EF JUMPI PUSH2 0x22EE PUSH2 0x43A4 JUMP JUMPDEST JUMPDEST SWAP1 PUSH1 0x0 MSTORE PUSH1 0x20 PUSH1 0x0 KECCAK256 SWAP1 PUSH1 0x9 MUL ADD PUSH1 0x40 MLOAD DUP1 PUSH2 0x120 ADD PUSH1 0x40 MSTORE SWAP1 DUP2 PUSH1 0x0 DUP3 ADD SLOAD DUP2 MSTORE PUSH1 0x20 ADD PUSH1 0x1 DUP3 ADD PUSH1 0x0 SWAP1 SLOAD SWAP1 PUSH2 0x100 EXP SWAP1 DIV PUSH20 0xFFFFFFFFFFFFFFFFFFFFFFFFFFFFFFFFFFFFFFFF AND PUSH20 0xFFFFFFFFFFFFFFFFFFFFFFFFFFFFFFFFFFFFFFFF AND PUSH20 0xFFFFFFFFFFFFFFFFFFFFFFFFFFFFFFFFFFFFFFFF AND DUP2 MSTORE PUSH1 0x20 ADD PUSH1 0x2 DUP3 ADD PUSH1 0x0 SWAP1 SLOAD SWAP1 PUSH2 0x100 EXP SWAP1 DIV PUSH20 0xFFFFFFFFFFFFFFFFFFFFFFFFFFFFFFFFFFFFFFFF AND PUSH20 0xFFFFFFFFFFFFFFFFFFFFFFFFFFFFFFFFFFFFFFFF AND PUSH20 0xFFFFFFFFFFFFFFFFFFFFFFFFFFFFFFFFFFFFFFFF AND DUP2 MSTORE PUSH1 0x20 ADD PUSH1 0x3 DUP3 ADD SLOAD DUP2 MSTORE PUSH1 0x20 ADD PUSH1 0x4 DUP3 ADD SLOAD DUP2 MSTORE PUSH1 0x20 ADD PUSH1 0x5 DUP3 ADD SLOAD DUP2 MSTORE PUSH1 0x20 ADD PUSH1 0x6 DUP3 ADD SLOAD DUP2 MSTORE PUSH1 0x20 ADD PUSH1 0x7 DUP3 ADD SLOAD DUP2 MSTORE PUSH1 0x20 ADD PUSH1 0x8 DUP3 ADD SLOAD DUP2 MSTORE POP POP DUP5 DUP9 DUP4 PUSH2 0x2408 SWAP2 SWAP1 PUSH2 0x4605 JUMP JUMPDEST DUP2 MLOAD DUP2 LT PUSH2 0x2419 JUMPI PUSH2 0x2418 PUSH2 0x43A4 JUMP JUMPDEST JUMPDEST PUSH1 0x20 MUL PUSH1 0x20 ADD ADD DUP2 SWAP1 MSTORE POP DUP1 DUP1 PUSH2 0x242F SWAP1 PUSH2 0x48AA JUMP JUMPDEST SWAP2 POP POP PUSH2 0x22BB JUMP JUMPDEST POP DUP3 SWAP4 POP POP POP POP SWAP3 SWAP2 POP POP JUMP JUMPDEST PUSH1 0x0 DUP1 PUSH1 0x1 SWAP1 SLOAD SWAP1 PUSH2 0x100 EXP SWAP1 DIV PUSH1 0xFF AND ISZERO SWAP1 POP DUP1 DUP1 ISZERO PUSH2 0x2475 JUMPI POP PUSH1 0x1 PUSH1 0x0 DUP1 SLOAD SWAP1 PUSH2 0x100 EXP SWAP1 DIV PUSH1 0xFF AND PUSH1 0xFF AND LT JUMPDEST DUP1 PUSH2 0x24A2 JUMPI POP PUSH2 0x2484 ADDRESS PUSH2 0x32CB JUMP JUMPDEST ISZERO DUP1 ISZERO PUSH2 0x24A1 JUMPI POP PUSH1 0x1 PUSH1 0x0 DUP1 SLOAD SWAP1 PUSH2 0x100 EXP SWAP1 DIV PUSH1 0xFF AND PUSH1 0xFF AND EQ JUMPDEST JUMPDEST PUSH2 0x24E1 JUMPI PUSH1 0x40 MLOAD PUSH32 0x8C379A000000000000000000000000000000000000000000000000000000000 DUP2 MSTORE PUSH1 0x4 ADD PUSH2 0x24D8 SWAP1 PUSH2 0x4CD8 JUMP JUMPDEST PUSH1 0x40 MLOAD DUP1 SWAP2 SUB SWAP1 REVERT JUMPDEST PUSH1 0x1 PUSH1 0x0 DUP1 PUSH2 0x100 EXP DUP2 SLOAD DUP2 PUSH1 0xFF MUL NOT AND SWAP1 DUP4 PUSH1 0xFF AND MUL OR SWAP1 SSTORE POP DUP1 ISZERO PUSH2 0x251E JUMPI PUSH1 0x1 PUSH1 0x0 PUSH1 0x1 PUSH2 0x100 EXP DUP2 SLOAD DUP2 PUSH1 0xFF MUL NOT AND SWAP1 DUP4 ISZERO ISZERO MUL OR SWAP1 SSTORE POP JUMPDEST PUSH2 0x2526 PUSH2 0x32EE JUMP JUMPDEST PUSH2 0x252E PUSH2 0x3347 JUMP JUMPDEST PUSH2 0x253B PUSH1 0x0 DUP1 SHL CALLER PUSH2 0x2F46 JUMP JUMPDEST PUSH2 0x2565 PUSH32 0x65D7A28E3265B37A6474929F336521B332C1681B933F6CB9F3376673440D862A CALLER PUSH2 0x2F46 JUMP JUMPDEST DUP7 PUSH1 0xFB PUSH1 0x0 PUSH2 0x100 EXP DUP2 SLOAD DUP2 PUSH20 0xFFFFFFFFFFFFFFFFFFFFFFFFFFFFFFFFFFFFFFFF MUL NOT AND SWAP1 DUP4 PUSH20 0xFFFFFFFFFFFFFFFFFFFFFFFFFFFFFFFFFFFFFFFF AND MUL OR SWAP1 SSTORE POP DUP6 PUSH1 0xFF DUP2 SWAP1 SSTORE POP DUP5 PUSH1 0xFC PUSH1 0x0 PUSH2 0x100 EXP DUP2 SLOAD DUP2 PUSH20 0xFFFFFFFFFFFFFFFFFFFFFFFFFFFFFFFFFFFFFFFF MUL NOT AND SWAP1 DUP4 PUSH20 0xFFFFFFFFFFFFFFFFFFFFFFFFFFFFFFFFFFFFFFFF AND MUL OR SWAP1 SSTORE POP DUP4 PUSH1 0xFD DUP2 SWAP1 SSTORE POP DUP3 PUSH2 0x100 PUSH1 0x0 DUP1 PUSH20 0xFFFFFFFFFFFFFFFFFFFFFFFFFFFFFFFFFFFFFFFF AND PUSH20 0xFFFFFFFFFFFFFFFFFFFFFFFFFFFFFFFFFFFFFFFF AND DUP2 MSTORE PUSH1 0x20 ADD SWAP1 DUP2 MSTORE PUSH1 0x20 ADD PUSH1 0x0 KECCAK256 DUP2 SWAP1 SSTORE POP DUP2 PUSH1 0xFE DUP2 SWAP1 SSTORE POP PUSH1 0x0 PUSH1 0x40 MLOAD DUP1 PUSH2 0x120 ADD PUSH1 0x40 MSTORE DUP1 PUSH1 0x0 DUP2 MSTORE PUSH1 0x20 ADD PUSH1 0x0 PUSH20 0xFFFFFFFFFFFFFFFFFFFFFFFFFFFFFFFFFFFFFFFF AND DUP2 MSTORE PUSH1 0x20 ADD PUSH1 0x0 PUSH20 0xFFFFFFFFFFFFFFFFFFFFFFFFFFFFFFFFFFFFFFFF AND DUP2 MSTORE PUSH1 0x20 ADD PUSH1 0x0 DUP2 MSTORE PUSH1 0x20 ADD PUSH1 0x0 DUP2 MSTORE PUSH1 0x20 ADD PUSH1 0x0 DUP2 MSTORE PUSH1 0x20 ADD PUSH1 0x0 DUP2 MSTORE PUSH1 0x20 ADD PUSH1 0x0 DUP2 MSTORE PUSH1 0x20 ADD PUSH1 0x0 DUP2 MSTORE POP SWAP1 POP PUSH1 0x0 PUSH20 0xFFFFFFFFFFFFFFFFFFFFFFFFFFFFFFFFFFFFFFFF AND PUSH1 0x0 PUSH20 0xFFFFFFFFFFFFFFFFFFFFFFFFFFFFFFFFFFFFFFFF AND PUSH1 0x0 PUSH32 0x5EA0B4174C5795FA6A8A9F60501270348E7556AE8905B5DD5892B86C65055C04 PUSH1 0x40 MLOAD PUSH1 0x40 MLOAD DUP1 SWAP2 SUB SWAP1 LOG4 PUSH2 0x106 DUP2 SWAP1 DUP1 PUSH1 0x1 DUP2 SLOAD ADD DUP1 DUP3 SSTORE DUP1 SWAP2 POP POP PUSH1 0x1 SWAP1 SUB SWAP1 PUSH1 0x0 MSTORE PUSH1 0x20 PUSH1 0x0 KECCAK256 SWAP1 PUSH1 0x9 MUL ADD PUSH1 0x0 SWAP1 SWAP2 SWAP1 SWAP2 SWAP1 SWAP2 POP PUSH1 0x0 DUP3 ADD MLOAD DUP2 PUSH1 0x0 ADD SSTORE PUSH1 0x20 DUP3 ADD MLOAD DUP2 PUSH1 0x1 ADD PUSH1 0x0 PUSH2 0x100 EXP DUP2 SLOAD DUP2 PUSH20 0xFFFFFFFFFFFFFFFFFFFFFFFFFFFFFFFFFFFFFFFF MUL NOT AND SWAP1 DUP4 PUSH20 0xFFFFFFFFFFFFFFFFFFFFFFFFFFFFFFFFFFFFFFFF AND MUL OR SWAP1 SSTORE POP PUSH1 0x40 DUP3 ADD MLOAD DUP2 PUSH1 0x2 ADD PUSH1 0x0 PUSH2 0x100 EXP DUP2 SLOAD DUP2 PUSH20 0xFFFFFFFFFFFFFFFFFFFFFFFFFFFFFFFFFFFFFFFF MUL NOT AND SWAP1 DUP4 PUSH20 0xFFFFFFFFFFFFFFFFFFFFFFFFFFFFFFFFFFFFFFFF AND MUL OR SWAP1 SSTORE POP PUSH1 0x60 DUP3 ADD MLOAD DUP2 PUSH1 0x3 ADD SSTORE PUSH1 0x80 DUP3 ADD MLOAD DUP2 PUSH1 0x4 ADD SSTORE PUSH1 0xA0 DUP3 ADD MLOAD DUP2 PUSH1 0x5 ADD SSTORE PUSH1 0xC0 DUP3 ADD MLOAD DUP2 PUSH1 0x6 ADD SSTORE PUSH1 0xE0 DUP3 ADD MLOAD DUP2 PUSH1 0x7 ADD SSTORE PUSH2 0x100 DUP3 ADD MLOAD DUP2 PUSH1 0x8 ADD SSTORE POP POP POP DUP1 ISZERO PUSH2 0x2876 JUMPI PUSH1 0x0 DUP1 PUSH1 0x1 PUSH2 0x100 EXP DUP2 SLOAD DUP2 PUSH1 0xFF MUL NOT AND SWAP1 DUP4 ISZERO ISZERO MUL OR SWAP1 SSTORE POP PUSH32 0x7F26B83FF96E1F2B6A682F133852F6798A09C465DA95921460CEFB3847402498 PUSH1 0x1 PUSH1 0x40 MLOAD PUSH2 0x286D SWAP2 SWAP1 PUSH2 0x4D33 JUMP JUMPDEST PUSH1 0x40 MLOAD DUP1 SWAP2 SUB SWAP1 LOG1 JUMPDEST POP POP POP POP POP POP POP JUMP JUMPDEST PUSH32 0x65D7A28E3265B37A6474929F336521B332C1681B933F6CB9F3376673440D862A PUSH2 0x28A9 DUP2 PUSH2 0x2F32 JUMP JUMPDEST PUSH2 0x28B1 PUSH2 0x3398 JUMP JUMPDEST POP JUMP JUMPDEST PUSH1 0x0 PUSH1 0x97 PUSH1 0x0 DUP5 DUP2 MSTORE PUSH1 0x20 ADD SWAP1 DUP2 MSTORE PUSH1 0x20 ADD PUSH1 0x0 KECCAK256 PUSH1 0x0 ADD PUSH1 0x0 DUP4 PUSH20 0xFFFFFFFFFFFFFFFFFFFFFFFFFFFFFFFFFFFFFFFF AND PUSH20 0xFFFFFFFFFFFFFFFFFFFFFFFFFFFFFFFFFFFFFFFF AND DUP2 MSTORE PUSH1 0x20 ADD SWAP1 DUP2 MSTORE PUSH1 0x20 ADD PUSH1 0x0 KECCAK256 PUSH1 0x0 SWAP1 SLOAD SWAP1 PUSH2 0x100 EXP SWAP1 DIV PUSH1 0xFF AND SWAP1 POP SWAP3 SWAP2 POP POP JUMP JUMPDEST PUSH1 0x0 DUP1 SHL PUSH2 0x292C DUP2 PUSH2 0x2F32 JUMP JUMPDEST DUP2 PUSH1 0xFC PUSH1 0x0 PUSH2 0x100 EXP DUP2 SLOAD DUP2 PUSH20 0xFFFFFFFFFFFFFFFFFFFFFFFFFFFFFFFFFFFFFFFF MUL NOT AND SWAP1 DUP4 PUSH20 0xFFFFFFFFFFFFFFFFFFFFFFFFFFFFFFFFFFFFFFFF AND MUL OR SWAP1 SSTORE POP POP POP JUMP JUMPDEST PUSH2 0x103 PUSH1 0x20 MSTORE DUP1 PUSH1 0x0 MSTORE PUSH1 0x40 PUSH1 0x0 KECCAK256 PUSH1 0x0 SWAP2 POP SLOAD SWAP1 PUSH2 0x100 EXP SWAP1 DIV PUSH1 0xFF AND DUP2 JUMP JUMPDEST PUSH1 0x0 DUP1 SHL DUP2 JUMP JUMPDEST PUSH1 0x0 DUP1 SHL PUSH2 0x29A6 DUP2 PUSH2 0x2F32 JUMP JUMPDEST DUP2 PUSH1 0xFB PUSH1 0x0 PUSH2 0x100 EXP DUP2 SLOAD DUP2 PUSH20 0xFFFFFFFFFFFFFFFFFFFFFFFFFFFFFFFFFFFFFFFF MUL NOT AND SWAP1 DUP4 PUSH20 0xFFFFFFFFFFFFFFFFFFFFFFFFFFFFFFFFFFFFFFFF AND MUL OR SWAP1 SSTORE POP POP POP JUMP JUMPDEST PUSH1 0x60 PUSH1 0x0 DUP3 PUSH8 0xFFFFFFFFFFFFFFFF DUP2 GT ISZERO PUSH2 0x2A09 JUMPI PUSH2 0x2A08 PUSH2 0x487B JUMP JUMPDEST JUMPDEST PUSH1 0x40 MLOAD SWAP1 DUP1 DUP3 MSTORE DUP1 PUSH1 0x20 MUL PUSH1 0x20 ADD DUP3 ADD PUSH1 0x40 MSTORE DUP1 ISZERO PUSH2 0x2A42 JUMPI DUP2 PUSH1 0x20 ADD JUMPDEST PUSH2 0x2A2F PUSH2 0x3A32 JUMP JUMPDEST DUP2 MSTORE PUSH1 0x20 ADD SWAP1 PUSH1 0x1 SWAP1 SUB SWAP1 DUP2 PUSH2 0x2A27 JUMPI SWAP1 POP JUMPDEST POP SWAP1 POP PUSH1 0x0 PUSH2 0x101 PUSH1 0x0 DUP7 PUSH20 0xFFFFFFFFFFFFFFFFFFFFFFFFFFFFFFFFFFFFFFFF AND PUSH20 0xFFFFFFFFFFFFFFFFFFFFFFFFFFFFFFFFFFFFFFFF AND DUP2 MSTORE PUSH1 0x20 ADD SWAP1 DUP2 MSTORE PUSH1 0x20 ADD PUSH1 0x0 KECCAK256 DUP1 SLOAD SWAP1 POP SWAP1 POP PUSH1 0x0 DUP5 DUP3 GT PUSH2 0x2A9D JUMPI PUSH1 0x0 PUSH2 0x2AAA JUMP JUMPDEST DUP5 DUP3 PUSH2 0x2AA9 SWAP2 SWAP1 PUSH2 0x4605 JUMP JUMPDEST JUMPDEST SWAP1 POP PUSH1 0x0 DUP2 SWAP1 POP JUMPDEST DUP3 DUP2 LT ISZERO PUSH2 0x2C79 JUMPI PUSH1 0x0 PUSH2 0x101 PUSH1 0x0 DUP10 PUSH20 0xFFFFFFFFFFFFFFFFFFFFFFFFFFFFFFFFFFFFFFFF AND PUSH20 0xFFFFFFFFFFFFFFFFFFFFFFFFFFFFFFFFFFFFFFFF AND DUP2 MSTORE PUSH1 0x20 ADD SWAP1 DUP2 MSTORE PUSH1 0x20 ADD PUSH1 0x0 KECCAK256 DUP3 DUP2 SLOAD DUP2 LT PUSH2 0x2B0E JUMPI PUSH2 0x2B0D PUSH2 0x43A4 JUMP JUMPDEST JUMPDEST SWAP1 PUSH1 0x0 MSTORE PUSH1 0x20 PUSH1 0x0 KECCAK256 ADD SLOAD SWAP1 POP PUSH2 0x106 DUP2 DUP2 SLOAD DUP2 LT PUSH2 0x2B30 JUMPI PUSH2 0x2B2F PUSH2 0x43A4 JUMP JUMPDEST JUMPDEST SWAP1 PUSH1 0x0 MSTORE PUSH1 0x20 PUSH1 0x0 KECCAK256 SWAP1 PUSH1 0x9 MUL ADD PUSH1 0x40 MLOAD DUP1 PUSH2 0x120 ADD PUSH1 0x40 MSTORE SWAP1 DUP2 PUSH1 0x0 DUP3 ADD SLOAD DUP2 MSTORE PUSH1 0x20 ADD PUSH1 0x1 DUP3 ADD PUSH1 0x0 SWAP1 SLOAD SWAP1 PUSH2 0x100 EXP SWAP1 DIV PUSH20 0xFFFFFFFFFFFFFFFFFFFFFFFFFFFFFFFFFFFFFFFF AND PUSH20 0xFFFFFFFFFFFFFFFFFFFFFFFFFFFFFFFFFFFFFFFF AND PUSH20 0xFFFFFFFFFFFFFFFFFFFFFFFFFFFFFFFFFFFFFFFF AND DUP2 MSTORE PUSH1 0x20 ADD PUSH1 0x2 DUP3 ADD PUSH1 0x0 SWAP1 SLOAD SWAP1 PUSH2 0x100 EXP SWAP1 DIV PUSH20 0xFFFFFFFFFFFFFFFFFFFFFFFFFFFFFFFFFFFFFFFF AND PUSH20 0xFFFFFFFFFFFFFFFFFFFFFFFFFFFFFFFFFFFFFFFF AND PUSH20 0xFFFFFFFFFFFFFFFFFFFFFFFFFFFFFFFFFFFFFFFF AND DUP2 MSTORE PUSH1 0x20 ADD PUSH1 0x3 DUP3 ADD SLOAD DUP2 MSTORE PUSH1 0x20 ADD PUSH1 0x4 DUP3 ADD SLOAD DUP2 MSTORE PUSH1 0x20 ADD PUSH1 0x5 DUP3 ADD SLOAD DUP2 MSTORE PUSH1 0x20 ADD PUSH1 0x6 DUP3 ADD SLOAD DUP2 MSTORE PUSH1 0x20 ADD PUSH1 0x7 DUP3 ADD SLOAD DUP2 MSTORE PUSH1 0x20 ADD PUSH1 0x8 DUP3 ADD SLOAD DUP2 MSTORE POP POP DUP6 DUP5 DUP5 PUSH2 0x2C49 SWAP2 SWAP1 PUSH2 0x4605 JUMP JUMPDEST DUP2 MLOAD DUP2 LT PUSH2 0x2C5A JUMPI PUSH2 0x2C59 PUSH2 0x43A4 JUMP JUMPDEST JUMPDEST PUSH1 0x20 MUL PUSH1 0x20 ADD ADD DUP2 SWAP1 MSTORE POP POP DUP1 DUP1 PUSH2 0x2C71 SWAP1 PUSH2 0x48AA JUMP JUMPDEST SWAP2 POP POP PUSH2 0x2AB2 JUMP JUMPDEST POP DUP3 SWAP4 POP POP POP POP SWAP3 SWAP2 POP POP JUMP JUMPDEST PUSH1 0x0 DUP1 SHL PUSH2 0x2C93 DUP2 PUSH2 0x2F32 JUMP JUMPDEST DUP2 PUSH1 0xFF DUP2 SWAP1 SSTORE POP POP POP JUMP JUMPDEST PUSH2 0x2CA7 DUP3 PUSH2 0xE95 JUMP JUMPDEST PUSH2 0x2CB0 DUP2 PUSH2 0x2F32 JUMP JUMPDEST PUSH2 0x2CBA DUP4 DUP4 PUSH2 0x302F JUMP JUMPDEST POP POP POP JUMP JUMPDEST PUSH1 0x0 DUP1 SHL PUSH2 0x2CCC DUP2 PUSH2 0x2F32 JUMP JUMPDEST DUP2 PUSH2 0x100 PUSH1 0x0 DUP6 PUSH20 0xFFFFFFFFFFFFFFFFFFFFFFFFFFFFFFFFFFFFFFFF AND PUSH20 0xFFFFFFFFFFFFFFFFFFFFFFFFFFFFFFFFFFFFFFFF AND DUP2 MSTORE PUSH1 0x20 ADD SWAP1 DUP2 MSTORE PUSH1 0x20 ADD PUSH1 0x0 KECCAK256 DUP2 SWAP1 SSTORE POP POP POP POP JUMP JUMPDEST PUSH1 0x0 PUSH32 0x1FFC9A700000000000000000000000000000000000000000000000000000000 PUSH28 0xFFFFFFFFFFFFFFFFFFFFFFFFFFFFFFFFFFFFFFFFFFFFFFFFFFFFFFFF NOT AND DUP3 PUSH28 0xFFFFFFFFFFFFFFFFFFFFFFFFFFFFFFFFFFFFFFFFFFFFFFFFFFFFFFFF NOT AND EQ SWAP1 POP SWAP2 SWAP1 POP JUMP JUMPDEST PUSH2 0x2D88 PUSH2 0x219E JUMP JUMPDEST ISZERO PUSH2 0x2DC8 JUMPI PUSH1 0x40 MLOAD PUSH32 0x8C379A000000000000000000000000000000000000000000000000000000000 DUP2 MSTORE PUSH1 0x4 ADD PUSH2 0x2DBF SWAP1 PUSH2 0x4D9A JUMP JUMPDEST PUSH1 0x40 MLOAD DUP1 SWAP2 SUB SWAP1 REVERT JUMPDEST JUMP JUMPDEST PUSH2 0x2E4D DUP5 PUSH4 0x23B872DD PUSH1 0xE0 SHL DUP6 DUP6 DUP6 PUSH1 0x40 MLOAD PUSH1 0x24 ADD PUSH2 0x2DEB SWAP4 SWAP3 SWAP2 SWAP1 PUSH2 0x4DBA JUMP JUMPDEST PUSH1 0x40 MLOAD PUSH1 0x20 DUP2 DUP4 SUB SUB DUP2 MSTORE SWAP1 PUSH1 0x40 MSTORE SWAP1 PUSH28 0xFFFFFFFFFFFFFFFFFFFFFFFFFFFFFFFFFFFFFFFFFFFFFFFFFFFFFFFF NOT AND PUSH1 0x20 DUP3 ADD DUP1 MLOAD PUSH28 0xFFFFFFFFFFFFFFFFFFFFFFFFFFFFFFFFFFFFFFFFFFFFFFFFFFFFFFFF DUP4 DUP2 DUP4 AND OR DUP4 MSTORE POP POP POP POP PUSH2 0x33FB JUMP JUMPDEST POP POP POP POP JUMP JUMPDEST PUSH1 0x2 PUSH1 0xC9 SLOAD SUB PUSH2 0x2E98 JUMPI PUSH1 0x40 MLOAD PUSH32 0x8C379A000000000000000000000000000000000000000000000000000000000 DUP2 MSTORE PUSH1 0x4 ADD PUSH2 0x2E8F SWAP1 PUSH2 0x4E3D JUMP JUMPDEST PUSH1 0x40 MLOAD DUP1 SWAP2 SUB SWAP1 REVERT JUMPDEST PUSH1 0x2 PUSH1 0xC9 DUP2 SWAP1 SSTORE POP JUMP JUMPDEST PUSH2 0x2F23 DUP4 PUSH4 0xA9059CBB PUSH1 0xE0 SHL DUP5 DUP5 PUSH1 0x40 MLOAD PUSH1 0x24 ADD PUSH2 0x2EC1 SWAP3 SWAP2 SWAP1 PUSH2 0x4E5D JUMP JUMPDEST PUSH1 0x40 MLOAD PUSH1 0x20 DUP2 DUP4 SUB SUB DUP2 MSTORE SWAP1 PUSH1 0x40 MSTORE SWAP1 PUSH28 0xFFFFFFFFFFFFFFFFFFFFFFFFFFFFFFFFFFFFFFFFFFFFFFFFFFFFFFFF NOT AND PUSH1 0x20 DUP3 ADD DUP1 MLOAD PUSH28 0xFFFFFFFFFFFFFFFFFFFFFFFFFFFFFFFFFFFFFFFFFFFFFFFFFFFFFFFF DUP4 DUP2 DUP4 AND OR DUP4 MSTORE POP POP POP POP PUSH2 0x33FB JUMP JUMPDEST POP POP POP JUMP JUMPDEST PUSH1 0x1 PUSH1 0xC9 DUP2 SWAP1 SSTORE POP JUMP JUMPDEST PUSH2 0x2F43 DUP2 PUSH2 0x2F3E PUSH2 0x3027 JUMP JUMPDEST PUSH2 0x34C2 JUMP JUMPDEST POP JUMP JUMPDEST PUSH2 0x2F50 DUP3 DUP3 PUSH2 0x28B4 JUMP JUMPDEST PUSH2 0x3023 JUMPI PUSH1 0x1 PUSH1 0x97 PUSH1 0x0 DUP5 DUP2 MSTORE PUSH1 0x20 ADD SWAP1 DUP2 MSTORE PUSH1 0x20 ADD PUSH1 0x0 KECCAK256 PUSH1 0x0 ADD PUSH1 0x0 DUP4 PUSH20 0xFFFFFFFFFFFFFFFFFFFFFFFFFFFFFFFFFFFFFFFF AND PUSH20 0xFFFFFFFFFFFFFFFFFFFFFFFFFFFFFFFFFFFFFFFF AND DUP2 MSTORE PUSH1 0x20 ADD SWAP1 DUP2 MSTORE PUSH1 0x20 ADD PUSH1 0x0 KECCAK256 PUSH1 0x0 PUSH2 0x100 EXP DUP2 SLOAD DUP2 PUSH1 0xFF MUL NOT AND SWAP1 DUP4 ISZERO ISZERO MUL OR SWAP1 SSTORE POP PUSH2 0x2FC8 PUSH2 0x3027 JUMP JUMPDEST PUSH20 0xFFFFFFFFFFFFFFFFFFFFFFFFFFFFFFFFFFFFFFFF AND DUP2 PUSH20 0xFFFFFFFFFFFFFFFFFFFFFFFFFFFFFFFFFFFFFFFF AND DUP4 PUSH32 0x2F8788117E7EFF1D82E926EC794901D17C78024A50270940304540A733656F0D PUSH1 0x40 MLOAD PUSH1 0x40 MLOAD DUP1 SWAP2 SUB SWAP1 LOG4 JUMPDEST POP POP JUMP JUMPDEST PUSH1 0x0 CALLER SWAP1 POP SWAP1 JUMP JUMPDEST PUSH2 0x3039 DUP3 DUP3 PUSH2 0x28B4 JUMP JUMPDEST ISZERO PUSH2 0x310D JUMPI PUSH1 0x0 PUSH1 0x97 PUSH1 0x0 DUP5 DUP2 MSTORE PUSH1 0x20 ADD SWAP1 DUP2 MSTORE PUSH1 0x20 ADD PUSH1 0x0 KECCAK256 PUSH1 0x0 ADD PUSH1 0x0 DUP4 PUSH20 0xFFFFFFFFFFFFFFFFFFFFFFFFFFFFFFFFFFFFFFFF AND PUSH20 0xFFFFFFFFFFFFFFFFFFFFFFFFFFFFFFFFFFFFFFFF AND DUP2 MSTORE PUSH1 0x20 ADD SWAP1 DUP2 MSTORE PUSH1 0x20 ADD PUSH1 0x0 KECCAK256 PUSH1 0x0 PUSH2 0x100 EXP DUP2 SLOAD DUP2 PUSH1 0xFF MUL NOT AND SWAP1 DUP4 ISZERO ISZERO MUL OR SWAP1 SSTORE POP PUSH2 0x30B2 PUSH2 0x3027 JUMP JUMPDEST PUSH20 0xFFFFFFFFFFFFFFFFFFFFFFFFFFFFFFFFFFFFFFFF AND DUP2 PUSH20 0xFFFFFFFFFFFFFFFFFFFFFFFFFFFFFFFFFFFFFFFF AND DUP4 PUSH32 0xF6391F5C32D9C69D2A47EA670B442974B53935D1EDC7FD64EB21E047A839171B PUSH1 0x40 MLOAD PUSH1 0x40 MLOAD DUP1 SWAP2 SUB SWAP1 LOG4 JUMPDEST POP POP JUMP JUMPDEST PUSH2 0x3119 PUSH2 0x3547 JUMP JUMPDEST PUSH1 0x0 PUSH1 0x33 PUSH1 0x0 PUSH2 0x100 EXP DUP2 SLOAD DUP2 PUSH1 0xFF MUL NOT AND SWAP1 DUP4 ISZERO ISZERO MUL OR SWAP1 SSTORE POP PUSH32 0x5DB9EE0A495BF2E6FF9C91A7834C1BA4FDD244A5E8AA4E537BD38AEAE4B073AA PUSH2 0x315D PUSH2 0x3027 JUMP JUMPDEST PUSH1 0x40 MLOAD PUSH2 0x316A SWAP2 SWAP1 PUSH2 0x4E86 JUMP JUMPDEST PUSH1 0x40 MLOAD DUP1 SWAP2 SUB SWAP1 LOG1 JUMP JUMPDEST PUSH1 0x0 DUP1 DUP8 DUP8 DUP8 CALLER ADDRESS PUSH1 0x40 MLOAD PUSH1 0x20 ADD PUSH2 0x3190 SWAP6 SWAP5 SWAP4 SWAP3 SWAP2 SWAP1 PUSH2 0x4F0A JUMP JUMPDEST PUSH1 0x40 MLOAD PUSH1 0x20 DUP2 DUP4 SUB SUB DUP2 MSTORE SWAP1 PUSH1 0x40 MSTORE DUP1 MLOAD SWAP1 PUSH1 0x20 ADD KECCAK256 SWAP1 POP PUSH1 0x1 DUP2 PUSH1 0x40 MLOAD PUSH1 0x20 ADD PUSH2 0x31BB SWAP2 SWAP1 PUSH2 0x4FE1 JUMP JUMPDEST PUSH1 0x40 MLOAD PUSH1 0x20 DUP2 DUP4 SUB SUB DUP2 MSTORE SWAP1 PUSH1 0x40 MSTORE DUP1 MLOAD SWAP1 PUSH1 0x20 ADD KECCAK256 DUP6 DUP8 DUP7 PUSH1 0x40 MLOAD PUSH1 0x0 DUP2 MSTORE PUSH1 0x20 ADD PUSH1 0x40 MSTORE PUSH1 0x40 MLOAD PUSH2 0x31F1 SWAP5 SWAP4 SWAP3 SWAP2 SWAP1 PUSH2 0x5016 JUMP JUMPDEST PUSH1 0x20 PUSH1 0x40 MLOAD PUSH1 0x20 DUP2 SUB SWAP1 DUP1 DUP5 SUB SWAP1 DUP6 GAS STATICCALL ISZERO DUP1 ISZERO PUSH2 0x3213 JUMPI RETURNDATASIZE PUSH1 0x0 DUP1 RETURNDATACOPY RETURNDATASIZE PUSH1 0x0 REVERT JUMPDEST POP POP POP PUSH1 0x20 PUSH1 0x40 MLOAD SUB MLOAD PUSH20 0xFFFFFFFFFFFFFFFFFFFFFFFFFFFFFFFFFFFFFFFF AND PUSH1 0xFB PUSH1 0x0 SWAP1 SLOAD SWAP1 PUSH2 0x100 EXP SWAP1 DIV PUSH20 0xFFFFFFFFFFFFFFFFFFFFFFFFFFFFFFFFFFFFFFFF AND PUSH20 0xFFFFFFFFFFFFFFFFFFFFFFFFFFFFFFFFFFFFFFFF AND EQ SWAP2 POP POP SWAP7 SWAP6 POP POP POP POP POP POP JUMP JUMPDEST PUSH1 0x0 DUP1 DUP4 DUP4 GT ISZERO PUSH2 0x32C0 JUMPI PUSH2 0x2710 PUSH1 0xFD SLOAD DUP5 PUSH2 0x3296 SWAP2 SWAP1 PUSH2 0x4402 JUMP JUMPDEST PUSH2 0x32A0 SWAP2 SWAP1 PUSH2 0x508A JUMP JUMPDEST DUP4 PUSH2 0x32AB SWAP2 SWAP1 PUSH2 0x4605 JUMP JUMPDEST SWAP1 POP DUP1 DUP4 PUSH2 0x32B9 SWAP2 SWAP1 PUSH2 0x4605 JUMP JUMPDEST SWAP2 POP PUSH2 0x32C4 JUMP JUMPDEST DUP3 SWAP1 POP JUMPDEST SWAP3 POP SWAP3 SWAP1 POP JUMP JUMPDEST PUSH1 0x0 DUP1 DUP3 PUSH20 0xFFFFFFFFFFFFFFFFFFFFFFFFFFFFFFFFFFFFFFFF AND EXTCODESIZE GT SWAP1 POP SWAP2 SWAP1 POP JUMP JUMPDEST PUSH1 0x0 PUSH1 0x1 SWAP1 SLOAD SWAP1 PUSH2 0x100 EXP SWAP1 DIV PUSH1 0xFF AND PUSH2 0x333D JUMPI PUSH1 0x40 MLOAD PUSH32 0x8C379A000000000000000000000000000000000000000000000000000000000 DUP2 MSTORE PUSH1 0x4 ADD PUSH2 0x3334 SWAP1 PUSH2 0x512D JUMP JUMPDEST PUSH1 0x40 MLOAD DUP1 SWAP2 SUB SWAP1 REVERT JUMPDEST PUSH2 0x3345 PUSH2 0x3590 JUMP JUMPDEST JUMP JUMPDEST PUSH1 0x0 PUSH1 0x1 SWAP1 SLOAD SWAP1 PUSH2 0x100 EXP SWAP1 DIV PUSH1 0xFF AND PUSH2 0x3396 JUMPI PUSH1 0x40 MLOAD PUSH32 0x8C379A000000000000000000000000000000000000000000000000000000000 DUP2 MSTORE PUSH1 0x4 ADD PUSH2 0x338D SWAP1 PUSH2 0x512D JUMP JUMPDEST PUSH1 0x40 MLOAD DUP1 SWAP2 SUB SWAP1 REVERT JUMPDEST JUMP JUMPDEST PUSH2 0x33A0 PUSH2 0x2D80 JUMP JUMPDEST PUSH1 0x1 PUSH1 0x33 PUSH1 0x0 PUSH2 0x100 EXP DUP2 SLOAD DUP2 PUSH1 0xFF MUL NOT AND SWAP1 DUP4 ISZERO ISZERO MUL OR SWAP1 SSTORE POP PUSH32 0x62E78CEA01BEE320CD4E420270B5EA74000D11B0C9F74754EBDBFC544B05A258 PUSH2 0x33E4 PUSH2 0x3027 JUMP JUMPDEST PUSH1 0x40 MLOAD PUSH2 0x33F1 SWAP2 SWAP1 PUSH2 0x4E86 JUMP JUMPDEST PUSH1 0x40 MLOAD DUP1 SWAP2 SUB SWAP1 LOG1 JUMP JUMPDEST PUSH1 0x0 PUSH2 0x345D DUP3 PUSH1 0x40 MLOAD DUP1 PUSH1 0x40 ADD PUSH1 0x40 MSTORE DUP1 PUSH1 0x20 DUP2 MSTORE PUSH1 0x20 ADD PUSH32 0x5361666545524332303A206C6F772D6C6576656C2063616C6C206661696C6564 DUP2 MSTORE POP DUP6 PUSH20 0xFFFFFFFFFFFFFFFFFFFFFFFFFFFFFFFFFFFFFFFF AND PUSH2 0x35FC SWAP1 SWAP3 SWAP2 SWAP1 PUSH4 0xFFFFFFFF AND JUMP JUMPDEST SWAP1 POP PUSH1 0x0 DUP2 MLOAD GT ISZERO PUSH2 0x34BD JUMPI DUP1 DUP1 PUSH1 0x20 ADD SWAP1 MLOAD DUP2 ADD SWAP1 PUSH2 0x347D SWAP2 SWAP1 PUSH2 0x5179 JUMP JUMPDEST PUSH2 0x34BC JUMPI PUSH1 0x40 MLOAD PUSH32 0x8C379A000000000000000000000000000000000000000000000000000000000 DUP2 MSTORE PUSH1 0x4 ADD PUSH2 0x34B3 SWAP1 PUSH2 0x5218 JUMP JUMPDEST PUSH1 0x40 MLOAD DUP1 SWAP2 SUB SWAP1 REVERT JUMPDEST JUMPDEST POP POP POP JUMP JUMPDEST PUSH2 0x34CC DUP3 DUP3 PUSH2 0x28B4 JUMP JUMPDEST PUSH2 0x3543 JUMPI PUSH2 0x34D9 DUP2 PUSH2 0x3614 JUMP JUMPDEST PUSH2 0x34E7 DUP4 PUSH1 0x0 SHR PUSH1 0x20 PUSH2 0x3641 JUMP JUMPDEST PUSH1 0x40 MLOAD PUSH1 0x20 ADD PUSH2 0x34F8 SWAP3 SWAP2 SWAP1 PUSH2 0x5336 JUMP JUMPDEST PUSH1 0x40 MLOAD PUSH1 0x20 DUP2 DUP4 SUB SUB DUP2 MSTORE SWAP1 PUSH1 0x40 MSTORE PUSH1 0x40 MLOAD PUSH32 0x8C379A000000000000000000000000000000000000000000000000000000000 DUP2 MSTORE PUSH1 0x4 ADD PUSH2 0x353A SWAP2 SWAP1 PUSH2 0x53BA JUMP JUMPDEST PUSH1 0x40 MLOAD DUP1 SWAP2 SUB SWAP1 REVERT JUMPDEST POP POP JUMP JUMPDEST PUSH2 0x354F PUSH2 0x219E JUMP JUMPDEST PUSH2 0x358E JUMPI PUSH1 0x40 MLOAD PUSH32 0x8C379A000000000000000000000000000000000000000000000000000000000 DUP2 MSTORE PUSH1 0x4 ADD PUSH2 0x3585 SWAP1 PUSH2 0x5428 JUMP JUMPDEST PUSH1 0x40 MLOAD DUP1 SWAP2 SUB SWAP1 REVERT JUMPDEST JUMP JUMPDEST PUSH1 0x0 PUSH1 0x1 SWAP1 SLOAD SWAP1 PUSH2 0x100 EXP SWAP1 DIV PUSH1 0xFF AND PUSH2 0x35DF JUMPI PUSH1 0x40 MLOAD PUSH32 0x8C379A000000000000000000000000000000000000000000000000000000000 DUP2 MSTORE PUSH1 0x4 ADD PUSH2 0x35D6 SWAP1 PUSH2 0x512D JUMP JUMPDEST PUSH1 0x40 MLOAD DUP1 SWAP2 SUB SWAP1 REVERT JUMPDEST PUSH1 0x0 PUSH1 0x33 PUSH1 0x0 PUSH2 0x100 EXP DUP2 SLOAD DUP2 PUSH1 0xFF MUL NOT AND SWAP1 DUP4 ISZERO ISZERO MUL OR SWAP1 SSTORE POP JUMP JUMPDEST PUSH1 0x60 PUSH2 0x360B DUP5 DUP5 PUSH1 0x0 DUP6 PUSH2 0x387D JUMP JUMPDEST SWAP1 POP SWAP4 SWAP3 POP POP POP JUMP JUMPDEST PUSH1 0x60 PUSH2 0x363A DUP3 PUSH20 0xFFFFFFFFFFFFFFFFFFFFFFFFFFFFFFFFFFFFFFFF AND PUSH1 0x14 PUSH1 0xFF AND PUSH2 0x3641 JUMP JUMPDEST SWAP1 POP SWAP2 SWAP1 POP JUMP JUMPDEST PUSH1 0x60 PUSH1 0x0 PUSH1 0x2 DUP4 PUSH1 0x2 PUSH2 0x3654 SWAP2 SWAP1 PUSH2 0x4402 JUMP JUMPDEST PUSH2 0x365E SWAP2 SWAP1 PUSH2 0x4C32 JUMP JUMPDEST PUSH8 0xFFFFFFFFFFFFFFFF DUP2 GT ISZERO PUSH2 0x3677 JUMPI PUSH2 0x3676 PUSH2 0x487B JUMP JUMPDEST JUMPDEST PUSH1 0x40 MLOAD SWAP1 DUP1 DUP3 MSTORE DUP1 PUSH1 0x1F ADD PUSH1 0x1F NOT AND PUSH1 0x20 ADD DUP3 ADD PUSH1 0x40 MSTORE DUP1 ISZERO PUSH2 0x36A9 JUMPI DUP2 PUSH1 0x20 ADD PUSH1 0x1 DUP3 MUL DUP1 CALLDATASIZE DUP4 CALLDATACOPY DUP1 DUP3 ADD SWAP2 POP POP SWAP1 POP JUMPDEST POP SWAP1 POP PUSH32 0x3000000000000000000000000000000000000000000000000000000000000000 DUP2 PUSH1 0x0 DUP2 MLOAD DUP2 LT PUSH2 0x36E1 JUMPI PUSH2 0x36E0 PUSH2 0x43A4 JUMP JUMPDEST JUMPDEST PUSH1 0x20 ADD ADD SWAP1 PUSH31 0xFFFFFFFFFFFFFFFFFFFFFFFFFFFFFFFFFFFFFFFFFFFFFFFFFFFFFFFFFFFFFF NOT AND SWAP1 DUP2 PUSH1 0x0 BYTE SWAP1 MSTORE8 POP PUSH32 0x7800000000000000000000000000000000000000000000000000000000000000 DUP2 PUSH1 0x1 DUP2 MLOAD DUP2 LT PUSH2 0x3745 JUMPI PUSH2 0x3744 PUSH2 0x43A4 JUMP JUMPDEST JUMPDEST PUSH1 0x20 ADD ADD SWAP1 PUSH31 0xFFFFFFFFFFFFFFFFFFFFFFFFFFFFFFFFFFFFFFFFFFFFFFFFFFFFFFFFFFFFFF NOT AND SWAP1 DUP2 PUSH1 0x0 BYTE SWAP1 MSTORE8 POP PUSH1 0x0 PUSH1 0x1 DUP5 PUSH1 0x2 PUSH2 0x3785 SWAP2 SWAP1 PUSH2 0x4402 JUMP JUMPDEST PUSH2 0x378F SWAP2 SWAP1 PUSH2 0x4C32 JUMP JUMPDEST SWAP1 POP JUMPDEST PUSH1 0x1 DUP2 GT ISZERO PUSH2 0x382F JUMPI PUSH32 0x3031323334353637383961626364656600000000000000000000000000000000 PUSH1 0xF DUP7 AND PUSH1 0x10 DUP2 LT PUSH2 0x37D1 JUMPI PUSH2 0x37D0 PUSH2 0x43A4 JUMP JUMPDEST JUMPDEST BYTE PUSH1 0xF8 SHL DUP3 DUP3 DUP2 MLOAD DUP2 LT PUSH2 0x37E8 JUMPI PUSH2 0x37E7 PUSH2 0x43A4 JUMP JUMPDEST JUMPDEST PUSH1 0x20 ADD ADD SWAP1 PUSH31 0xFFFFFFFFFFFFFFFFFFFFFFFFFFFFFFFFFFFFFFFFFFFFFFFFFFFFFFFFFFFFFF NOT AND SWAP1 DUP2 PUSH1 0x0 BYTE SWAP1 MSTORE8 POP PUSH1 0x4 DUP6 SWAP1 SHR SWAP5 POP DUP1 PUSH2 0x3828 SWAP1 PUSH2 0x5448 JUMP JUMPDEST SWAP1 POP PUSH2 0x3792 JUMP JUMPDEST POP PUSH1 0x0 DUP5 EQ PUSH2 0x3873 JUMPI PUSH1 0x40 MLOAD PUSH32 0x8C379A000000000000000000000000000000000000000000000000000000000 DUP2 MSTORE PUSH1 0x4 ADD PUSH2 0x386A SWAP1 PUSH2 0x54BD JUMP JUMPDEST PUSH1 0x40 MLOAD DUP1 SWAP2 SUB SWAP1 REVERT JUMPDEST DUP1 SWAP2 POP POP SWAP3 SWAP2 POP POP JUMP JUMPDEST PUSH1 0x60 DUP3 SELFBALANCE LT ISZERO PUSH2 0x38C2 JUMPI PUSH1 0x40 MLOAD PUSH32 0x8C379A000000000000000000000000000000000000000000000000000000000 DUP2 MSTORE PUSH1 0x4 ADD PUSH2 0x38B9 SWAP1 PUSH2 0x554F JUMP JUMPDEST PUSH1 0x40 MLOAD DUP1 SWAP2 SUB SWAP1 REVERT JUMPDEST PUSH1 0x0 DUP1 DUP7 PUSH20 0xFFFFFFFFFFFFFFFFFFFFFFFFFFFFFFFFFFFFFFFF AND DUP6 DUP8 PUSH1 0x40 MLOAD PUSH2 0x38EB SWAP2 SWAP1 PUSH2 0x55AB JUMP JUMPDEST PUSH1 0x0 PUSH1 0x40 MLOAD DUP1 DUP4 SUB DUP2 DUP6 DUP8 GAS CALL SWAP3 POP POP POP RETURNDATASIZE DUP1 PUSH1 0x0 DUP2 EQ PUSH2 0x3928 JUMPI PUSH1 0x40 MLOAD SWAP2 POP PUSH1 0x1F NOT PUSH1 0x3F RETURNDATASIZE ADD AND DUP3 ADD PUSH1 0x40 MSTORE RETURNDATASIZE DUP3 MSTORE RETURNDATASIZE PUSH1 0x0 PUSH1 0x20 DUP5 ADD RETURNDATACOPY PUSH2 0x392D JUMP JUMPDEST PUSH1 0x60 SWAP2 POP JUMPDEST POP SWAP2 POP SWAP2 POP PUSH2 0x393E DUP8 DUP4 DUP4 DUP8 PUSH2 0x394A JUMP JUMPDEST SWAP3 POP POP POP SWAP5 SWAP4 POP POP POP POP JUMP JUMPDEST PUSH1 0x60 DUP4 ISZERO PUSH2 0x39AC JUMPI PUSH1 0x0 DUP4 MLOAD SUB PUSH2 0x39A4 JUMPI PUSH2 0x3964 DUP6 PUSH2 0x39BF JUMP JUMPDEST PUSH2 0x39A3 JUMPI PUSH1 0x40 MLOAD PUSH32 0x8C379A000000000000000000000000000000000000000000000000000000000 DUP2 MSTORE PUSH1 0x4 ADD PUSH2 0x399A SWAP1 PUSH2 0x560E JUMP JUMPDEST PUSH1 0x40 MLOAD DUP1 SWAP2 SUB SWAP1 REVERT JUMPDEST JUMPDEST DUP3 SWAP1 POP PUSH2 0x39B7 JUMP JUMPDEST PUSH2 0x39B6 DUP4 DUP4 PUSH2 0x39E2 JUMP JUMPDEST JUMPDEST SWAP5 SWAP4 POP POP POP POP JUMP JUMPDEST PUSH1 0x0 DUP1 DUP3 PUSH20 0xFFFFFFFFFFFFFFFFFFFFFFFFFFFFFFFFFFFFFFFF AND EXTCODESIZE GT SWAP1 POP SWAP2 SWAP1 POP JUMP JUMPDEST PUSH1 0x0 DUP3 MLOAD GT ISZERO PUSH2 0x39F5 JUMPI DUP2 MLOAD DUP1 DUP4 PUSH1 0x20 ADD REVERT JUMPDEST DUP1 PUSH1 0x40 MLOAD PUSH32 0x8C379A000000000000000000000000000000000000000000000000000000000 DUP2 MSTORE PUSH1 0x4 ADD PUSH2 0x3A29 SWAP2 SWAP1 PUSH2 0x53BA JUMP JUMPDEST PUSH1 0x40 MLOAD DUP1 SWAP2 SUB SWAP1 REVERT JUMPDEST PUSH1 0x40 MLOAD DUP1 PUSH2 0x120 ADD PUSH1 0x40 MSTORE DUP1 PUSH1 0x0 DUP2 MSTORE PUSH1 0x20 ADD PUSH1 0x0 PUSH20 0xFFFFFFFFFFFFFFFFFFFFFFFFFFFFFFFFFFFFFFFF AND DUP2 MSTORE PUSH1 0x20 ADD PUSH1 0x0 PUSH20 0xFFFFFFFFFFFFFFFFFFFFFFFFFFFFFFFFFFFFFFFF AND DUP2 MSTORE PUSH1 0x20 ADD PUSH1 0x0 DUP2 MSTORE PUSH1 0x20 ADD PUSH1 0x0 DUP2 MSTORE PUSH1 0x20 ADD PUSH1 0x0 DUP2 MSTORE PUSH1 0x20 ADD PUSH1 0x0 DUP2 MSTORE PUSH1 0x20 ADD PUSH1 0x0 DUP2 MSTORE PUSH1 0x20 ADD PUSH1 0x0 DUP2 MSTORE POP SWAP1 JUMP JUMPDEST PUSH1 0x0 DUP1 REVERT JUMPDEST PUSH1 0x0 PUSH32 0xFFFFFFFF00000000000000000000000000000000000000000000000000000000 DUP3 AND SWAP1 POP SWAP2 SWAP1 POP JUMP JUMPDEST PUSH2 0x3AE4 DUP2 PUSH2 0x3AAF JUMP JUMPDEST DUP2 EQ PUSH2 0x3AEF JUMPI PUSH1 0x0 DUP1 REVERT JUMPDEST POP JUMP JUMPDEST PUSH1 0x0 DUP2 CALLDATALOAD SWAP1 POP PUSH2 0x3B01 DUP2 PUSH2 0x3ADB JUMP JUMPDEST SWAP3 SWAP2 POP POP JUMP JUMPDEST PUSH1 0x0 PUSH1 0x20 DUP3 DUP5 SUB SLT ISZERO PUSH2 0x3B1D JUMPI PUSH2 0x3B1C PUSH2 0x3AAA JUMP JUMPDEST JUMPDEST PUSH1 0x0 PUSH2 0x3B2B DUP5 DUP3 DUP6 ADD PUSH2 0x3AF2 JUMP JUMPDEST SWAP2 POP POP SWAP3 SWAP2 POP POP JUMP JUMPDEST PUSH1 0x0 DUP2 ISZERO ISZERO SWAP1 POP SWAP2 SWAP1 POP JUMP JUMPDEST PUSH2 0x3B49 DUP2 PUSH2 0x3B34 JUMP JUMPDEST DUP3 MSTORE POP POP JUMP JUMPDEST PUSH1 0x0 PUSH1 0x20 DUP3 ADD SWAP1 POP PUSH2 0x3B64 PUSH1 0x0 DUP4 ADD DUP5 PUSH2 0x3B40 JUMP JUMPDEST SWAP3 SWAP2 POP POP JUMP JUMPDEST PUSH1 0x0 DUP2 SWAP1 POP SWAP2 SWAP1 POP JUMP JUMPDEST PUSH2 0x3B7D DUP2 PUSH2 0x3B6A JUMP JUMPDEST DUP2 EQ PUSH2 0x3B88 JUMPI PUSH1 0x0 DUP1 REVERT JUMPDEST POP JUMP JUMPDEST PUSH1 0x0 DUP2 CALLDATALOAD SWAP1 POP PUSH2 0x3B9A DUP2 PUSH2 0x3B74 JUMP JUMPDEST SWAP3 SWAP2 POP POP JUMP JUMPDEST PUSH1 0x0 PUSH1 0x20 DUP3 DUP5 SUB SLT ISZERO PUSH2 0x3BB6 JUMPI PUSH2 0x3BB5 PUSH2 0x3AAA JUMP JUMPDEST JUMPDEST PUSH1 0x0 PUSH2 0x3BC4 DUP5 DUP3 DUP6 ADD PUSH2 0x3B8B JUMP JUMPDEST SWAP2 POP POP SWAP3 SWAP2 POP POP JUMP JUMPDEST PUSH1 0x0 PUSH20 0xFFFFFFFFFFFFFFFFFFFFFFFFFFFFFFFFFFFFFFFF DUP3 AND SWAP1 POP SWAP2 SWAP1 POP JUMP JUMPDEST PUSH1 0x0 PUSH2 0x3BF8 DUP3 PUSH2 0x3BCD JUMP JUMPDEST SWAP1 POP SWAP2 SWAP1 POP JUMP JUMPDEST PUSH2 0x3C08 DUP2 PUSH2 0x3BED JUMP JUMPDEST DUP2 EQ PUSH2 0x3C13 JUMPI PUSH1 0x0 DUP1 REVERT JUMPDEST POP JUMP JUMPDEST PUSH1 0x0 DUP2 CALLDATALOAD SWAP1 POP PUSH2 0x3C25 DUP2 PUSH2 0x3BFF JUMP JUMPDEST SWAP3 SWAP2 POP POP JUMP JUMPDEST PUSH1 0x0 PUSH1 0x20 DUP3 DUP5 SUB SLT ISZERO PUSH2 0x3C41 JUMPI PUSH2 0x3C40 PUSH2 0x3AAA JUMP JUMPDEST JUMPDEST PUSH1 0x0 PUSH2 0x3C4F DUP5 DUP3 DUP6 ADD PUSH2 0x3C16 JUMP JUMPDEST SWAP2 POP POP SWAP3 SWAP2 POP POP JUMP JUMPDEST PUSH2 0x3C61 DUP2 PUSH2 0x3B6A JUMP JUMPDEST DUP3 MSTORE POP POP JUMP JUMPDEST PUSH1 0x0 PUSH1 0x20 DUP3 ADD SWAP1 POP PUSH2 0x3C7C PUSH1 0x0 DUP4 ADD DUP5 PUSH2 0x3C58 JUMP JUMPDEST SWAP3 SWAP2 POP POP JUMP JUMPDEST PUSH1 0x0 PUSH2 0x3C8D DUP3 PUSH2 0x3BED JUMP JUMPDEST SWAP1 POP SWAP2 SWAP1 POP JUMP JUMPDEST PUSH2 0x3C9D DUP2 PUSH2 0x3C82 JUMP JUMPDEST DUP2 EQ PUSH2 0x3CA8 JUMPI PUSH1 0x0 DUP1 REVERT JUMPDEST POP JUMP JUMPDEST PUSH1 0x0 DUP2 CALLDATALOAD SWAP1 POP PUSH2 0x3CBA DUP2 PUSH2 0x3C94 JUMP JUMPDEST SWAP3 SWAP2 POP POP JUMP JUMPDEST PUSH1 0x0 PUSH1 0x20 DUP3 DUP5 SUB SLT ISZERO PUSH2 0x3CD6 JUMPI PUSH2 0x3CD5 PUSH2 0x3AAA JUMP JUMPDEST JUMPDEST PUSH1 0x0 PUSH2 0x3CE4 DUP5 DUP3 DUP6 ADD PUSH2 0x3CAB JUMP JUMPDEST SWAP2 POP POP SWAP3 SWAP2 POP POP JUMP JUMPDEST PUSH1 0x0 DUP2 SWAP1 POP SWAP2 SWAP1 POP JUMP JUMPDEST PUSH2 0x3D00 DUP2 PUSH2 0x3CED JUMP JUMPDEST DUP2 EQ PUSH2 0x3D0B JUMPI PUSH1 0x0 DUP1 REVERT JUMPDEST POP JUMP JUMPDEST PUSH1 0x0 DUP2 CALLDATALOAD SWAP1 POP PUSH2 0x3D1D DUP2 PUSH2 0x3CF7 JUMP JUMPDEST SWAP3 SWAP2 POP POP JUMP JUMPDEST PUSH1 0x0 PUSH1 0x20 DUP3 DUP5 SUB SLT ISZERO PUSH2 0x3D39 JUMPI PUSH2 0x3D38 PUSH2 0x3AAA JUMP JUMPDEST JUMPDEST PUSH1 0x0 PUSH2 0x3D47 DUP5 DUP3 DUP6 ADD PUSH2 0x3D0E JUMP JUMPDEST SWAP2 POP POP SWAP3 SWAP2 POP POP JUMP JUMPDEST PUSH2 0x3D59 DUP2 PUSH2 0x3CED JUMP JUMPDEST DUP3 MSTORE POP POP JUMP JUMPDEST PUSH1 0x0 PUSH1 0x20 DUP3 ADD SWAP1 POP PUSH2 0x3D74 PUSH1 0x0 DUP4 ADD DUP5 PUSH2 0x3D50 JUMP JUMPDEST SWAP3 SWAP2 POP POP JUMP JUMPDEST PUSH1 0x0 DUP1 PUSH1 0x40 DUP4 DUP6 SUB SLT ISZERO PUSH2 0x3D91 JUMPI PUSH2 0x3D90 PUSH2 0x3AAA JUMP JUMPDEST JUMPDEST PUSH1 0x0 PUSH2 0x3D9F DUP6 DUP3 DUP7 ADD PUSH2 0x3D0E JUMP JUMPDEST SWAP3 POP POP PUSH1 0x20 PUSH2 0x3DB0 DUP6 DUP3 DUP7 ADD PUSH2 0x3C16 JUMP JUMPDEST SWAP2 POP POP SWAP3 POP SWAP3 SWAP1 POP JUMP JUMPDEST PUSH1 0x0 DUP2 MLOAD SWAP1 POP SWAP2 SWAP1 POP JUMP JUMPDEST PUSH1 0x0 DUP3 DUP3 MSTORE PUSH1 0x20 DUP3 ADD SWAP1 POP SWAP3 SWAP2 POP POP JUMP JUMPDEST PUSH1 0x0 DUP2 SWAP1 POP PUSH1 0x20 DUP3 ADD SWAP1 POP SWAP2 SWAP1 POP JUMP JUMPDEST PUSH2 0x3DEF DUP2 PUSH2 0x3BED JUMP JUMPDEST DUP3 MSTORE POP POP JUMP JUMPDEST PUSH1 0x0 PUSH2 0x3E01 DUP4 DUP4 PUSH2 0x3DE6 JUMP JUMPDEST PUSH1 0x20 DUP4 ADD SWAP1 POP SWAP3 SWAP2 POP POP JUMP JUMPDEST PUSH1 0x0 PUSH1 0x20 DUP3 ADD SWAP1 POP SWAP2 SWAP1 POP JUMP JUMPDEST PUSH1 0x0 PUSH2 0x3E25 DUP3 PUSH2 0x3DBA JUMP JUMPDEST PUSH2 0x3E2F DUP2 DUP6 PUSH2 0x3DC5 JUMP JUMPDEST SWAP4 POP PUSH2 0x3E3A DUP4 PUSH2 0x3DD6 JUMP JUMPDEST DUP1 PUSH1 0x0 JUMPDEST DUP4 DUP2 LT ISZERO PUSH2 0x3E6B JUMPI DUP2 MLOAD PUSH2 0x3E52 DUP9 DUP3 PUSH2 0x3DF5 JUMP JUMPDEST SWAP8 POP PUSH2 0x3E5D DUP4 PUSH2 0x3E0D JUMP JUMPDEST SWAP3 POP POP PUSH1 0x1 DUP2 ADD SWAP1 POP PUSH2 0x3E3E JUMP JUMPDEST POP DUP6 SWAP4 POP POP POP POP SWAP3 SWAP2 POP POP JUMP JUMPDEST PUSH1 0x0 PUSH1 0x20 DUP3 ADD SWAP1 POP DUP2 DUP2 SUB PUSH1 0x0 DUP4 ADD MSTORE PUSH2 0x3E92 DUP2 DUP5 PUSH2 0x3E1A JUMP JUMPDEST SWAP1 POP SWAP3 SWAP2 POP POP JUMP JUMPDEST PUSH2 0x3EA3 DUP2 PUSH2 0x3BED JUMP JUMPDEST DUP3 MSTORE POP POP JUMP JUMPDEST PUSH1 0x0 DUP2 SWAP1 POP SWAP2 SWAP1 POP JUMP JUMPDEST PUSH1 0x0 PUSH2 0x3ECE PUSH2 0x3EC9 PUSH2 0x3EC4 DUP5 PUSH2 0x3BCD JUMP JUMPDEST PUSH2 0x3EA9 JUMP JUMPDEST PUSH2 0x3BCD JUMP JUMPDEST SWAP1 POP SWAP2 SWAP1 POP JUMP JUMPDEST PUSH1 0x0 PUSH2 0x3EE0 DUP3 PUSH2 0x3EB3 JUMP JUMPDEST SWAP1 POP SWAP2 SWAP1 POP JUMP JUMPDEST PUSH1 0x0 PUSH2 0x3EF2 DUP3 PUSH2 0x3ED5 JUMP JUMPDEST SWAP1 POP SWAP2 SWAP1 POP JUMP JUMPDEST PUSH2 0x3F02 DUP2 PUSH2 0x3EE7 JUMP JUMPDEST DUP3 MSTORE POP POP JUMP JUMPDEST PUSH1 0x0 PUSH2 0x120 DUP3 ADD SWAP1 POP PUSH2 0x3F1E PUSH1 0x0 DUP4 ADD DUP13 PUSH2 0x3C58 JUMP JUMPDEST PUSH2 0x3F2B PUSH1 0x20 DUP4 ADD DUP12 PUSH2 0x3E9A JUMP JUMPDEST PUSH2 0x3F38 PUSH1 0x40 DUP4 ADD DUP11 PUSH2 0x3EF9 JUMP JUMPDEST PUSH2 0x3F45 PUSH1 0x60 DUP4 ADD DUP10 PUSH2 0x3C58 JUMP JUMPDEST PUSH2 0x3F52 PUSH1 0x80 DUP4 ADD DUP9 PUSH2 0x3C58 JUMP JUMPDEST PUSH2 0x3F5F PUSH1 0xA0 DUP4 ADD DUP8 PUSH2 0x3C58 JUMP JUMPDEST PUSH2 0x3F6C PUSH1 0xC0 DUP4 ADD DUP7 PUSH2 0x3C58 JUMP JUMPDEST PUSH2 0x3F79 PUSH1 0xE0 DUP4 ADD DUP6 PUSH2 0x3C58 JUMP JUMPDEST PUSH2 0x3F87 PUSH2 0x100 DUP4 ADD DUP5 PUSH2 0x3C58 JUMP JUMPDEST SWAP11 SWAP10 POP POP POP POP POP POP POP POP POP POP JUMP JUMPDEST PUSH1 0x0 DUP1 PUSH1 0x0 DUP1 PUSH1 0x80 DUP6 DUP8 SUB SLT ISZERO PUSH2 0x3FAF JUMPI PUSH2 0x3FAE PUSH2 0x3AAA JUMP JUMPDEST JUMPDEST PUSH1 0x0 PUSH2 0x3FBD DUP8 DUP3 DUP9 ADD PUSH2 0x3B8B JUMP JUMPDEST SWAP5 POP POP PUSH1 0x20 PUSH2 0x3FCE DUP8 DUP3 DUP9 ADD PUSH2 0x3B8B JUMP JUMPDEST SWAP4 POP POP PUSH1 0x40 PUSH2 0x3FDF DUP8 DUP3 DUP9 ADD PUSH2 0x3B8B JUMP JUMPDEST SWAP3 POP POP PUSH1 0x60 PUSH2 0x3FF0 DUP8 DUP3 DUP9 ADD PUSH2 0x3CAB JUMP JUMPDEST SWAP2 POP POP SWAP3 SWAP6 SWAP2 SWAP5 POP SWAP3 POP JUMP JUMPDEST PUSH1 0x0 DUP1 PUSH1 0x40 DUP4 DUP6 SUB SLT ISZERO PUSH2 0x4013 JUMPI PUSH2 0x4012 PUSH2 0x3AAA JUMP JUMPDEST JUMPDEST PUSH1 0x0 PUSH2 0x4021 DUP6 DUP3 DUP7 ADD PUSH2 0x3C16 JUMP JUMPDEST SWAP3 POP POP PUSH1 0x20 PUSH2 0x4032 DUP6 DUP3 DUP7 ADD PUSH2 0x3B8B JUMP JUMPDEST SWAP2 POP POP SWAP3 POP SWAP3 SWAP1 POP JUMP JUMPDEST PUSH1 0x0 PUSH1 0xFF DUP3 AND SWAP1 POP SWAP2 SWAP1 POP JUMP JUMPDEST PUSH2 0x4052 DUP2 PUSH2 0x403C JUMP JUMPDEST DUP2 EQ PUSH2 0x405D JUMPI PUSH1 0x0 DUP1 REVERT JUMPDEST POP JUMP JUMPDEST PUSH1 0x0 DUP2 CALLDATALOAD SWAP1 POP PUSH2 0x406F DUP2 PUSH2 0x4049 JUMP JUMPDEST SWAP3 SWAP2 POP POP JUMP JUMPDEST PUSH1 0x0 DUP1 PUSH1 0x0 DUP1 PUSH1 0x0 PUSH1 0xA0 DUP7 DUP9 SUB SLT ISZERO PUSH2 0x4091 JUMPI PUSH2 0x4090 PUSH2 0x3AAA JUMP JUMPDEST JUMPDEST PUSH1 0x0 PUSH2 0x409F DUP9 DUP3 DUP10 ADD PUSH2 0x3B8B JUMP JUMPDEST SWAP6 POP POP PUSH1 0x20 PUSH2 0x40B0 DUP9 DUP3 DUP10 ADD PUSH2 0x3B8B JUMP JUMPDEST SWAP5 POP POP PUSH1 0x40 PUSH2 0x40C1 DUP9 DUP3 DUP10 ADD PUSH2 0x3D0E JUMP JUMPDEST SWAP4 POP POP PUSH1 0x60 PUSH2 0x40D2 DUP9 DUP3 DUP10 ADD PUSH2 0x4060 JUMP JUMPDEST SWAP3 POP POP PUSH1 0x80 PUSH2 0x40E3 DUP9 DUP3 DUP10 ADD PUSH2 0x3D0E JUMP JUMPDEST SWAP2 POP POP SWAP3 SWAP6 POP SWAP3 SWAP6 SWAP1 SWAP4 POP JUMP JUMPDEST PUSH1 0x0 DUP1 PUSH1 0x40 DUP4 DUP6 SUB SLT ISZERO PUSH2 0x4107 JUMPI PUSH2 0x4106 PUSH2 0x3AAA JUMP JUMPDEST JUMPDEST PUSH1 0x0 PUSH2 0x4115 DUP6 DUP3 DUP7 ADD PUSH2 0x3B8B JUMP JUMPDEST SWAP3 POP POP PUSH1 0x20 PUSH2 0x4126 DUP6 DUP3 DUP7 ADD PUSH2 0x3B8B JUMP JUMPDEST SWAP2 POP POP SWAP3 POP SWAP3 SWAP1 POP JUMP JUMPDEST PUSH1 0x0 DUP2 MLOAD SWAP1 POP SWAP2 SWAP1 POP JUMP JUMPDEST PUSH1 0x0 DUP3 DUP3 MSTORE PUSH1 0x20 DUP3 ADD SWAP1 POP SWAP3 SWAP2 POP POP JUMP JUMPDEST PUSH1 0x0 DUP2 SWAP1 POP PUSH1 0x20 DUP3 ADD SWAP1 POP SWAP2 SWAP1 POP JUMP JUMPDEST PUSH2 0x4165 DUP2 PUSH2 0x3B6A JUMP JUMPDEST DUP3 MSTORE POP POP JUMP JUMPDEST PUSH2 0x4174 DUP2 PUSH2 0x3EE7 JUMP JUMPDEST DUP3 MSTORE POP POP JUMP JUMPDEST PUSH2 0x120 DUP3 ADD PUSH1 0x0 DUP3 ADD MLOAD PUSH2 0x4191 PUSH1 0x0 DUP6 ADD DUP3 PUSH2 0x415C JUMP JUMPDEST POP PUSH1 0x20 DUP3 ADD MLOAD PUSH2 0x41A4 PUSH1 0x20 DUP6 ADD DUP3 PUSH2 0x3DE6 JUMP JUMPDEST POP PUSH1 0x40 DUP3 ADD MLOAD PUSH2 0x41B7 PUSH1 0x40 DUP6 ADD DUP3 PUSH2 0x416B JUMP JUMPDEST POP PUSH1 0x60 DUP3 ADD MLOAD PUSH2 0x41CA PUSH1 0x60 DUP6 ADD DUP3 PUSH2 0x415C JUMP JUMPDEST POP PUSH1 0x80 DUP3 ADD MLOAD PUSH2 0x41DD PUSH1 0x80 DUP6 ADD DUP3 PUSH2 0x415C JUMP JUMPDEST POP PUSH1 0xA0 DUP3 ADD MLOAD PUSH2 0x41F0 PUSH1 0xA0 DUP6 ADD DUP3 PUSH2 0x415C JUMP JUMPDEST POP PUSH1 0xC0 DUP3 ADD MLOAD PUSH2 0x4203 PUSH1 0xC0 DUP6 ADD DUP3 PUSH2 0x415C JUMP JUMPDEST POP PUSH1 0xE0 DUP3 ADD MLOAD PUSH2 0x4216 PUSH1 0xE0 DUP6 ADD DUP3 PUSH2 0x415C JUMP JUMPDEST POP PUSH2 0x100 DUP3 ADD MLOAD PUSH2 0x422B PUSH2 0x100 DUP6 ADD DUP3 PUSH2 0x415C JUMP JUMPDEST POP POP POP POP JUMP JUMPDEST PUSH1 0x0 PUSH2 0x423D DUP4 DUP4 PUSH2 0x417A JUMP JUMPDEST PUSH2 0x120 DUP4 ADD SWAP1 POP SWAP3 SWAP2 POP POP JUMP JUMPDEST PUSH1 0x0 PUSH1 0x20 DUP3 ADD SWAP1 POP SWAP2 SWAP1 POP JUMP JUMPDEST PUSH1 0x0 PUSH2 0x4262 DUP3 PUSH2 0x4130 JUMP JUMPDEST PUSH2 0x426C DUP2 DUP6 PUSH2 0x413B JUMP JUMPDEST SWAP4 POP PUSH2 0x4277 DUP4 PUSH2 0x414C JUMP JUMPDEST DUP1 PUSH1 0x0 JUMPDEST DUP4 DUP2 LT ISZERO PUSH2 0x42A8 JUMPI DUP2 MLOAD PUSH2 0x428F DUP9 DUP3 PUSH2 0x4231 JUMP JUMPDEST SWAP8 POP PUSH2 0x429A DUP4 PUSH2 0x424A JUMP JUMPDEST SWAP3 POP POP PUSH1 0x1 DUP2 ADD SWAP1 POP PUSH2 0x427B JUMP JUMPDEST POP DUP6 SWAP4 POP POP POP POP SWAP3 SWAP2 POP POP JUMP JUMPDEST PUSH1 0x0 PUSH1 0x20 DUP3 ADD SWAP1 POP DUP2 DUP2 SUB PUSH1 0x0 DUP4 ADD MSTORE PUSH2 0x42CF DUP2 DUP5 PUSH2 0x4257 JUMP JUMPDEST SWAP1 POP SWAP3 SWAP2 POP POP JUMP JUMPDEST PUSH1 0x0 DUP1 PUSH1 0x0 DUP1 PUSH1 0x0 DUP1 PUSH1 0xC0 DUP8 DUP10 SUB SLT ISZERO PUSH2 0x42F4 JUMPI PUSH2 0x42F3 PUSH2 0x3AAA JUMP JUMPDEST JUMPDEST PUSH1 0x0 PUSH2 0x4302 DUP10 DUP3 DUP11 ADD PUSH2 0x3C16 JUMP JUMPDEST SWAP7 POP POP PUSH1 0x20 PUSH2 0x4313 DUP10 DUP3 DUP11 ADD PUSH2 0x3B8B JUMP JUMPDEST SWAP6 POP POP PUSH1 0x40 PUSH2 0x4324 DUP10 DUP3 DUP11 ADD PUSH2 0x3C16 JUMP JUMPDEST SWAP5 POP POP PUSH1 0x60 PUSH2 0x4335 DUP10 DUP3 DUP11 ADD PUSH2 0x3B8B JUMP JUMPDEST SWAP4 POP POP PUSH1 0x80 PUSH2 0x4346 DUP10 DUP3 DUP11 ADD PUSH2 0x3B8B JUMP JUMPDEST SWAP3 POP POP PUSH1 0xA0 PUSH2 0x4357 DUP10 DUP3 DUP11 ADD PUSH2 0x3B8B JUMP JUMPDEST SWAP2 POP POP SWAP3 SWAP6 POP SWAP3 SWAP6 POP SWAP3 SWAP6 JUMP JUMPDEST PUSH1 0x0 DUP1 PUSH1 0x40 DUP4 DUP6 SUB SLT ISZERO PUSH2 0x437B JUMPI PUSH2 0x437A PUSH2 0x3AAA JUMP JUMPDEST JUMPDEST PUSH1 0x0 PUSH2 0x4389 DUP6 DUP3 DUP7 ADD PUSH2 0x3CAB JUMP JUMPDEST SWAP3 POP POP PUSH1 0x20 PUSH2 0x439A DUP6 DUP3 DUP7 ADD PUSH2 0x3B8B JUMP JUMPDEST SWAP2 POP POP SWAP3 POP SWAP3 SWAP1 POP JUMP JUMPDEST PUSH32 0x4E487B7100000000000000000000000000000000000000000000000000000000 PUSH1 0x0 MSTORE PUSH1 0x32 PUSH1 0x4 MSTORE PUSH1 0x24 PUSH1 0x0 REVERT JUMPDEST PUSH32 0x4E487B7100000000000000000000000000000000000000000000000000000000 PUSH1 0x0 MSTORE PUSH1 0x11 PUSH1 0x4 MSTORE PUSH1 0x24 PUSH1 0x0 REVERT JUMPDEST PUSH1 0x0 PUSH2 0x440D DUP3 PUSH2 0x3B6A JUMP JUMPDEST SWAP2 POP PUSH2 0x4418 DUP4 PUSH2 0x3B6A JUMP JUMPDEST SWAP3 POP DUP3 DUP3 MUL PUSH2 0x4426 DUP2 PUSH2 0x3B6A JUMP JUMPDEST SWAP2 POP DUP3 DUP3 DIV DUP5 EQ DUP4 ISZERO OR PUSH2 0x443D JUMPI PUSH2 0x443C PUSH2 0x43D3 JUMP JUMPDEST JUMPDEST POP SWAP3 SWAP2 POP POP JUMP JUMPDEST PUSH1 0x0 DUP3 DUP3 MSTORE PUSH1 0x20 DUP3 ADD SWAP1 POP SWAP3 SWAP2 POP POP JUMP JUMPDEST PUSH32 0x4661697246696768743A2057726F6E6720616D6F756E74000000000000000000 PUSH1 0x0 DUP3 ADD MSTORE POP JUMP JUMPDEST PUSH1 0x0 PUSH2 0x448B PUSH1 0x17 DUP4 PUSH2 0x4444 JUMP JUMPDEST SWAP2 POP PUSH2 0x4496 DUP3 PUSH2 0x4455 JUMP JUMPDEST PUSH1 0x20 DUP3 ADD SWAP1 POP SWAP2 SWAP1 POP JUMP JUMPDEST PUSH1 0x0 PUSH1 0x20 DUP3 ADD SWAP1 POP DUP2 DUP2 SUB PUSH1 0x0 DUP4 ADD MSTORE PUSH2 0x44BA DUP2 PUSH2 0x447E JUMP JUMPDEST SWAP1 POP SWAP2 SWAP1 POP JUMP JUMPDEST PUSH32 0x4661697246696768743A20596F752068617665206F70656E2066696768740000 PUSH1 0x0 DUP3 ADD MSTORE POP JUMP JUMPDEST PUSH1 0x0 PUSH2 0x44F7 PUSH1 0x1E DUP4 PUSH2 0x4444 JUMP JUMPDEST SWAP2 POP PUSH2 0x4502 DUP3 PUSH2 0x44C1 JUMP JUMPDEST PUSH1 0x20 DUP3 ADD SWAP1 POP SWAP2 SWAP1 POP JUMP JUMPDEST PUSH1 0x0 PUSH1 0x20 DUP3 ADD SWAP1 POP DUP2 DUP2 SUB PUSH1 0x0 DUP4 ADD MSTORE PUSH2 0x4526 DUP2 PUSH2 0x44EA JUMP JUMPDEST SWAP1 POP SWAP2 SWAP1 POP JUMP JUMPDEST PUSH32 0x4661697246696768743A2046696768742069732066756C6C0000000000000000 PUSH1 0x0 DUP3 ADD MSTORE POP JUMP JUMPDEST PUSH1 0x0 PUSH2 0x4563 PUSH1 0x18 DUP4 PUSH2 0x4444 JUMP JUMPDEST SWAP2 POP PUSH2 0x456E DUP3 PUSH2 0x452D JUMP JUMPDEST PUSH1 0x20 DUP3 ADD SWAP1 POP SWAP2 SWAP1 POP JUMP JUMPDEST PUSH1 0x0 PUSH1 0x20 DUP3 ADD SWAP1 POP DUP2 DUP2 SUB PUSH1 0x0 DUP4 ADD MSTORE PUSH2 0x4592 DUP2 PUSH2 0x4556 JUMP JUMPDEST SWAP1 POP SWAP2 SWAP1 POP JUMP JUMPDEST PUSH32 0x4661697246696768743A204669676874206973206F7665720000000000000000 PUSH1 0x0 DUP3 ADD MSTORE POP JUMP JUMPDEST PUSH1 0x0 PUSH2 0x45CF PUSH1 0x18 DUP4 PUSH2 0x4444 JUMP JUMPDEST SWAP2 POP PUSH2 0x45DA DUP3 PUSH2 0x4599 JUMP JUMPDEST PUSH1 0x20 DUP3 ADD SWAP1 POP SWAP2 SWAP1 POP JUMP JUMPDEST PUSH1 0x0 PUSH1 0x20 DUP3 ADD SWAP1 POP DUP2 DUP2 SUB PUSH1 0x0 DUP4 ADD MSTORE PUSH2 0x45FE DUP2 PUSH2 0x45C2 JUMP JUMPDEST SWAP1 POP SWAP2 SWAP1 POP JUMP JUMPDEST PUSH1 0x0 PUSH2 0x4610 DUP3 PUSH2 0x3B6A JUMP JUMPDEST SWAP2 POP PUSH2 0x461B DUP4 PUSH2 0x3B6A JUMP JUMPDEST SWAP3 POP DUP3 DUP3 SUB SWAP1 POP DUP2 DUP2 GT ISZERO PUSH2 0x4633 JUMPI PUSH2 0x4632 PUSH2 0x43D3 JUMP JUMPDEST JUMPDEST SWAP3 SWAP2 POP POP JUMP JUMPDEST PUSH32 0x4661697246696768743A20596F75277265206E6F742066696768742773206F77 PUSH1 0x0 DUP3 ADD MSTORE PUSH32 0x6E65720000000000000000000000000000000000000000000000000000000000 PUSH1 0x20 DUP3 ADD MSTORE POP JUMP JUMPDEST PUSH1 0x0 PUSH2 0x4695 PUSH1 0x23 DUP4 PUSH2 0x4444 JUMP JUMPDEST SWAP2 POP PUSH2 0x46A0 DUP3 PUSH2 0x4639 JUMP JUMPDEST PUSH1 0x40 DUP3 ADD SWAP1 POP SWAP2 SWAP1 POP JUMP JUMPDEST PUSH1 0x0 PUSH1 0x20 DUP3 ADD SWAP1 POP DUP2 DUP2 SUB PUSH1 0x0 DUP4 ADD MSTORE PUSH2 0x46C4 DUP2 PUSH2 0x4688 JUMP JUMPDEST SWAP1 POP SWAP2 SWAP1 POP JUMP JUMPDEST PUSH32 0x4661697246696768743A2046696768742068617320706C617965727300000000 PUSH1 0x0 DUP3 ADD MSTORE POP JUMP JUMPDEST PUSH1 0x0 PUSH2 0x4701 PUSH1 0x1C DUP4 PUSH2 0x4444 JUMP JUMPDEST SWAP2 POP PUSH2 0x470C DUP3 PUSH2 0x46CB JUMP JUMPDEST PUSH1 0x20 DUP3 ADD SWAP1 POP SWAP2 SWAP1 POP JUMP JUMPDEST PUSH1 0x0 PUSH1 0x20 DUP3 ADD SWAP1 POP DUP2 DUP2 SUB PUSH1 0x0 DUP4 ADD MSTORE PUSH2 0x4730 DUP2 PUSH2 0x46F4 JUMP JUMPDEST SWAP1 POP SWAP2 SWAP1 POP JUMP JUMPDEST PUSH1 0x0 DUP2 SWAP1 POP SWAP3 SWAP2 POP POP JUMP JUMPDEST POP JUMP JUMPDEST PUSH1 0x0 PUSH2 0x4752 PUSH1 0x0 DUP4 PUSH2 0x4737 JUMP JUMPDEST SWAP2 POP PUSH2 0x475D DUP3 PUSH2 0x4742 JUMP JUMPDEST PUSH1 0x0 DUP3 ADD SWAP1 POP SWAP2 SWAP1 POP JUMP JUMPDEST PUSH1 0x0 PUSH2 0x4773 DUP3 PUSH2 0x4745 JUMP JUMPDEST SWAP2 POP DUP2 SWAP1 POP SWAP2 SWAP1 POP JUMP JUMPDEST PUSH32 0x4661697246696768743A204E6F742073756363657373207061796D656E740000 PUSH1 0x0 DUP3 ADD MSTORE POP JUMP JUMPDEST PUSH1 0x0 PUSH2 0x47B3 PUSH1 0x1E DUP4 PUSH2 0x4444 JUMP JUMPDEST SWAP2 POP PUSH2 0x47BE DUP3 PUSH2 0x477D JUMP JUMPDEST PUSH1 0x20 DUP3 ADD SWAP1 POP SWAP2 SWAP1 POP JUMP JUMPDEST PUSH1 0x0 PUSH1 0x20 DUP3 ADD SWAP1 POP DUP2 DUP2 SUB PUSH1 0x0 DUP4 ADD MSTORE PUSH2 0x47E2 DUP2 PUSH2 0x47A6 JUMP JUMPDEST SWAP1 POP SWAP2 SWAP1 POP JUMP JUMPDEST PUSH32 0x416363657373436F6E74726F6C3A2063616E206F6E6C792072656E6F756E6365 PUSH1 0x0 DUP3 ADD MSTORE PUSH32 0x20726F6C657320666F722073656C660000000000000000000000000000000000 PUSH1 0x20 DUP3 ADD MSTORE POP JUMP JUMPDEST PUSH1 0x0 PUSH2 0x4845 PUSH1 0x2F DUP4 PUSH2 0x4444 JUMP JUMPDEST SWAP2 POP PUSH2 0x4850 DUP3 PUSH2 0x47E9 JUMP JUMPDEST PUSH1 0x40 DUP3 ADD SWAP1 POP SWAP2 SWAP1 POP JUMP JUMPDEST PUSH1 0x0 PUSH1 0x20 DUP3 ADD SWAP1 POP DUP2 DUP2 SUB PUSH1 0x0 DUP4 ADD MSTORE PUSH2 0x4874 DUP2 PUSH2 0x4838 JUMP JUMPDEST SWAP1 POP SWAP2 SWAP1 POP JUMP JUMPDEST PUSH32 0x4E487B7100000000000000000000000000000000000000000000000000000000 PUSH1 0x0 MSTORE PUSH1 0x41 PUSH1 0x4 MSTORE PUSH1 0x24 PUSH1 0x0 REVERT JUMPDEST PUSH1 0x0 PUSH2 0x48B5 DUP3 PUSH2 0x3B6A JUMP JUMPDEST SWAP2 POP PUSH32 0xFFFFFFFFFFFFFFFFFFFFFFFFFFFFFFFFFFFFFFFFFFFFFFFFFFFFFFFFFFFFFFFF DUP3 SUB PUSH2 0x48E7 JUMPI PUSH2 0x48E6 PUSH2 0x43D3 JUMP JUMPDEST JUMPDEST PUSH1 0x1 DUP3 ADD SWAP1 POP SWAP2 SWAP1 POP JUMP JUMPDEST PUSH32 0x4661697246696768743A204E6F7420616C6C6F776564207061796D656E742074 PUSH1 0x0 DUP3 ADD MSTORE PUSH32 0x7970650000000000000000000000000000000000000000000000000000000000 PUSH1 0x20 DUP3 ADD MSTORE POP JUMP JUMPDEST PUSH1 0x0 PUSH2 0x494E PUSH1 0x23 DUP4 PUSH2 0x4444 JUMP JUMPDEST SWAP2 POP PUSH2 0x4959 DUP3 PUSH2 0x48F2 JUMP JUMPDEST PUSH1 0x40 DUP3 ADD SWAP1 POP SWAP2 SWAP1 POP JUMP JUMPDEST PUSH1 0x0 PUSH1 0x20 DUP3 ADD SWAP1 POP DUP2 DUP2 SUB PUSH1 0x0 DUP4 ADD MSTORE PUSH2 0x497D DUP2 PUSH2 0x4941 JUMP JUMPDEST SWAP1 POP SWAP2 SWAP1 POP JUMP JUMPDEST PUSH32 0x4661697246696768743A2057726F6E6720726F756E647320616D6F756E740000 PUSH1 0x0 DUP3 ADD MSTORE POP JUMP JUMPDEST PUSH1 0x0 PUSH2 0x49BA PUSH1 0x1E DUP4 PUSH2 0x4444 JUMP JUMPDEST SWAP2 POP PUSH2 0x49C5 DUP3 PUSH2 0x4984 JUMP JUMPDEST PUSH1 0x20 DUP3 ADD SWAP1 POP SWAP2 SWAP1 POP JUMP JUMPDEST PUSH1 0x0 PUSH1 0x20 DUP3 ADD SWAP1 POP DUP2 DUP2 SUB PUSH1 0x0 DUP4 ADD MSTORE PUSH2 0x49E9 DUP2 PUSH2 0x49AD JUMP JUMPDEST SWAP1 POP SWAP2 SWAP1 POP JUMP JUMPDEST PUSH32 0x4661697246696768743A20546F6F206D75636820706C61796572730000000000 PUSH1 0x0 DUP3 ADD MSTORE POP JUMP JUMPDEST PUSH1 0x0 PUSH2 0x4A26 PUSH1 0x1B DUP4 PUSH2 0x4444 JUMP JUMPDEST SWAP2 POP PUSH2 0x4A31 DUP3 PUSH2 0x49F0 JUMP JUMPDEST PUSH1 0x20 DUP3 ADD SWAP1 POP SWAP2 SWAP1 POP JUMP JUMPDEST PUSH1 0x0 PUSH1 0x20 DUP3 ADD SWAP1 POP DUP2 DUP2 SUB PUSH1 0x0 DUP4 ADD MSTORE PUSH2 0x4A55 DUP2 PUSH2 0x4A19 JUMP JUMPDEST SWAP1 POP SWAP2 SWAP1 POP JUMP JUMPDEST PUSH32 0x4661697246696768743A20546F6F206C6974746C6520616D6F756E7420706572 PUSH1 0x0 DUP3 ADD MSTORE PUSH32 0x20726F756E640000000000000000000000000000000000000000000000000000 PUSH1 0x20 DUP3 ADD MSTORE POP JUMP JUMPDEST PUSH1 0x0 PUSH2 0x4AB8 PUSH1 0x26 DUP4 PUSH2 0x4444 JUMP JUMPDEST SWAP2 POP PUSH2 0x4AC3 DUP3 PUSH2 0x4A5C JUMP JUMPDEST PUSH1 0x40 DUP3 ADD SWAP1 POP SWAP2 SWAP1 POP JUMP JUMPDEST PUSH1 0x0 PUSH1 0x20 DUP3 ADD SWAP1 POP DUP2 DUP2 SUB PUSH1 0x0 DUP4 ADD MSTORE PUSH2 0x4AE7 DUP2 PUSH2 0x4AAB JUMP JUMPDEST SWAP1 POP SWAP2 SWAP1 POP JUMP JUMPDEST PUSH32 0x4661697246696768743A20596F7520646F6E7420686176652061636365737300 PUSH1 0x0 DUP3 ADD MSTORE POP JUMP JUMPDEST PUSH1 0x0 PUSH2 0x4B24 PUSH1 0x1F DUP4 PUSH2 0x4444 JUMP JUMPDEST SWAP2 POP PUSH2 0x4B2F DUP3 PUSH2 0x4AEE JUMP JUMPDEST PUSH1 0x20 DUP3 ADD SWAP1 POP SWAP2 SWAP1 POP JUMP JUMPDEST PUSH1 0x0 PUSH1 0x20 DUP3 ADD SWAP1 POP DUP2 DUP2 SUB PUSH1 0x0 DUP4 ADD MSTORE PUSH2 0x4B53 DUP2 PUSH2 0x4B17 JUMP JUMPDEST SWAP1 POP SWAP2 SWAP1 POP JUMP JUMPDEST PUSH32 0x4661697246696768743A20416C72656164792073656E64656400000000000000 PUSH1 0x0 DUP3 ADD MSTORE POP JUMP JUMPDEST PUSH1 0x0 PUSH2 0x4B90 PUSH1 0x19 DUP4 PUSH2 0x4444 JUMP JUMPDEST SWAP2 POP PUSH2 0x4B9B DUP3 PUSH2 0x4B5A JUMP JUMPDEST PUSH1 0x20 DUP3 ADD SWAP1 POP SWAP2 SWAP1 POP JUMP JUMPDEST PUSH1 0x0 PUSH1 0x20 DUP3 ADD SWAP1 POP DUP2 DUP2 SUB PUSH1 0x0 DUP4 ADD MSTORE PUSH2 0x4BBF DUP2 PUSH2 0x4B83 JUMP JUMPDEST SWAP1 POP SWAP2 SWAP1 POP JUMP JUMPDEST PUSH32 0x496E76616C696420696E64657800000000000000000000000000000000000000 PUSH1 0x0 DUP3 ADD MSTORE POP JUMP JUMPDEST PUSH1 0x0 PUSH2 0x4BFC PUSH1 0xD DUP4 PUSH2 0x4444 JUMP JUMPDEST SWAP2 POP PUSH2 0x4C07 DUP3 PUSH2 0x4BC6 JUMP JUMPDEST PUSH1 0x20 DUP3 ADD SWAP1 POP SWAP2 SWAP1 POP JUMP JUMPDEST PUSH1 0x0 PUSH1 0x20 DUP3 ADD SWAP1 POP DUP2 DUP2 SUB PUSH1 0x0 DUP4 ADD MSTORE PUSH2 0x4C2B DUP2 PUSH2 0x4BEF JUMP JUMPDEST SWAP1 POP SWAP2 SWAP1 POP JUMP JUMPDEST PUSH1 0x0 PUSH2 0x4C3D DUP3 PUSH2 0x3B6A JUMP JUMPDEST SWAP2 POP PUSH2 0x4C48 DUP4 PUSH2 0x3B6A JUMP JUMPDEST SWAP3 POP DUP3 DUP3 ADD SWAP1 POP DUP1 DUP3 GT ISZERO PUSH2 0x4C60 JUMPI PUSH2 0x4C5F PUSH2 0x43D3 JUMP JUMPDEST JUMPDEST SWAP3 SWAP2 POP POP JUMP JUMPDEST PUSH32 0x496E697469616C697A61626C653A20636F6E747261637420697320616C726561 PUSH1 0x0 DUP3 ADD MSTORE PUSH32 0x647920696E697469616C697A6564000000000000000000000000000000000000 PUSH1 0x20 DUP3 ADD MSTORE POP JUMP JUMPDEST PUSH1 0x0 PUSH2 0x4CC2 PUSH1 0x2E DUP4 PUSH2 0x4444 JUMP JUMPDEST SWAP2 POP PUSH2 0x4CCD DUP3 PUSH2 0x4C66 JUMP JUMPDEST PUSH1 0x40 DUP3 ADD SWAP1 POP SWAP2 SWAP1 POP JUMP JUMPDEST PUSH1 0x0 PUSH1 0x20 DUP3 ADD SWAP1 POP DUP2 DUP2 SUB PUSH1 0x0 DUP4 ADD MSTORE PUSH2 0x4CF1 DUP2 PUSH2 0x4CB5 JUMP JUMPDEST SWAP1 POP SWAP2 SWAP1 POP JUMP JUMPDEST PUSH1 0x0 DUP2 SWAP1 POP SWAP2 SWAP1 POP JUMP JUMPDEST PUSH1 0x0 PUSH2 0x4D1D PUSH2 0x4D18 PUSH2 0x4D13 DUP5 PUSH2 0x4CF8 JUMP JUMPDEST PUSH2 0x3EA9 JUMP JUMPDEST PUSH2 0x403C JUMP JUMPDEST SWAP1 POP SWAP2 SWAP1 POP JUMP JUMPDEST PUSH2 0x4D2D DUP2 PUSH2 0x4D02 JUMP JUMPDEST DUP3 MSTORE POP POP JUMP JUMPDEST PUSH1 0x0 PUSH1 0x20 DUP3 ADD SWAP1 POP PUSH2 0x4D48 PUSH1 0x0 DUP4 ADD DUP5 PUSH2 0x4D24 JUMP JUMPDEST SWAP3 SWAP2 POP POP JUMP JUMPDEST PUSH32 0x5061757361626C653A2070617573656400000000000000000000000000000000 PUSH1 0x0 DUP3 ADD MSTORE POP JUMP JUMPDEST PUSH1 0x0 PUSH2 0x4D84 PUSH1 0x10 DUP4 PUSH2 0x4444 JUMP JUMPDEST SWAP2 POP PUSH2 0x4D8F DUP3 PUSH2 0x4D4E JUMP JUMPDEST PUSH1 0x20 DUP3 ADD SWAP1 POP SWAP2 SWAP1 POP JUMP JUMPDEST PUSH1 0x0 PUSH1 0x20 DUP3 ADD SWAP1 POP DUP2 DUP2 SUB PUSH1 0x0 DUP4 ADD MSTORE PUSH2 0x4DB3 DUP2 PUSH2 0x4D77 JUMP JUMPDEST SWAP1 POP SWAP2 SWAP1 POP JUMP JUMPDEST PUSH1 0x0 PUSH1 0x60 DUP3 ADD SWAP1 POP PUSH2 0x4DCF PUSH1 0x0 DUP4 ADD DUP7 PUSH2 0x3E9A JUMP JUMPDEST PUSH2 0x4DDC PUSH1 0x20 DUP4 ADD DUP6 PUSH2 0x3E9A JUMP JUMPDEST PUSH2 0x4DE9 PUSH1 0x40 DUP4 ADD DUP5 PUSH2 0x3C58 JUMP JUMPDEST SWAP5 SWAP4 POP POP POP POP JUMP JUMPDEST PUSH32 0x5265656E7472616E637947756172643A207265656E7472616E742063616C6C00 PUSH1 0x0 DUP3 ADD MSTORE POP JUMP JUMPDEST PUSH1 0x0 PUSH2 0x4E27 PUSH1 0x1F DUP4 PUSH2 0x4444 JUMP JUMPDEST SWAP2 POP PUSH2 0x4E32 DUP3 PUSH2 0x4DF1 JUMP JUMPDEST PUSH1 0x20 DUP3 ADD SWAP1 POP SWAP2 SWAP1 POP JUMP JUMPDEST PUSH1 0x0 PUSH1 0x20 DUP3 ADD SWAP1 POP DUP2 DUP2 SUB PUSH1 0x0 DUP4 ADD MSTORE PUSH2 0x4E56 DUP2 PUSH2 0x4E1A JUMP JUMPDEST SWAP1 POP SWAP2 SWAP1 POP JUMP JUMPDEST PUSH1 0x0 PUSH1 0x40 DUP3 ADD SWAP1 POP PUSH2 0x4E72 PUSH1 0x0 DUP4 ADD DUP6 PUSH2 0x3E9A JUMP JUMPDEST PUSH2 0x4E7F PUSH1 0x20 DUP4 ADD DUP5 PUSH2 0x3C58 JUMP JUMPDEST SWAP4 SWAP3 POP POP POP JUMP JUMPDEST PUSH1 0x0 PUSH1 0x20 DUP3 ADD SWAP1 POP PUSH2 0x4E9B PUSH1 0x0 DUP4 ADD DUP5 PUSH2 0x3E9A JUMP JUMPDEST SWAP3 SWAP2 POP POP JUMP JUMPDEST PUSH1 0x0 DUP2 SWAP1 POP SWAP2 SWAP1 POP JUMP JUMPDEST PUSH2 0x4EBC PUSH2 0x4EB7 DUP3 PUSH2 0x3B6A JUMP JUMPDEST PUSH2 0x4EA1 JUMP JUMPDEST DUP3 MSTORE POP POP JUMP JUMPDEST PUSH1 0x0 DUP2 PUSH1 0x60 SHL SWAP1 POP SWAP2 SWAP1 POP JUMP JUMPDEST PUSH1 0x0 PUSH2 0x4EDA DUP3 PUSH2 0x4EC2 JUMP JUMPDEST SWAP1 POP SWAP2 SWAP1 POP JUMP JUMPDEST PUSH1 0x0 PUSH2 0x4EEC DUP3 PUSH2 0x4ECF JUMP JUMPDEST SWAP1 POP SWAP2 SWAP1 POP JUMP JUMPDEST PUSH2 0x4F04 PUSH2 0x4EFF DUP3 PUSH2 0x3BED JUMP JUMPDEST PUSH2 0x4EE1 JUMP JUMPDEST DUP3 MSTORE POP POP JUMP JUMPDEST PUSH1 0x0 PUSH2 0x4F16 DUP3 DUP9 PUSH2 0x4EAB JUMP JUMPDEST PUSH1 0x20 DUP3 ADD SWAP2 POP PUSH2 0x4F26 DUP3 DUP8 PUSH2 0x4EAB JUMP JUMPDEST PUSH1 0x20 DUP3 ADD SWAP2 POP PUSH2 0x4F36 DUP3 DUP7 PUSH2 0x4EF3 JUMP JUMPDEST PUSH1 0x14 DUP3 ADD SWAP2 POP PUSH2 0x4F46 DUP3 DUP6 PUSH2 0x4EF3 JUMP JUMPDEST PUSH1 0x14 DUP3 ADD SWAP2 POP PUSH2 0x4F56 DUP3 DUP5 PUSH2 0x4EF3 JUMP JUMPDEST PUSH1 0x14 DUP3 ADD SWAP2 POP DUP2 SWAP1 POP SWAP7 SWAP6 POP POP POP POP POP POP JUMP JUMPDEST PUSH1 0x0 DUP2 SWAP1 POP SWAP3 SWAP2 POP POP JUMP JUMPDEST PUSH32 0x19457468657265756D205369676E6564204D6573736167653A0A333200000000 PUSH1 0x0 DUP3 ADD MSTORE POP JUMP JUMPDEST PUSH1 0x0 PUSH2 0x4FAA PUSH1 0x1C DUP4 PUSH2 0x4F69 JUMP JUMPDEST SWAP2 POP PUSH2 0x4FB5 DUP3 PUSH2 0x4F74 JUMP JUMPDEST PUSH1 0x1C DUP3 ADD SWAP1 POP SWAP2 SWAP1 POP JUMP JUMPDEST PUSH1 0x0 DUP2 SWAP1 POP SWAP2 SWAP1 POP JUMP JUMPDEST PUSH2 0x4FDB PUSH2 0x4FD6 DUP3 PUSH2 0x3CED JUMP JUMPDEST PUSH2 0x4FC0 JUMP JUMPDEST DUP3 MSTORE POP POP JUMP JUMPDEST PUSH1 0x0 PUSH2 0x4FEC DUP3 PUSH2 0x4F9D JUMP JUMPDEST SWAP2 POP PUSH2 0x4FF8 DUP3 DUP5 PUSH2 0x4FCA JUMP JUMPDEST PUSH1 0x20 DUP3 ADD SWAP2 POP DUP2 SWAP1 POP SWAP3 SWAP2 POP POP JUMP JUMPDEST PUSH2 0x5010 DUP2 PUSH2 0x403C JUMP JUMPDEST DUP3 MSTORE POP POP JUMP JUMPDEST PUSH1 0x0 PUSH1 0x80 DUP3 ADD SWAP1 POP PUSH2 0x502B PUSH1 0x0 DUP4 ADD DUP8 PUSH2 0x3D50 JUMP JUMPDEST PUSH2 0x5038 PUSH1 0x20 DUP4 ADD DUP7 PUSH2 0x5007 JUMP JUMPDEST PUSH2 0x5045 PUSH1 0x40 DUP4 ADD DUP6 PUSH2 0x3D50 JUMP JUMPDEST PUSH2 0x5052 PUSH1 0x60 DUP4 ADD DUP5 PUSH2 0x3D50 JUMP JUMPDEST SWAP6 SWAP5 POP POP POP POP POP JUMP JUMPDEST PUSH32 0x4E487B7100000000000000000000000000000000000000000000000000000000 PUSH1 0x0 MSTORE PUSH1 0x12 PUSH1 0x4 MSTORE PUSH1 0x24 PUSH1 0x0 REVERT JUMPDEST PUSH1 0x0 PUSH2 0x5095 DUP3 PUSH2 0x3B6A JUMP JUMPDEST SWAP2 POP PUSH2 0x50A0 DUP4 PUSH2 0x3B6A JUMP JUMPDEST SWAP3 POP DUP3 PUSH2 0x50B0 JUMPI PUSH2 0x50AF PUSH2 0x505B JUMP JUMPDEST JUMPDEST DUP3 DUP3 DIV SWAP1 POP SWAP3 SWAP2 POP POP JUMP JUMPDEST PUSH32 0x496E697469616C697A61626C653A20636F6E7472616374206973206E6F742069 PUSH1 0x0 DUP3 ADD MSTORE PUSH32 0x6E697469616C697A696E67000000000000000000000000000000000000000000 PUSH1 0x20 DUP3 ADD MSTORE POP JUMP JUMPDEST PUSH1 0x0 PUSH2 0x5117 PUSH1 0x2B DUP4 PUSH2 0x4444 JUMP JUMPDEST SWAP2 POP PUSH2 0x5122 DUP3 PUSH2 0x50BB JUMP JUMPDEST PUSH1 0x40 DUP3 ADD SWAP1 POP SWAP2 SWAP1 POP JUMP JUMPDEST PUSH1 0x0 PUSH1 0x20 DUP3 ADD SWAP1 POP DUP2 DUP2 SUB PUSH1 0x0 DUP4 ADD MSTORE PUSH2 0x5146 DUP2 PUSH2 0x510A JUMP JUMPDEST SWAP1 POP SWAP2 SWAP1 POP JUMP JUMPDEST PUSH2 0x5156 DUP2 PUSH2 0x3B34 JUMP JUMPDEST DUP2 EQ PUSH2 0x5161 JUMPI PUSH1 0x0 DUP1 REVERT JUMPDEST POP JUMP JUMPDEST PUSH1 0x0 DUP2 MLOAD SWAP1 POP PUSH2 0x5173 DUP2 PUSH2 0x514D JUMP JUMPDEST SWAP3 SWAP2 POP POP JUMP JUMPDEST PUSH1 0x0 PUSH1 0x20 DUP3 DUP5 SUB SLT ISZERO PUSH2 0x518F JUMPI PUSH2 0x518E PUSH2 0x3AAA JUMP JUMPDEST JUMPDEST PUSH1 0x0 PUSH2 0x519D DUP5 DUP3 DUP6 ADD PUSH2 0x5164 JUMP JUMPDEST SWAP2 POP POP SWAP3 SWAP2 POP POP JUMP JUMPDEST PUSH32 0x5361666545524332303A204552433230206F7065726174696F6E20646964206E PUSH1 0x0 DUP3 ADD MSTORE PUSH32 0x6F74207375636365656400000000000000000000000000000000000000000000 PUSH1 0x20 DUP3 ADD MSTORE POP JUMP JUMPDEST PUSH1 0x0 PUSH2 0x5202 PUSH1 0x2A DUP4 PUSH2 0x4444 JUMP JUMPDEST SWAP2 POP PUSH2 0x520D DUP3 PUSH2 0x51A6 JUMP JUMPDEST PUSH1 0x40 DUP3 ADD SWAP1 POP SWAP2 SWAP1 POP JUMP JUMPDEST PUSH1 0x0 PUSH1 0x20 DUP3 ADD SWAP1 POP DUP2 DUP2 SUB PUSH1 0x0 DUP4 ADD MSTORE PUSH2 0x5231 DUP2 PUSH2 0x51F5 JUMP JUMPDEST SWAP1 POP SWAP2 SWAP1 POP JUMP JUMPDEST PUSH32 0x416363657373436F6E74726F6C3A206163636F756E7420000000000000000000 PUSH1 0x0 DUP3 ADD MSTORE POP JUMP JUMPDEST PUSH1 0x0 PUSH2 0x526E PUSH1 0x17 DUP4 PUSH2 0x4F69 JUMP JUMPDEST SWAP2 POP PUSH2 0x5279 DUP3 PUSH2 0x5238 JUMP JUMPDEST PUSH1 0x17 DUP3 ADD SWAP1 POP SWAP2 SWAP1 POP JUMP JUMPDEST PUSH1 0x0 DUP2 MLOAD SWAP1 POP SWAP2 SWAP1 POP JUMP JUMPDEST PUSH1 0x0 JUMPDEST DUP4 DUP2 LT ISZERO PUSH2 0x52AD JUMPI DUP1 DUP3 ADD MLOAD DUP2 DUP5 ADD MSTORE PUSH1 0x20 DUP2 ADD SWAP1 POP PUSH2 0x5292 JUMP JUMPDEST PUSH1 0x0 DUP5 DUP5 ADD MSTORE POP POP POP POP JUMP JUMPDEST PUSH1 0x0 PUSH2 0x52C4 DUP3 PUSH2 0x5284 JUMP JUMPDEST PUSH2 0x52CE DUP2 DUP6 PUSH2 0x4F69 JUMP JUMPDEST SWAP4 POP PUSH2 0x52DE DUP2 DUP6 PUSH1 0x20 DUP7 ADD PUSH2 0x528F JUMP JUMPDEST DUP1 DUP5 ADD SWAP2 POP POP SWAP3 SWAP2 POP POP JUMP JUMPDEST PUSH32 0x206973206D697373696E6720726F6C6520000000000000000000000000000000 PUSH1 0x0 DUP3 ADD MSTORE POP JUMP JUMPDEST PUSH1 0x0 PUSH2 0x5320 PUSH1 0x11 DUP4 PUSH2 0x4F69 JUMP JUMPDEST SWAP2 POP PUSH2 0x532B DUP3 PUSH2 0x52EA JUMP JUMPDEST PUSH1 0x11 DUP3 ADD SWAP1 POP SWAP2 SWAP1 POP JUMP JUMPDEST PUSH1 0x0 PUSH2 0x5341 DUP3 PUSH2 0x5261 JUMP JUMPDEST SWAP2 POP PUSH2 0x534D DUP3 DUP6 PUSH2 0x52B9 JUMP JUMPDEST SWAP2 POP PUSH2 0x5358 DUP3 PUSH2 0x5313 JUMP JUMPDEST SWAP2 POP PUSH2 0x5364 DUP3 DUP5 PUSH2 0x52B9 JUMP JUMPDEST SWAP2 POP DUP2 SWAP1 POP SWAP4 SWAP3 POP POP POP JUMP JUMPDEST PUSH1 0x0 PUSH1 0x1F NOT PUSH1 0x1F DUP4 ADD AND SWAP1 POP SWAP2 SWAP1 POP JUMP JUMPDEST PUSH1 0x0 PUSH2 0x538C DUP3 PUSH2 0x5284 JUMP JUMPDEST PUSH2 0x5396 DUP2 DUP6 PUSH2 0x4444 JUMP JUMPDEST SWAP4 POP PUSH2 0x53A6 DUP2 DUP6 PUSH1 0x20 DUP7 ADD PUSH2 0x528F JUMP JUMPDEST PUSH2 0x53AF DUP2 PUSH2 0x5370 JUMP JUMPDEST DUP5 ADD SWAP2 POP POP SWAP3 SWAP2 POP POP JUMP JUMPDEST PUSH1 0x0 PUSH1 0x20 DUP3 ADD SWAP1 POP DUP2 DUP2 SUB PUSH1 0x0 DUP4 ADD MSTORE PUSH2 0x53D4 DUP2 DUP5 PUSH2 0x5381 JUMP JUMPDEST SWAP1 POP SWAP3 SWAP2 POP POP JUMP JUMPDEST PUSH32 0x5061757361626C653A206E6F7420706175736564000000000000000000000000 PUSH1 0x0 DUP3 ADD MSTORE POP JUMP JUMPDEST PUSH1 0x0 PUSH2 0x5412 PUSH1 0x14 DUP4 PUSH2 0x4444 JUMP JUMPDEST SWAP2 POP PUSH2 0x541D DUP3 PUSH2 0x53DC JUMP JUMPDEST PUSH1 0x20 DUP3 ADD SWAP1 POP SWAP2 SWAP1 POP JUMP JUMPDEST PUSH1 0x0 PUSH1 0x20 DUP3 ADD SWAP1 POP DUP2 DUP2 SUB PUSH1 0x0 DUP4 ADD MSTORE PUSH2 0x5441 DUP2 PUSH2 0x5405 JUMP JUMPDEST SWAP1 POP SWAP2 SWAP1 POP JUMP JUMPDEST PUSH1 0x0 PUSH2 0x5453 DUP3 PUSH2 0x3B6A JUMP JUMPDEST SWAP2 POP PUSH1 0x0 DUP3 SUB PUSH2 0x5466 JUMPI PUSH2 0x5465 PUSH2 0x43D3 JUMP JUMPDEST JUMPDEST PUSH1 0x1 DUP3 SUB SWAP1 POP SWAP2 SWAP1 POP JUMP JUMPDEST PUSH32 0x537472696E67733A20686578206C656E67746820696E73756666696369656E74 PUSH1 0x0 DUP3 ADD MSTORE POP JUMP JUMPDEST PUSH1 0x0 PUSH2 0x54A7 PUSH1 0x20 DUP4 PUSH2 0x4444 JUMP JUMPDEST SWAP2 POP PUSH2 0x54B2 DUP3 PUSH2 0x5471 JUMP JUMPDEST PUSH1 0x20 DUP3 ADD SWAP1 POP SWAP2 SWAP1 POP JUMP JUMPDEST PUSH1 0x0 PUSH1 0x20 DUP3 ADD SWAP1 POP DUP2 DUP2 SUB PUSH1 0x0 DUP4 ADD MSTORE PUSH2 0x54D6 DUP2 PUSH2 0x549A JUMP JUMPDEST SWAP1 POP SWAP2 SWAP1 POP JUMP JUMPDEST PUSH32 0x416464726573733A20696E73756666696369656E742062616C616E636520666F PUSH1 0x0 DUP3 ADD MSTORE PUSH32 0x722063616C6C0000000000000000000000000000000000000000000000000000 PUSH1 0x20 DUP3 ADD MSTORE POP JUMP JUMPDEST PUSH1 0x0 PUSH2 0x5539 PUSH1 0x26 DUP4 PUSH2 0x4444 JUMP JUMPDEST SWAP2 POP PUSH2 0x5544 DUP3 PUSH2 0x54DD JUMP JUMPDEST PUSH1 0x40 DUP3 ADD SWAP1 POP SWAP2 SWAP1 POP JUMP JUMPDEST PUSH1 0x0 PUSH1 0x20 DUP3 ADD SWAP1 POP DUP2 DUP2 SUB PUSH1 0x0 DUP4 ADD MSTORE PUSH2 0x5568 DUP2 PUSH2 0x552C JUMP JUMPDEST SWAP1 POP SWAP2 SWAP1 POP JUMP JUMPDEST PUSH1 0x0 DUP2 MLOAD SWAP1 POP SWAP2 SWAP1 POP JUMP JUMPDEST PUSH1 0x0 PUSH2 0x5585 DUP3 PUSH2 0x556F JUMP JUMPDEST PUSH2 0x558F DUP2 DUP6 PUSH2 0x4737 JUMP JUMPDEST SWAP4 POP PUSH2 0x559F DUP2 DUP6 PUSH1 0x20 DUP7 ADD PUSH2 0x528F JUMP JUMPDEST DUP1 DUP5 ADD SWAP2 POP POP SWAP3 SWAP2 POP POP JUMP JUMPDEST PUSH1 0x0 PUSH2 0x55B7 DUP3 DUP5 PUSH2 0x557A JUMP JUMPDEST SWAP2 POP DUP2 SWAP1 POP SWAP3 SWAP2 POP POP JUMP JUMPDEST PUSH32 0x416464726573733A2063616C6C20746F206E6F6E2D636F6E7472616374000000 PUSH1 0x0 DUP3 ADD MSTORE POP JUMP JUMPDEST PUSH1 0x0 PUSH2 0x55F8 PUSH1 0x1D DUP4 PUSH2 0x4444 JUMP JUMPDEST SWAP2 POP PUSH2 0x5603 DUP3 PUSH2 0x55C2 JUMP JUMPDEST PUSH1 0x20 DUP3 ADD SWAP1 POP SWAP2 SWAP1 POP JUMP JUMPDEST PUSH1 0x0 PUSH1 0x20 DUP3 ADD SWAP1 POP DUP2 DUP2 SUB PUSH1 0x0 DUP4 ADD MSTORE PUSH2 0x5627 DUP2 PUSH2 0x55EB JUMP JUMPDEST SWAP1 POP SWAP2 SWAP1 POP JUMP INVALID LOG2 PUSH5 0x6970667358 0x22 SLT KECCAK256 PUSH11 0xB0B87B8B5A5DA574187609 CREATE2 POP SWAP6 0x24 0xCB 0xB1 0xA7 PUSH5 0x791ABC1B77 0xDB BALANCE 0xB5 0xC7 0xF8 PUSH26 0xBF64736F6C634300081300330000000000000000000000000000 "},"methodIdentifiers":{"DEFAULT_ADMIN_ROLE()":"a217fddf","changeFee(uint256)":"6a1db1bf","changeFeeCollector(address)":"9245290d","changeMaxPlayers(uint256)":"60653c44","changeMaxRounds(uint256)":"d10171b7","changeMinAmountPerRound(address,uint256)":"fbc28fd6","changeSigner(address)":"aad2b723","create(uint256,uint256,uint256,address)":"477cdbb5","currentlyBusy(address)":"9c09bffc","fights(uint256)":"4315e723","finish(uint256,uint256,bytes32,uint8,bytes32)":"58b7f322","getChunkFights(uint256,uint256)":"6a2eae9f","getFightPlayers(uint256)":"3a853019","getPlayerFullFights(address,uint256)":"bd36e983","getRoleAdmin(bytes32)":"248a9ca3","grantRole(bytes32,address)":"2f2ff15d","hasRole(bytes32,address)":"91d14854","initialize(address,uint256,address,uint256,uint256,uint256)":"80d2ac1c","join(uint256)":"049878f3","lastPlayerFight(address)":"115ecd94","maxPlayers()":"4c2412a2","maxRounds()":"1faf969b","minAmountPerRound(address)":"144a536a","pause()":"8456cb59","paused()":"5c975abb","playerClaimed(address,uint256)":"550b32da","renounceRole(bytes32,address)":"36568abe","revokeRole(bytes32,address)":"d547741f","supportsInterface(bytes4)":"01ffc9a7","unpause()":"3f4ba83a","withdraw(uint256)":"2e1a7d4d"}},"storageLayout":{"storage":[{"astId":415,"contract":"contracts/FairFight.sol:FairFight","label":"_initialized","offset":0,"slot":"0","type":"t_uint8"},{"astId":418,"contract":"contracts/FairFight.sol:FairFight","label":"_initializing","offset":1,"slot":"0","type":"t_bool"},{"astId":1102,"contract":"contracts/FairFight.sol:FairFight","label":"__gap","offset":0,"slot":"1","type":"t_array(t_uint256)50_storage"},{"astId":598,"contract":"contracts/FairFight.sol:FairFight","label":"_paused","offset":0,"slot":"51","type":"t_bool"},{"astId":703,"contract":"contracts/FairFight.sol:FairFight","label":"__gap","offset":0,"slot":"52","type":"t_array(t_uint256)49_storage"},{"astId":1395,"contract":"contracts/FairFight.sol:FairFight","label":"__gap","offset":0,"slot":"101","type":"t_array(t_uint256)50_storage"},{"astId":39,"contract":"contracts/FairFight.sol:FairFight","label":"_roles","offset":0,"slot":"151","type":"t_mapping(t_bytes32,t_struct(RoleData)34_storage)"},{"astId":334,"contract":"contracts/FairFight.sol:FairFight","label":"__gap","offset":0,"slot":"152","type":"t_array(t_uint256)49_storage"},{"astId":718,"contract":"contracts/FairFight.sol:FairFight","label":"_status","offset":0,"slot":"201","type":"t_uint256"},{"astId":776,"contract":"contracts/FairFight.sol:FairFight","label":"__gap","offset":0,"slot":"202","type":"t_array(t_uint256)49_storage"},{"astId":4249,"contract":"contracts/FairFight.sol:FairFight","label":"signer","offset":0,"slot":"251","type":"t_address"},{"astId":4251,"contract":"contracts/FairFight.sol:FairFight","label":"feeCollector","offset":0,"slot":"252","type":"t_address"},{"astId":4253,"contract":"contracts/FairFight.sol:FairFight","label":"fee","offset":0,"slot":"253","type":"t_uint256"},{"astId":4256,"contract":"contracts/FairFight.sol:FairFight","label":"maxPlayers","offset":0,"slot":"254","type":"t_uint256"},{"astId":4259,"contract":"contracts/FairFight.sol:FairFight","label":"maxRounds","offset":0,"slot":"255","type":"t_uint256"},{"astId":4265,"contract":"contracts/FairFight.sol:FairFight","label":"minAmountPerRound","offset":0,"slot":"256","type":"t_mapping(t_contract(IERC20)2351,t_uint256)"},{"astId":4271,"contract":"contracts/FairFight.sol:FairFight","label":"playerFullFights","offset":0,"slot":"257","type":"t_mapping(t_address,t_array(t_uint256)dyn_storage)"},{"astId":4276,"contract":"contracts/FairFight.sol:FairFight","label":"lastPlayerFight","offset":0,"slot":"258","type":"t_mapping(t_address,t_uint256)"},{"astId":4281,"contract":"contracts/FairFight.sol:FairFight","label":"currentlyBusy","offset":0,"slot":"259","type":"t_mapping(t_address,t_bool)"},{"astId":4288,"contract":"contracts/FairFight.sol:FairFight","label":"playerClaimed","offset":0,"slot":"260","type":"t_mapping(t_address,t_mapping(t_uint256,t_bool))"},{"astId":4294,"contract":"contracts/FairFight.sol:FairFight","label":"players","offset":0,"slot":"261","type":"t_mapping(t_uint256,t_array(t_address)dyn_storage)"},{"astId":4299,"contract":"contracts/FairFight.sol:FairFight","label":"fights","offset":0,"slot":"262","type":"t_array(t_struct(Fight)4152_storage)dyn_storage"}],"types":{"t_address":{"encoding":"inplace","label":"address","numberOfBytes":"20"},"t_array(t_address)dyn_storage":{"base":"t_address","encoding":"dynamic_array","label":"address[]","numberOfBytes":"32"},"t_array(t_struct(Fight)4152_storage)dyn_storage":{"base":"t_struct(Fight)4152_storage","encoding":"dynamic_array","label":"struct IFairFight.Fight[]","numberOfBytes":"32"},"t_array(t_uint256)49_storage":{"base":"t_uint256","encoding":"inplace","label":"uint256[49]","numberOfBytes":"1568"},"t_array(t_uint256)50_storage":{"base":"t_uint256","encoding":"inplace","label":"uint256[50]","numberOfBytes":"1600"},"t_array(t_uint256)dyn_storage":{"base":"t_uint256","encoding":"dynamic_array","label":"uint256[]","numberOfBytes":"32"},"t_bool":{"encoding":"inplace","label":"bool","numberOfBytes":"1"},"t_bytes32":{"encoding":"inplace","label":"bytes32","numberOfBytes":"32"},"t_contract(IERC20)2351":{"encoding":"inplace","label":"contract IERC20","numberOfBytes":"20"},"t_mapping(t_address,t_array(t_uint256)dyn_storage)":{"encoding":"mapping","key":"t_address","label":"mapping(address => uint256[])","numberOfBytes":"32","value":"t_array(t_uint256)dyn_storage"},"t_mapping(t_address,t_bool)":{"encoding":"mapping","key":"t_address","label":"mapping(address => bool)","numberOfBytes":"32","value":"t_bool"},"t_mapping(t_address,t_mapping(t_uint256,t_bool))":{"encoding":"mapping","key":"t_address","label":"mapping(address => mapping(uint256 => bool))","numberOfBytes":"32","value":"t_mapping(t_uint256,t_bool)"},"t_mapping(t_address,t_uint256)":{"encoding":"mapping","key":"t_address","label":"mapping(address => uint256)","numberOfBytes":"32","value":"t_uint256"},"t_mapping(t_bytes32,t_struct(RoleData)34_storage)":{"encoding":"mapping","key":"t_bytes32","label":"mapping(bytes32 => struct AccessControlUpgradeable.RoleData)","numberOfBytes":"32","value":"t_struct(RoleData)34_storage"},"t_mapping(t_contract(IERC20)2351,t_uint256)":{"encoding":"mapping","key":"t_contract(IERC20)2351","label":"mapping(contract IERC20 => uint256)","numberOfBytes":"32","value":"t_uint256"},"t_mapping(t_uint256,t_array(t_address)dyn_storage)":{"encoding":"mapping","key":"t_uint256","label":"mapping(uint256 => address[])","numberOfBytes":"32","value":"t_array(t_address)dyn_storage"},"t_mapping(t_uint256,t_bool)":{"encoding":"mapping","key":"t_uint256","label":"mapping(uint256 => bool)","numberOfBytes":"32","value":"t_bool"},"t_struct(Fight)4152_storage":{"encoding":"inplace","label":"struct IFairFight.Fight","members":[{"astId":4134,"contract":"contracts/FairFight.sol:FairFight","label":"ID","offset":0,"slot":"0","type":"t_uint256"},{"astId":4136,"contract":"contracts/FairFight.sol:FairFight","label":"owner","offset":0,"slot":"1","type":"t_address"},{"astId":4139,"contract":"contracts/FairFight.sol:FairFight","label":"token","offset":0,"slot":"2","type":"t_contract(IERC20)2351"},{"astId":4141,"contract":"contracts/FairFight.sol:FairFight","label":"baseAmount","offset":0,"slot":"3","type":"t_uint256"},{"astId":4143,"contract":"contracts/FairFight.sol:FairFight","label":"createTime","offset":0,"slot":"4","type":"t_uint256"},{"astId":4145,"contract":"contracts/FairFight.sol:FairFight","label":"finishTime","offset":0,"slot":"5","type":"t_uint256"},{"astId":4147,"contract":"contracts/FairFight.sol:FairFight","label":"amountPerRound","offset":0,"slot":"6","type":"t_uint256"},{"astId":4149,"contract":"contracts/FairFight.sol:FairFight","label":"rounds","offset":0,"slot":"7","type":"t_uint256"},{"astId":4151,"contract":"contracts/FairFight.sol:FairFight","label":"playersAmount","offset":0,"slot":"8","type":"t_uint256"}],"numberOfBytes":"288"},"t_struct(RoleData)34_storage":{"encoding":"inplace","label":"struct AccessControlUpgradeable.RoleData","members":[{"astId":31,"contract":"contracts/FairFight.sol:FairFight","label":"members","offset":0,"slot":"0","type":"t_mapping(t_address,t_bool)"},{"astId":33,"contract":"contracts/FairFight.sol:FairFight","label":"adminRole","offset":0,"slot":"1","type":"t_bytes32"}],"numberOfBytes":"64"},"t_uint256":{"encoding":"inplace","label":"uint256","numberOfBytes":"32"},"t_uint8":{"encoding":"inplace","label":"uint8","numberOfBytes":"1"}}}}}}